{
  "address": "0x126ABDa7fb05259494434273ba7f6650130081BC",
  "abi": [
    {
      "anonymous": false,
      "inputs": [
        {
          "indexed": true,
          "internalType": "address",
          "name": "previousOwner",
          "type": "address"
        },
        {
          "indexed": true,
          "internalType": "address",
          "name": "newOwner",
          "type": "address"
        }
      ],
      "name": "OwnershipTransferred",
      "type": "event"
    },
    {
      "anonymous": false,
      "inputs": [
        {
          "indexed": true,
          "internalType": "uint256",
          "name": "oldPositionId",
          "type": "uint256"
        },
        {
          "indexed": true,
          "internalType": "uint256",
          "name": "newPositionId",
          "type": "uint256"
        },
        {
          "indexed": false,
          "internalType": "uint256",
          "name": "startValue",
          "type": "uint256"
        },
        {
          "indexed": false,
          "internalType": "uint256",
          "name": "endValue",
          "type": "uint256"
        },
        {
          "indexed": false,
          "internalType": "uint256",
          "name": "collected0",
          "type": "uint256"
        },
        {
          "indexed": false,
          "internalType": "uint256",
          "name": "collected1",
          "type": "uint256"
        },
        {
          "indexed": false,
          "internalType": "uint160",
          "name": "poolPrice",
          "type": "uint160"
        },
        {
          "indexed": false,
          "internalType": "int256",
          "name": "loss",
          "type": "int256"
        }
      ],
      "name": "Repositioned",
      "type": "event"
    },
    {
      "inputs": [
        {
          "internalType": "contract INonfungiblePositionManager",
          "name": "_nftManager",
          "type": "address"
        },
        {
          "internalType": "contract IUniswapV3Factory",
          "name": "_uniswapFactory",
          "type": "address"
        },
        {
          "internalType": "address",
          "name": "_quoter",
          "type": "address"
        },
        {
          "internalType": "uint256",
          "name": "_width",
          "type": "uint256"
        },
        {
          "internalType": "uint256",
          "name": "_minShare",
          "type": "uint256"
        },
        {
          "internalType": "uint256",
          "name": "_maxShare",
          "type": "uint256"
        },
        {
          "internalType": "enum AutoPositionManager.Side",
          "name": "_mainSide",
          "type": "uint8"
        },
        {
          "internalType": "int256",
          "name": "_maxLoss",
          "type": "int256"
        }
      ],
      "name": "__AutoPositionManager_init",
      "outputs": [],
      "stateMutability": "nonpayable",
      "type": "function"
    },
    {
      "inputs": [
        {
          "internalType": "uint256",
          "name": "amount0",
          "type": "uint256"
        },
        {
          "internalType": "uint256",
          "name": "amount1",
          "type": "uint256"
        },
        {
          "internalType": "uint160",
          "name": "poolPrice",
          "type": "uint160"
        },
        {
          "internalType": "uint160",
          "name": "priceLower",
          "type": "uint160"
        },
        {
          "internalType": "uint160",
          "name": "priceUpper",
          "type": "uint160"
        }
      ],
      "name": "calculatePoolMintedAmounts",
      "outputs": [
        {
          "internalType": "uint256",
          "name": "amount0Minted",
          "type": "uint256"
        },
        {
          "internalType": "uint256",
          "name": "amount1Minted",
          "type": "uint256"
        }
      ],
      "stateMutability": "pure",
      "type": "function"
    },
    {
      "inputs": [
        {
          "internalType": "uint256",
          "name": "amount0",
          "type": "uint256"
        },
        {
          "internalType": "uint256",
          "name": "amount1",
          "type": "uint256"
        },
        {
          "internalType": "uint160",
          "name": "sqrtPriceX96",
          "type": "uint160"
        }
      ],
      "name": "calculateValueInToken1",
      "outputs": [
        {
          "internalType": "uint256",
          "name": "valueInToken1",
          "type": "uint256"
        }
      ],
      "stateMutability": "pure",
      "type": "function"
    },
    {
      "inputs": [],
      "name": "claimOwner",
      "outputs": [],
      "stateMutability": "nonpayable",
      "type": "function"
    },
    {
      "inputs": [
        {
          "internalType": "uint128",
          "name": "liquidity",
          "type": "uint128"
        },
        {
          "internalType": "uint160",
          "name": "poolPrice",
          "type": "uint160"
        },
        {
          "internalType": "uint160",
          "name": "priceLower",
          "type": "uint160"
        },
        {
          "internalType": "uint160",
          "name": "priceUpper",
          "type": "uint160"
        }
      ],
      "name": "getAmountsForLiquidity",
      "outputs": [
        {
          "internalType": "uint256",
          "name": "amount0",
          "type": "uint256"
        },
        {
          "internalType": "uint256",
          "name": "amount1",
          "type": "uint256"
        }
      ],
      "stateMutability": "pure",
      "type": "function"
    },
    {
      "inputs": [
        {
          "internalType": "uint128",
          "name": "liquidity",
          "type": "uint128"
        },
        {
          "internalType": "uint160",
          "name": "poolPrice",
          "type": "uint160"
        },
        {
          "components": [
            {
              "internalType": "uint256",
              "name": "id",
              "type": "uint256"
            },
            {
              "internalType": "address",
              "name": "token0",
              "type": "address"
            },
            {
              "internalType": "address",
              "name": "token1",
              "type": "address"
            },
            {
              "internalType": "uint24",
              "name": "fee",
              "type": "uint24"
            },
            {
              "internalType": "int24",
              "name": "tickLower",
              "type": "int24"
            },
            {
              "internalType": "int24",
              "name": "tickUpper",
              "type": "int24"
            },
            {
              "internalType": "uint128",
              "name": "liquidity",
              "type": "uint128"
            }
          ],
          "internalType": "struct AutoPositionManager.Position",
          "name": "pos",
          "type": "tuple"
        }
      ],
      "name": "getAmountsForLiquidity",
      "outputs": [
        {
          "internalType": "uint256",
          "name": "amount0",
          "type": "uint256"
        },
        {
          "internalType": "uint256",
          "name": "amount1",
          "type": "uint256"
        }
      ],
      "stateMutability": "pure",
      "type": "function"
    },
    {
      "inputs": [
        {
          "internalType": "uint256",
          "name": "amount0",
          "type": "uint256"
        },
        {
          "internalType": "uint256",
          "name": "amount1",
          "type": "uint256"
        },
        {
          "internalType": "uint160",
          "name": "poolPrice",
          "type": "uint160"
        },
        {
          "internalType": "uint160",
          "name": "priceLower",
          "type": "uint160"
        },
        {
          "internalType": "uint160",
          "name": "priceUpper",
          "type": "uint160"
        }
      ],
      "name": "getLiquidityForAmounts",
      "outputs": [
        {
          "internalType": "uint128",
          "name": "liquidity",
          "type": "uint128"
        }
      ],
      "stateMutability": "pure",
      "type": "function"
    },
    {
      "inputs": [
        {
          "components": [
            {
              "internalType": "uint256",
              "name": "id",
              "type": "uint256"
            },
            {
              "internalType": "address",
              "name": "token0",
              "type": "address"
            },
            {
              "internalType": "address",
              "name": "token1",
              "type": "address"
            },
            {
              "internalType": "uint24",
              "name": "fee",
              "type": "uint24"
            },
            {
              "internalType": "int24",
              "name": "tickLower",
              "type": "int24"
            },
            {
              "internalType": "int24",
              "name": "tickUpper",
              "type": "int24"
            },
            {
              "internalType": "uint128",
              "name": "liquidity",
              "type": "uint128"
            }
          ],
          "internalType": "struct AutoPositionManager.Position",
          "name": "pos",
          "type": "tuple"
        }
      ],
      "name": "getPoolAddress",
      "outputs": [
        {
          "internalType": "address",
          "name": "pool",
          "type": "address"
        }
      ],
      "stateMutability": "view",
      "type": "function"
    },
    {
      "inputs": [
        {
          "internalType": "uint256",
          "name": "_positionId",
          "type": "uint256"
        }
      ],
      "name": "getPoolPrice",
      "outputs": [
        {
          "internalType": "uint160",
          "name": "price",
          "type": "uint160"
        }
      ],
      "stateMutability": "view",
      "type": "function"
    },
    {
      "inputs": [
        {
          "internalType": "address",
          "name": "_pool",
          "type": "address"
        }
      ],
      "name": "getPoolPriceFromAddress",
      "outputs": [
        {
          "internalType": "uint160",
          "name": "price",
          "type": "uint160"
        }
      ],
      "stateMutability": "view",
      "type": "function"
    },
    {
      "inputs": [
        {
          "internalType": "int24",
          "name": "tick",
          "type": "int24"
        }
      ],
      "name": "getPriceFromTick",
      "outputs": [
        {
          "internalType": "uint160",
          "name": "",
          "type": "uint160"
        }
      ],
      "stateMutability": "pure",
      "type": "function"
    },
    {
      "inputs": [],
      "name": "mainSide",
      "outputs": [
        {
          "internalType": "enum AutoPositionManager.Side",
          "name": "",
          "type": "uint8"
        }
      ],
      "stateMutability": "view",
      "type": "function"
    },
    {
      "inputs": [],
      "name": "maxLoss",
      "outputs": [
        {
          "internalType": "int256",
          "name": "",
          "type": "int256"
        }
      ],
      "stateMutability": "view",
      "type": "function"
    },
    {
      "inputs": [],
      "name": "maxShare",
      "outputs": [
        {
          "internalType": "uint256",
          "name": "",
          "type": "uint256"
        }
      ],
      "stateMutability": "view",
      "type": "function"
    },
    {
      "inputs": [],
      "name": "minShare",
      "outputs": [
        {
          "internalType": "uint256",
          "name": "",
          "type": "uint256"
        }
      ],
      "stateMutability": "view",
      "type": "function"
    },
    {
      "inputs": [],
      "name": "nftManager",
      "outputs": [
        {
          "internalType": "contract INonfungiblePositionManager",
          "name": "",
          "type": "address"
        }
      ],
      "stateMutability": "view",
      "type": "function"
    },
    {
      "inputs": [
        {
          "internalType": "address",
          "name": "",
          "type": "address"
        },
        {
          "internalType": "address",
          "name": "from",
          "type": "address"
        },
        {
          "internalType": "uint256",
          "name": "tokenId",
          "type": "uint256"
        },
        {
          "internalType": "bytes",
          "name": "",
          "type": "bytes"
        }
      ],
      "name": "onERC721Received",
      "outputs": [
        {
          "internalType": "bytes4",
          "name": "",
          "type": "bytes4"
        }
      ],
      "stateMutability": "nonpayable",
      "type": "function"
    },
    {
      "inputs": [],
      "name": "positionId",
      "outputs": [
        {
          "internalType": "uint256",
          "name": "",
          "type": "uint256"
        }
      ],
      "stateMutability": "view",
      "type": "function"
    },
    {
      "inputs": [],
      "name": "quoter",
      "outputs": [
        {
          "internalType": "address",
          "name": "",
          "type": "address"
        }
      ],
      "stateMutability": "view",
      "type": "function"
    },
    {
      "inputs": [],
      "name": "readOwner",
      "outputs": [
        {
          "internalType": "address",
          "name": "",
          "type": "address"
        }
      ],
      "stateMutability": "view",
      "type": "function"
    },
    {
      "inputs": [
        {
          "internalType": "uint256",
          "name": "_positionId",
          "type": "uint256"
        }
      ],
      "name": "readPosition",
      "outputs": [
        {
          "components": [
            {
              "internalType": "uint256",
              "name": "id",
              "type": "uint256"
            },
            {
              "internalType": "address",
              "name": "token0",
              "type": "address"
            },
            {
              "internalType": "address",
              "name": "token1",
              "type": "address"
            },
            {
              "internalType": "uint24",
              "name": "fee",
              "type": "uint24"
            },
            {
              "internalType": "int24",
              "name": "tickLower",
              "type": "int24"
            },
            {
              "internalType": "int24",
              "name": "tickUpper",
              "type": "int24"
            },
            {
              "internalType": "uint128",
              "name": "liquidity",
              "type": "uint128"
            }
          ],
          "internalType": "struct AutoPositionManager.Position",
          "name": "",
          "type": "tuple"
        }
      ],
      "stateMutability": "view",
      "type": "function"
    },
    {
      "inputs": [],
      "name": "readState",
      "outputs": [
        {
          "components": [
            {
              "internalType": "uint256",
              "name": "id",
              "type": "uint256"
            },
            {
              "internalType": "address",
              "name": "token0",
              "type": "address"
            },
            {
              "internalType": "address",
              "name": "token1",
              "type": "address"
            },
            {
              "internalType": "uint24",
              "name": "fee",
              "type": "uint24"
            },
            {
              "internalType": "int24",
              "name": "tickLower",
              "type": "int24"
            },
            {
              "internalType": "int24",
              "name": "tickUpper",
              "type": "int24"
            },
            {
              "internalType": "uint128",
              "name": "liquidity",
              "type": "uint128"
            }
          ],
          "internalType": "struct AutoPositionManager.Position",
          "name": "pos",
          "type": "tuple"
        },
        {
          "components": [
            {
              "internalType": "address",
              "name": "id",
              "type": "address"
            },
            {
              "internalType": "address",
              "name": "token0",
              "type": "address"
            },
            {
              "internalType": "address",
              "name": "token1",
              "type": "address"
            },
            {
              "internalType": "uint24",
              "name": "fee",
              "type": "uint24"
            },
            {
              "internalType": "uint160",
              "name": "price",
              "type": "uint160"
            }
          ],
          "internalType": "struct AutoPositionManager.Pool",
          "name": "pool",
          "type": "tuple"
        },
        {
          "internalType": "uint256",
          "name": "decimals0",
          "type": "uint256"
        },
        {
          "internalType": "uint256",
          "name": "decimals1",
          "type": "uint256"
        },
        {
          "internalType": "uint256",
          "name": "staked0",
          "type": "uint256"
        },
        {
          "internalType": "uint256",
          "name": "staked1",
          "type": "uint256"
        },
        {
          "internalType": "uint256",
          "name": "balance0",
          "type": "uint256"
        },
        {
          "internalType": "uint256",
          "name": "balance1",
          "type": "uint256"
        }
      ],
      "stateMutability": "view",
      "type": "function"
    },
    {
      "inputs": [
        {
          "components": [
            {
              "internalType": "int24",
              "name": "newTickLower",
              "type": "int24"
            },
            {
              "internalType": "int24",
              "name": "newTickUpper",
              "type": "int24"
            },
            {
              "internalType": "uint256",
              "name": "minAmount0Staked",
              "type": "uint256"
            },
            {
              "internalType": "uint256",
              "name": "minAmount1Staked",
              "type": "uint256"
            },
            {
              "internalType": "address",
              "name": "exchange",
              "type": "address"
            },
            {
              "internalType": "bytes",
              "name": "swapData",
              "type": "bytes"
            }
          ],
          "internalType": "struct AutoPositionManager.RepositionParams",
          "name": "params",
          "type": "tuple"
        }
      ],
      "name": "reposition",
      "outputs": [],
      "stateMutability": "nonpayable",
      "type": "function"
    },
    {
      "inputs": [
        {
          "internalType": "int256",
          "name": "_maxLoss",
          "type": "int256"
        }
      ],
      "name": "setMaxLoss",
      "outputs": [],
      "stateMutability": "nonpayable",
      "type": "function"
    },
    {
      "inputs": [
        {
          "internalType": "address",
          "name": "account",
          "type": "address"
        },
        {
          "internalType": "bool",
          "name": "_operator",
          "type": "bool"
        }
      ],
      "name": "setOperator",
      "outputs": [],
      "stateMutability": "nonpayable",
      "type": "function"
    },
    {
      "inputs": [],
      "name": "uniswapFactory",
      "outputs": [
        {
          "internalType": "contract IUniswapV3Factory",
          "name": "",
          "type": "address"
        }
      ],
      "stateMutability": "view",
      "type": "function"
    },
    {
      "inputs": [],
      "name": "width",
      "outputs": [
        {
          "internalType": "uint256",
          "name": "",
          "type": "uint256"
        }
      ],
      "stateMutability": "view",
      "type": "function"
    },
    {
      "inputs": [],
      "name": "withdraw",
      "outputs": [],
      "stateMutability": "nonpayable",
      "type": "function"
    }
  ],
  "transactionHash": "0xe29bab18edecef6c0244f5d09bd2277f2798b0cb1f8ba9397e1c2264c1b00b92",
  "args": [],
  "numDeployments": 25,
  "solcInputHash": "5d0558d92d7051efe7f1ebb412d5c54b",
  "bytecode": "0x608060405234801561001057600080fd5b50613adc806100206000396000f3fe608060405234801561001057600080fd5b50600436106101c45760003560e01c806382cdf3f6116100f9578063b76e4d1311610097578063c6bbd5a711610071578063c6bbd5a714610393578063e88b91ea1461039b578063fe12dbfb146103a3578063ff802348146103b6576101c4565b8063b76e4d131461034b578063b94d667d1461035e578063bafcf68e14610373576101c4565b80638bdb2afa116100d35780638bdb2afa146103205780639389acb5146103285780639af94f30146103305780639ededf7714610343576101c4565b806382cdf3f6146102f2578063830db6a8146103055780638bb28de214610318576101c4565b8063477a81f51161016657806359e0fe181161014057806359e0fe18146102bc5780635a75a809146102cf57806371640de3146102d7578063736d917c146102df576101c4565b8063477a81f514610281578063558a7297146102945780635783fe39146102a7576101c4565b80632778c334116101a25780632778c334146102335780633bd1adec1461024f5780633ccfd60b1461025957806341d00d0a14610261576101c4565b8063016c8cc0146101c9578063150b7a02146101f3578063182aa0d814610213575b600080fd5b6101dc6101d7366004612f74565b6103c9565b6040516101ea929190613849565b60405180910390f35b610206610201366004612d4c565b6103e5565b6040516101ea91906133a4565b610226610221366004612ec1565b6104ad565b6040516101ea9190613791565b61023b6105fb565b6040516101ea98979695949392919061379f565b61025761085b565b005b61025761089b565b61027461026f366004612d14565b610ad5565b6040516101ea919061332a565b61025761028f366004612e1e565b610b5d565b6102576102a2366004612de6565b610c59565b6102af610cc3565b6040516101ea91906133e5565b6102746102ca366004612ea5565b610cc9565b6102af610cda565b6102af610ce0565b6101dc6102ed366004612f2c565b610ce6565b610257610300366004612ef4565b610d14565b610257610313366004612ec1565b610e9e565b6102af610ee2565b610274610ee8565b610274610ef7565b61027461033e366004612ec1565b610f06565b6102af610f17565b610274610359366004612ed9565b610f1d565b610366610fc6565b6040516101ea91906133d1565b61038661038136600461310d565b610fcf565b6040516101ea919061382c565b610274610fe8565b610274610ff7565b6101dc6103b136600461310d565b611006565b6102af6103c43660046130d5565b611035565b6000806103d885858589611069565b9097909650945050505050565b6033546000906001600160a01b03166103fc611105565b6001600160a01b03161461040f57600080fd5b610417611109565b6001600160a01b0316856001600160a01b0316146104505760405162461bcd60e51b8152600401610447906135a6565b60405180910390fd5b603b541580610460575083603b54145b61047c5760405162461bcd60e51b81526004016104479061356f565b50603b8390557f150b7a02000000000000000000000000000000000000000000000000000000005b95945050505050565b6104b5612af7565b816104d25760405162461bcd60e51b815260040161044790613425565b6033546040517f99fbab88000000000000000000000000000000000000000000000000000000008152600091829182918291829182916001600160a01b03909116906399fbab8890610528908b906004016133e5565b6101806040518083038186803b15801561054157600080fd5b505afa158015610555573d6000803e3d6000fd5b505050506040513d601f19601f820116820180604052508101906105799190613185565b5050505097509750975097509750975050506040518060e00160405280898152602001876001600160a01b03168152602001866001600160a01b031681526020018562ffffff1681526020018460020b81526020018360020b8152602001826fffffffffffffffffffffffffffffffff1681525096505050505050505b919050565b610603612af7565b61060b612b33565b60008060008060008061061f603b546104ad565b975061062a8861112e565b965086602001516001600160a01b031663313ce5676040518163ffffffff1660e01b815260040160206040518083038186803b15801561066957600080fd5b505afa15801561067d573d6000803e3d6000fd5b505050506040513d601f19601f820116820180604052508101906106a1919061316b565b60ff16955086604001516001600160a01b031663313ce5676040518163ffffffff1660e01b815260040160206040518083038186803b1580156106e357600080fd5b505afa1580156106f7573d6000803e3d6000fd5b505050506040513d601f19601f8201168201806040525081019061071b919061316b565b60ff16945061072e8760800151896111ad565b60208901516040517f70a082310000000000000000000000000000000000000000000000000000000081529296509094506001600160a01b0316906370a082319061077d90309060040161332a565b60206040518083038186803b15801561079557600080fd5b505afa1580156107a9573d6000803e3d6000fd5b505050506040513d601f19601f820116820180604052508101906107cd919061305d565b915086604001516001600160a01b03166370a08231306040518263ffffffff1660e01b81526004016107ff919061332a565b60206040518083038186803b15801561081757600080fd5b505afa15801561082b573d6000803e3d6000fd5b505050506040513d601f19601f8201168201806040525081019061084f919061305d565b90509091929394959697565b610863611109565b6001600160a01b0316156108895760405162461bcd60e51b81526004016104479061345c565b610899610894611105565b6111ca565b565b6108a3611109565b6001600160a01b03166108b4611105565b6001600160a01b0316146108da5760405162461bcd60e51b8152600401610447906135dd565b603b546108f95760405162461bcd60e51b8152600401610447906133ee565b603b541561089957600061090e603b546104ad565b6033549091506001600160a01b03166323b872dd3061092b611105565b603b546040518463ffffffff1660e01b815260040161094c93929190613358565b600060405180830381600087803b15801561096657600080fd5b505af115801561097a573d6000803e3d6000fd5b50506000603b55505060208101516040517f70a08231000000000000000000000000000000000000000000000000000000008152610a399133916001600160a01b03909116906370a08231906109d490309060040161332a565b60206040518083038186803b1580156109ec57600080fd5b505afa158015610a00573d6000803e3d6000fd5b505050506040513d601f19601f82011682018060405250810190610a24919061305d565b60208401516001600160a01b0316919061123d565b610ad23382604001516001600160a01b03166370a08231306040518263ffffffff1660e01b8152600401610a6d919061332a565b60206040518083038186803b158015610a8557600080fd5b505afa158015610a99573d6000803e3d6000fd5b505050506040513d601f19601f82011682018060405250810190610abd919061305d565b60408401516001600160a01b0316919061123d565b50565b6000808290506000816001600160a01b0316633850c7bd6040518163ffffffff1660e01b815260040160e06040518083038186803b158015610b1657600080fd5b505afa158015610b2a573d6000803e3d6000fd5b505050506040513d601f19601f82011682018060405250810190610b4e9190612fcf565b50949998505050505050505050565b600054610100900460ff1680610b765750610b766112c2565b80610b84575060005460ff16155b610bbf5760405162461bcd60e51b815260040180806020018281038252602e815260200180613a1a602e913960400191505060405180910390fd5b600054610100900460ff16158015610c07576000805460ff197fffffffffffffffffffffffffffffffffffffffffffffffffffffffffffff00ff909116610100171660011790555b610c0f6112d3565b610c1f89898989898989896113ae565b8015610c4e57600080547fffffffffffffffffffffffffffffffffffffffffffffffffffffffffffff00ff1690555b505050505050505050565b610c61611109565b6001600160a01b0316610c72611105565b6001600160a01b031614610c985760405162461bcd60e51b8152600401610447906135dd565b6001600160a01b03919091166000908152603c60205260409020805460ff1916911515919091179055565b603a5481565b6000610cd48261143b565b92915050565b60385481565b603b5481565b600080610d088585610cfb8660800151610cc9565b6101d78760a00151610cc9565b90969095509350505050565b610d1c611796565b610d385760405162461bcd60e51b8152600401610447906134ca565b6000610d45603b546104ad565b9050610d59610d53836138f2565b826117c6565b6000610d648261112e565b9050600080610d738385611811565b505091509150610d868460000151611864565b6000610d91846118e2565b9250610da391505060a0870187613888565b159050610e3757610dc384610dbe60a0890160808a01612d14565b611a39565b610e1d610dd660a0880160808901612d14565b610de360a0890189613888565b8080601f016020809104026020016040519081016040528093929190818152602001838380828437600092019190915250611b7b92505050565b8351610e2890610ad5565b6001600160a01b031660808501525b6000610e42856118e2565b925050506000610e62610e5484611bf8565b610e5d84611bf8565b611c5c565b9050610e6d86611c93565b6000610e8187610e7c8b6138f2565b611e21565b8051603b556080880151909150610c4e90898387878b8b89611f65565b610ea6611109565b6001600160a01b0316610eb7611105565b6001600160a01b031614610edd5760405162461bcd60e51b8152600401610447906135dd565b603a55565b60375481565b6034546001600160a01b031681565b6000610f01611109565b905090565b6000610cd461026f610359846104ad565b60365481565b6034546020820151604080840151606085015191517f1698ee820000000000000000000000000000000000000000000000000000000081526000946001600160a01b031693631698ee8293610f7693919260040161337c565b60206040518083038186803b158015610f8e57600080fd5b505afa158015610fa2573d6000803e3d6000fd5b505050506040513d601f19601f82011682018060405250810190610cd49190612d30565b60395460ff1681565b6000610fde8484848989611fba565b9695505050505050565b6035546001600160a01b031681565b6033546001600160a01b031681565b60008060006110188888888888610fcf565b9050611026818787876103c9565b90999098509650505050505050565b78010000000000000000000000000000000000000000000000006001600160a01b0391909116928302909202919091040190565b600080836001600160a01b0316856001600160a01b0316111561108a579293925b846001600160a01b0316866001600160a01b0316116110b5576110ae858585612084565b91506110fc565b836001600160a01b0316866001600160a01b031610156110ee576110da868585612084565b91506110e78587856120f8565b90506110fc565b6110f98585856120f8565b90505b94509492505050565b3390565b7fb53127684a568b3173ae13b9f8a6016e243e63b6e8ee1178d6a717850b5d61035490565b611136612b33565b600061114183610f1d565b90506040518060a00160405280826001600160a01b0316815260200184602001516001600160a01b0316815260200184604001516001600160a01b03168152602001846060015162ffffff16815260200161119b83610ad5565b6001600160a01b031690529392505050565b6000806111bf8360c001518585610ce6565b909590945092505050565b60006111d4611109565b9050817fb53127684a568b3173ae13b9f8a6016e243e63b6e8ee1178d6a717850b5d610355816001600160a01b0316816001600160a01b03167f8be0079c531659141344cd1fd0a4f28419497f9722a3daafe3b4186f6b6457e060405160405180910390a35050565b604080516001600160a01b038416602482015260448082018490528251808303909101815260649091019091526020810180517bffffffffffffffffffffffffffffffffffffffffffffffffffffffff167fa9059cbb000000000000000000000000000000000000000000000000000000001790526112bd908490612155565b505050565b60006112cd30612206565b15905090565b600054610100900460ff16806112ec57506112ec6112c2565b806112fa575060005460ff16155b6113355760405162461bcd60e51b815260040180806020018281038252602e815260200180613a1a602e913960400191505060405180910390fd5b600054610100900460ff1615801561137d576000805460ff197fffffffffffffffffffffffffffffffffffffffffffffffffffffffffffff00ff909116610100171660011790555b8015610ad257600080547fffffffffffffffffffffffffffffffffffffffffffffffffffffffffffff00ff16905550565b603380546001600160a01b03808b167fffffffffffffffffffffffff000000000000000000000000000000000000000092831617909255603480548a841690831617905560358054928916929091169190911790556036859055603784905560388390556039805483919060ff19166001838181111561142a57fe5b0217905550603a5550505050505050565b60008060008360020b12611452578260020b61145a565b8260020b6000035b9050620d89e88111156114b4576040805162461bcd60e51b815260206004820152600160248201527f5400000000000000000000000000000000000000000000000000000000000000604482015290519081900360640190fd5b6000600182166114d5577001000000000000000000000000000000006114e7565b6ffffcb933bd6fad37aa2d162d1a5940015b70ffffffffffffffffffffffffffffffffff169050600282161561151b576ffff97272373d413259a46990580e213a0260801c5b600482161561153a576ffff2e50f5f656932ef12357cf3c7fdcc0260801c5b6008821615611559576fffe5caca7e10e4e61c3624eaa0941cd00260801c5b6010821615611578576fffcb9843d60f6159c9db58835c9266440260801c5b6020821615611597576fff973b41fa98c081472e6896dfb254c00260801c5b60408216156115b6576fff2ea16466c96a3843ec78b326b528610260801c5b60808216156115d5576ffe5dee046a99a2a811c461f1969c30530260801c5b6101008216156115f5576ffcbe86c7900a88aedcffc83b479aa3a40260801c5b610200821615611615576ff987a7253ac413176f2b074cf7815e540260801c5b610400821615611635576ff3392b0822b70005940c7a398e4b70f30260801c5b610800821615611655576fe7159475a2c29b7443b29c7fa6e889d90260801c5b611000821615611675576fd097f3bdfd2022b8845ad8f792aa58250260801c5b612000821615611695576fa9f746462d870fdf8a65dc1f90e061e50260801c5b6140008216156116b5576f70d869a156d2a1b890bb3df62baf32f70260801c5b6180008216156116d5576f31be135f97d08fd981231505542fcfa60260801c5b620100008216156116f6576f09aa508b5b7a84e1c677de54f3e99bc90260801c5b62020000821615611716576e5d6af8dedb81196699c329225ee6040260801c5b62040000821615611735576d2216e584f5fa1ea926041bedfe980260801c5b62080000821615611752576b048a170391f7dc42444e8fa20260801c5b60008460020b131561176d57806000198161176957fe5b0490505b640100000000810615611781576001611784565b60005b60ff16602082901c0192505050919050565b6000603c60006117a4611105565b6001600160a01b0316815260208101919091526040016000205460ff16905090565b806080015160020b826000015160020b1415806117f157508060a0015160020b826020015160020b14155b61180d5760405162461bcd60e51b815260040161044790613493565b5050565b6000806000806118366fffffffffffffffffffffffffffffffff80876000015161220c565b909450925061184586866122da565b86519193509150611859908390839061220c565b505092959194509250565b6033546040517f42966c680000000000000000000000000000000000000000000000000000000081526001600160a01b03909116906342966c68906118ad9084906004016133e5565b600060405180830381600087803b1580156118c757600080fd5b505af11580156118db573d6000803e3d6000fd5b5050505050565b600080600083602001516001600160a01b03166370a08231306040518263ffffffff1660e01b8152600401611917919061332a565b60206040518083038186803b15801561192f57600080fd5b505afa158015611943573d6000803e3d6000fd5b505050506040513d601f19601f82011682018060405250810190611967919061305d565b925083604001516001600160a01b03166370a08231306040518263ffffffff1660e01b8152600401611999919061332a565b60206040518083038186803b1580156119b157600080fd5b505afa1580156119c5573d6000803e3d6000fd5b505050506040513d601f19601f820116820180604052508101906119e9919061305d565b9150600160395460ff1660018111156119fe57fe5b1415611a1a57611a1383838660800151611035565b9050611a32565b60405162461bcd60e51b815260040161044790613614565b9193909250565b81602001516001600160a01b031663dd62ed3e30836040518363ffffffff1660e01b8152600401611a6b92919061333e565b60206040518083038186803b158015611a8357600080fd5b505afa158015611a97573d6000803e3d6000fd5b505050506040513d601f19601f82011682018060405250810190611abb919061305d565b611ada576020820151611ada906001600160a01b0316826000196123cb565b81604001516001600160a01b031663dd62ed3e30836040518363ffffffff1660e01b8152600401611b0c92919061333e565b60206040518083038186803b158015611b2457600080fd5b505afa158015611b38573d6000803e3d6000fd5b505050506040513d601f19601f82011682018060405250810190611b5c919061305d565b61180d57604082015161180d906001600160a01b0316826000196123cb565b6000826001600160a01b031682604051611b9591906132f1565b6000604051808303816000865af19150503d8060008114611bd2576040519150601f19603f3d011682016040523d82523d6000602084013e611bd7565b606091505b50509050806112bd5760405162461bcd60e51b815260040161044790613501565b60007f80000000000000000000000000000000000000000000000000000000000000008210611c585760405162461bcd60e51b8152600401808060200182810382526028815260200180613a486028913960400191505060405180910390fd5b5090565b600082828403620f42400281611c6e57fe5b059050603a54811315610cd45760405162461bcd60e51b815260040161044790613538565b60208101516033546040517fdd62ed3e0000000000000000000000000000000000000000000000000000000081526001600160a01b039283169263dd62ed3e92611ce59230929091169060040161333e565b60206040518083038186803b158015611cfd57600080fd5b505afa158015611d11573d6000803e3d6000fd5b505050506040513d601f19601f82011682018060405250810190611d35919061305d565b611d5a576033546020820151611d5a916001600160a01b0391821691166000196123cb565b60408082015160335491517fdd62ed3e0000000000000000000000000000000000000000000000000000000081526001600160a01b039182169263dd62ed3e92611dac9230929091169060040161333e565b60206040518083038186803b158015611dc457600080fd5b505afa158015611dd8573d6000803e3d6000fd5b505050506040513d601f19601f82011682018060405250810190611dfc919061305d565b610ad2576033546040820151610ad2916001600160a01b0391821691166000196123cb565b611e29612af7565b600080611f4c85602001516001600160a01b03166370a08231306040518263ffffffff1660e01b8152600401611e5f919061332a565b60206040518083038186803b158015611e7757600080fd5b505afa158015611e8b573d6000803e3d6000fd5b505050506040513d601f19601f82011682018060405250810190611eaf919061305d565b86604001516001600160a01b03166370a08231306040518263ffffffff1660e01b8152600401611edf919061332a565b60206040518083038186803b158015611ef757600080fd5b505afa158015611f0b573d6000803e3d6000fd5b505050506040513d601f19601f82011682018060405250810190611f2f919061305d565b60808801518751611f3f90610cc9565b6103b18960200151610cc9565b915091506104a482828787600001518860200151612525565b856000015187600001517fa8181e72bb18013c8fc88962adda39749ece0e9378fba45d5692c76273f15b0f878787878e88604051611fa896959493929190613857565b60405180910390a35050505050505050565b6000836001600160a01b0316856001600160a01b03161115611fda579293925b846001600160a01b0316866001600160a01b03161161200557611ffe85858561269b565b90506104a4565b836001600160a01b0316866001600160a01b0316101561207957600061202c87868661269b565b9050600061203b878986612707565b9050806fffffffffffffffffffffffffffffffff16826fffffffffffffffffffffffffffffffff161061206e5780612070565b815b925050506104a4565b610fde858584612707565b6000826001600160a01b0316846001600160a01b031611156120a4579192915b836001600160a01b03166120e6606060ff16846fffffffffffffffffffffffffffffffff16901b8686036001600160a01b0316866001600160a01b0316612749565b816120ed57fe5b0490505b9392505050565b6000826001600160a01b0316846001600160a01b03161115612118579192915b61214d826fffffffffffffffffffffffffffffffff168585036001600160a01b03166c01000000000000000000000000612749565b949350505050565b60006121aa826040518060400160405280602081526020017f5361666545524332303a206c6f772d6c6576656c2063616c6c206661696c6564815250856001600160a01b03166127f89092919063ffffffff16565b8051909150156112bd578080602001905160208110156121c957600080fd5b50516112bd5760405162461bcd60e51b815260040180806020018281038252602a815260200180613a70602a913960400191505060405180910390fd5b3b151590565b603354604080516080810182528381523060208201526fffffffffffffffffffffffffffffffff808716828401528516606082015290517ffc6f786500000000000000000000000000000000000000000000000000000000815260009283926001600160a01b039091169163fc6f7865916122899160040161364b565b6040805180830381600087803b1580156122a257600080fd5b505af11580156122b6573d6000803e3d6000fd5b505050506040513d601f19601f82011682018060405250810190610d0891906130b2565b6000806000806122f38560c00151876080015187610ce6565b6033546040805160a0810182528951815260c08a01516fffffffffffffffffffffffffffffffff1660208201528082018590526060810184905242608082015290517f0c49ccbe0000000000000000000000000000000000000000000000000000000081529395509193506001600160a01b031691630c49ccbe9161237a91600401613697565b6040805180830381600087803b15801561239357600080fd5b505af11580156123a7573d6000803e3d6000fd5b505050506040513d601f19601f820116820180604052508101906103d891906130b2565b80158061246a5750604080517fdd62ed3e0000000000000000000000000000000000000000000000000000000081523060048201526001600160a01b03848116602483015291519185169163dd62ed3e91604480820192602092909190829003018186803b15801561243c57600080fd5b505afa158015612450573d6000803e3d6000fd5b505050506040513d602081101561246657600080fd5b5051155b6124a55760405162461bcd60e51b8152600401808060200182810382526036815260200180613a9a6036913960400191505060405180910390fd5b604080516001600160a01b038416602482015260448082018490528251808303909101815260649091019091526020810180517bffffffffffffffffffffffffffffffffffffffffffffffffffffffff167f095ea7b3000000000000000000000000000000000000000000000000000000001790526112bd908490612155565b61252d612af7565b6000603360009054906101000a90046001600160a01b03166001600160a01b0316638831645660405180610160016040528088602001516001600160a01b0316815260200188604001516001600160a01b03168152602001886060015162ffffff1681526020018760020b81526020018660020b81526020018a81526020018981526020016125d06125c960648d61280790919063ffffffff16565b8c9061286e565b81526020016125ea6125e38b6064612807565b8b9061286e565b815230602082015242604091820152517fffffffff0000000000000000000000000000000000000000000000000000000060e084901b16815261263091906004016136e3565b608060405180830381600087803b15801561264a57600080fd5b505af115801561265e573d6000803e3d6000fd5b505050506040513d601f19601f820116820180604052508101906126829190613075565b5050509050612690816104ad565b979650505050505050565b6000826001600160a01b0316846001600160a01b031611156126bb579192915b60006126e7856001600160a01b0316856001600160a01b03166c01000000000000000000000000612749565b90506104a461270284838888036001600160a01b0316612749565b6128cb565b6000826001600160a01b0316846001600160a01b03161115612727579192915b61214d612702836c010000000000000000000000008787036001600160a01b03165b600080806000198587098686029250828110908390030390508061277f576000841161277457600080fd5b5082900490506120f1565b80841161278b57600080fd5b6000848688096000868103871696879004966002600389028118808a02820302808a02820302808a02820302808a02820302808a02820302808a02909103029181900381900460010186841190950394909402919094039290920491909117919091029150509392505050565b606061214d84846000856128ea565b600080821161285d576040805162461bcd60e51b815260206004820152601a60248201527f536166654d6174683a206469766973696f6e206279207a65726f000000000000604482015290519081900360640190fd5b81838161286657fe5b049392505050565b6000828211156128c5576040805162461bcd60e51b815260206004820152601e60248201527f536166654d6174683a207375627472616374696f6e206f766572666c6f770000604482015290519081900360640190fd5b50900390565b806fffffffffffffffffffffffffffffffff811681146105f657600080fd5b60608247101561292b5760405162461bcd60e51b81526004018080602001828103825260268152602001806139f46026913960400191505060405180910390fd5b61293485612206565b612985576040805162461bcd60e51b815260206004820152601d60248201527f416464726573733a2063616c6c20746f206e6f6e2d636f6e7472616374000000604482015290519081900360640190fd5b600080866001600160a01b031685876040518082805190602001908083835b602083106129e157805182527fffffffffffffffffffffffffffffffffffffffffffffffffffffffffffffffe090920191602091820191016129a4565b6001836020036101000a03801982511681845116808217855250505050505090500191505060006040518083038185875af1925050503d8060008114612a43576040519150601f19603f3d011682016040523d82523d6000602084013e612a48565b606091505b509150915061269082828660608315612a625750816120f1565b825115612a725782518084602001fd5b8160405162461bcd60e51b81526004018080602001828103825283818151815260200191508051906020019080838360005b83811015612abc578181015183820152602001612aa4565b50505050905090810190601f168015612ae95780820380516001836020036101000a031916815260200191505b509250505060405180910390fd5b6040805160e081018252600080825260208201819052918101829052606081018290526080810182905260a0810182905260c081019190915290565b6040805160a08101825260008082526020820181905291810182905260608101829052608081019190915290565b80356105f681613992565b80516105f681613992565b600082601f830112612b87578081fd5b813567ffffffffffffffff80821115612b9c57fe5b60405160207fffffffffffffffffffffffffffffffffffffffffffffffffffffffffffffffe0601f8501168201018181108382111715612bd857fe5b604052828152848301602001861015612bef578384fd5b82602086016020830137918201602001929092529392505050565b80356105f6816139b5565b80516105f6816139b5565b600060e08284031215612c31578081fd5b60405160e0810181811067ffffffffffffffff82111715612c4e57fe5b60405282358152905080612c6460208401612b61565b6020820152612c7560408401612b61565b6040820152612c8660608401612ced565b6060820152612c9760808401612c0a565b6080820152612ca860a08401612c0a565b60a0820152612cb960c08401612cc5565b60c08201525092915050565b80356105f6816139c4565b80516105f6816139c4565b805161ffff811681146105f657600080fd5b80356105f6816139e2565b80516105f6816139e2565b805160ff811681146105f657600080fd5b600060208284031215612d25578081fd5b81356120f181613992565b600060208284031215612d41578081fd5b81516120f181613992565b600080600080600060808688031215612d63578081fd5b8535612d6e81613992565b94506020860135612d7e81613992565b935060408601359250606086013567ffffffffffffffff80821115612da1578283fd5b818801915088601f830112612db4578283fd5b813581811115612dc2578384fd5b896020828501011115612dd3578384fd5b9699959850939650602001949392505050565b60008060408385031215612df8578182fd5b8235612e0381613992565b91506020830135612e13816139a7565b809150509250929050565b600080600080600080600080610100898b031215612e3a578586fd5b8835612e4581613992565b97506020890135612e5581613992565b96506040890135612e6581613992565b9550606089013594506080890135935060a0890135925060c089013560028110612e8d578283fd5b8092505060e089013590509295985092959890939650565b600060208284031215612eb6578081fd5b81356120f1816139b5565b600060208284031215612ed2578081fd5b5035919050565b600060e08284031215612eea578081fd5b6120f18383612c20565b600060208284031215612f05578081fd5b813567ffffffffffffffff811115612f1b578182fd5b820160c081850312156120f1578182fd5b60008060006101208486031215612f41578081fd5b8335612f4c816139c4565b92506020840135612f5c81613992565b9150612f6b8560408601612c20565b90509250925092565b60008060008060808587031215612f89578182fd5b8435612f94816139c4565b93506020850135612fa481613992565b92506040850135612fb481613992565b91506060850135612fc481613992565b939692955090935050565b600080600080600080600060e0888a031215612fe9578081fd5b8751612ff481613992565b6020890151909750613005816139b5565b955061301360408901612cdb565b945061302160608901612cdb565b935061302f60808901612cdb565b925061303d60a08901612d03565b915060c088015161304d816139a7565b8091505092959891949750929550565b60006020828403121561306e578081fd5b5051919050565b6000806000806080858703121561308a578182fd5b84519350602085015161309c816139c4565b6040860151606090960151949790965092505050565b600080604083850312156130c4578182fd5b505080516020909101519092909150565b6000806000606084860312156130e9578081fd5b8335925060208401359150604084013561310281613992565b809150509250925092565b600080600080600060a08688031215613124578283fd5b8535945060208601359350604086013561313d81613992565b9250606086013561314d81613992565b9150608086013561315d81613992565b809150509295509295909350565b60006020828403121561317c578081fd5b6120f182612d03565b6000806000806000806000806000806000806101808d8f0312156131a7578586fd5b8c516bffffffffffffffffffffffff811681146131c2578687fd5b9b506131d060208e01612b6c565b9a506131de60408e01612b6c565b99506131ec60608e01612b6c565b98506131fa60808e01612cf8565b975061320860a08e01612c15565b965061321660c08e01612c15565b955061322460e08e01612cd0565b94506101008d015193506101208d015192506132436101408e01612cd0565b91506132526101608e01612cd0565b90509295989b509295989b509295989b565b6001600160a01b03169052565b60020b9052565b8051825260208101516001600160a01b038082166020850152806040840151166040850152505062ffffff6060820151166060830152608081015160020b608083015260a081015160020b60a08301526fffffffffffffffffffffffffffffffff60c08201511660c08301525050565b62ffffff169052565b60008251815b8181101561331157602081860181015185830152016132f7565b8181111561331f5782828501525b509190910192915050565b6001600160a01b0391909116815260200190565b6001600160a01b0392831681529116602082015260400190565b6001600160a01b039384168152919092166020820152604081019190915260600190565b6001600160a01b03938416815291909216602082015262ffffff909116604082015260600190565b7fffffffff0000000000000000000000000000000000000000000000000000000091909116815260200190565b60208101600283106133df57fe5b91905290565b90815260200190565b60208082526013908201527f4e6f7468696e6720746f20776974686472617700000000000000000000000000604082015260600190565b60208082526008908201527f706f7349643d3021000000000000000000000000000000000000000000000000604082015260600190565b60208082526011908201527f6f776e657220616c726561647920736574000000000000000000000000000000604082015260600190565b6020808252600f908201527f5469636b734e6f744368616e6765640000000000000000000000000000000000604082015260600190565b6020808252600b908201527f4e6f744f70657261746f72000000000000000000000000000000000000000000604082015260600190565b60208082526010908201527f537761702063616c6c206661696c656400000000000000000000000000000000604082015260600190565b6020808252600c908201527f4c6f737345786365656473210000000000000000000000000000000000000000604082015260600190565b6020808252600b908201527f496e697469616c697a6564000000000000000000000000000000000000000000604082015260600190565b6020808252600a908201527f4e6f74206f776e65722100000000000000000000000000000000000000000000604082015260600190565b6020808252600e908201527f4e4f545f415554484f52495a4544000000000000000000000000000000000000604082015260600190565b6020808252601d908201527f7369646520746f6b656e30206e6f7420737570706f7274656420796574000000604082015260600190565b815181526020808301516001600160a01b0316908201526040808301516fffffffffffffffffffffffffffffffff90811691830191909152606092830151169181019190915260800190565b600060a082019050825182526fffffffffffffffffffffffffffffffff602084015116602083015260408301516040830152606083015160608301526080830151608083015292915050565b6000610160820190506136f7828451613264565b60208301516137096020840182613264565b50604083015161371c60408401826132e8565b50606083015161372f6060840182613271565b5060808301516137426080840182613271565b5060a083015160a083015260c083015160c083015260e083015160e08301526101008084015181840152506101208084015161378082850182613264565b505061014092830151919092015290565b60e08101610cd48284613278565b61024081016137ae828b613278565b88516001600160a01b0390811660e084015260208a0151811661010084015260408a0151811661012084015260608a015162ffffff166101408401526080909901519098166101608201526101808101969096526101a08601949094526101c08501929092526101e084015261020083015261022090910152919050565b6fffffffffffffffffffffffffffffffff91909116815260200190565b918252602082015260400190565b9586526020860194909452604085019290925260608401526001600160a01b0316608083015260a082015260c00190565b60008083357fffffffffffffffffffffffffffffffffffffffffffffffffffffffffffffffe18436030181126138bc578283fd5b83018035915067ffffffffffffffff8211156138d6578283fd5b6020019150368190038213156138eb57600080fd5b9250929050565b600060c08236031215613903578081fd5b60405160c0810167ffffffffffffffff828210818311171561392157fe5b8160405261392e85612c0a565b835261393c60208601612c0a565b6020840152604085013560408401526060850135606084015261396160808601612b61565b608084015260a0850135915080821115613979578384fd5b5061398636828601612b77565b60a08301525092915050565b6001600160a01b0381168114610ad257600080fd5b8015158114610ad257600080fd5b8060020b8114610ad257600080fd5b6fffffffffffffffffffffffffffffffff81168114610ad257600080fd5b62ffffff81168114610ad257600080fdfe416464726573733a20696e73756666696369656e742062616c616e636520666f722063616c6c496e697469616c697a61626c653a20636f6e747261637420697320616c726561647920696e697469616c697a656453616665436173743a2076616c756520646f65736e27742066697420696e20616e20696e743235365361666545524332303a204552433230206f7065726174696f6e20646964206e6f7420737563636565645361666545524332303a20617070726f76652066726f6d206e6f6e2d7a65726f20746f206e6f6e2d7a65726f20616c6c6f77616e6365a164736f6c6343000706000a",
  "devdoc": {
    "kind": "dev",
    "methods": {
      "calculatePoolMintedAmounts(uint256,uint256,uint160,uint160,uint160)": {
        "details": "Calculates the amounts deposited/withdrawn from the pool amount0, amount1 - amounts to deposit/withdraw amount0Minted, amount1Minted - actual amounts which can be deposited"
      },
      "getAmountsForLiquidity(uint128,uint160,(uint256,address,address,uint24,int24,int24,uint128))": {
        "details": "Calculate token amounts for given pool liquidity"
      },
      "getAmountsForLiquidity(uint128,uint160,uint160,uint160)": {
        "details": "Calculate token amounts for given pool liquidity"
      },
      "getLiquidityForAmounts(uint256,uint256,uint160,uint160,uint160)": {
        "details": "Calculate pool liquidity for given token amounts"
      },
      "getPoolPrice(uint256)": {
        "details": "Get a pool's price from position id",
        "params": {
          "_positionId": "the position id"
        }
      },
      "getPoolPriceFromAddress(address)": {
        "details": "Get a pool's price from pool address",
        "params": {
          "_pool": "the pool address"
        }
      },
      "getPriceFromTick(int24)": {
        "details": "get price from tick"
      },
      "readPosition(uint256)": {
        "details": "Returns the parameters needed for reposition function",
        "params": {
          "_positionId": "the nft id of the position"
        }
      }
    },
    "version": 1
  },
  "userdoc": {
    "kind": "user",
    "methods": {},
    "version": 1
  },
  "storageLayout": {
    "storage": [
      {
        "astId": 6,
        "contract": "contracts/AutoPositionManager.sol:AutoPositionManager",
        "label": "_initialized",
        "offset": 0,
        "slot": "0",
        "type": "t_bool"
      },
      {
        "astId": 9,
        "contract": "contracts/AutoPositionManager.sol:AutoPositionManager",
        "label": "_initializing",
        "offset": 1,
        "slot": "0",
        "type": "t_bool"
      },
      {
        "astId": 353,
        "contract": "contracts/AutoPositionManager.sol:AutoPositionManager",
        "label": "__gap",
        "offset": 0,
        "slot": "1",
        "type": "t_array(t_uint256)50_storage"
      },
      {
        "astId": 4456,
        "contract": "contracts/AutoPositionManager.sol:AutoPositionManager",
        "label": "nftManager",
        "offset": 0,
        "slot": "51",
        "type": "t_contract(INonfungiblePositionManager)3812"
      },
      {
        "astId": 4458,
        "contract": "contracts/AutoPositionManager.sol:AutoPositionManager",
        "label": "uniswapFactory",
        "offset": 0,
        "slot": "52",
        "type": "t_contract(IUniswapV3Factory)2422"
      },
      {
        "astId": 4460,
        "contract": "contracts/AutoPositionManager.sol:AutoPositionManager",
        "label": "quoter",
        "offset": 0,
        "slot": "53",
        "type": "t_address"
      },
      {
        "astId": 4462,
        "contract": "contracts/AutoPositionManager.sol:AutoPositionManager",
        "label": "width",
        "offset": 0,
        "slot": "54",
        "type": "t_uint256"
      },
      {
        "astId": 4464,
        "contract": "contracts/AutoPositionManager.sol:AutoPositionManager",
        "label": "minShare",
        "offset": 0,
        "slot": "55",
        "type": "t_uint256"
      },
      {
        "astId": 4466,
        "contract": "contracts/AutoPositionManager.sol:AutoPositionManager",
        "label": "maxShare",
        "offset": 0,
        "slot": "56",
        "type": "t_uint256"
      },
      {
        "astId": 4468,
        "contract": "contracts/AutoPositionManager.sol:AutoPositionManager",
        "label": "mainSide",
        "offset": 0,
        "slot": "57",
        "type": "t_enum(Side)4454"
      },
      {
        "astId": 4470,
        "contract": "contracts/AutoPositionManager.sol:AutoPositionManager",
        "label": "maxLoss",
        "offset": 0,
        "slot": "58",
        "type": "t_int256"
      },
      {
        "astId": 4472,
        "contract": "contracts/AutoPositionManager.sol:AutoPositionManager",
        "label": "positionId",
        "offset": 0,
        "slot": "59",
        "type": "t_uint256"
      },
      {
        "astId": 4476,
        "contract": "contracts/AutoPositionManager.sol:AutoPositionManager",
        "label": "operators",
        "offset": 0,
        "slot": "60",
        "type": "t_mapping(t_address,t_bool)"
      }
    ],
    "types": {
      "t_address": {
        "encoding": "inplace",
        "label": "address",
        "numberOfBytes": "20"
      },
      "t_array(t_uint256)50_storage": {
        "base": "t_uint256",
        "encoding": "inplace",
        "label": "uint256[50]",
        "numberOfBytes": "1600"
      },
      "t_bool": {
        "encoding": "inplace",
        "label": "bool",
        "numberOfBytes": "1"
      },
      "t_contract(INonfungiblePositionManager)3812": {
        "encoding": "inplace",
        "label": "contract INonfungiblePositionManager",
        "numberOfBytes": "20"
      },
      "t_contract(IUniswapV3Factory)2422": {
        "encoding": "inplace",
        "label": "contract IUniswapV3Factory",
        "numberOfBytes": "20"
      },
      "t_enum(Side)4454": {
        "encoding": "inplace",
        "label": "enum AutoPositionManager.Side",
        "numberOfBytes": "1"
      },
      "t_int256": {
        "encoding": "inplace",
        "label": "int256",
        "numberOfBytes": "32"
      },
      "t_mapping(t_address,t_bool)": {
        "encoding": "mapping",
        "key": "t_address",
        "label": "mapping(address => bool)",
        "numberOfBytes": "32",
        "value": "t_bool"
      },
      "t_uint256": {
        "encoding": "inplace",
        "label": "uint256",
        "numberOfBytes": "32"
      }
    }
  }
}