{
  "address": "0x524449EF1C226387001fecA2f56d279A7401b400",
  "abi": [
    {
      "inputs": [
        {
          "internalType": "contract INonfungiblePositionManager",
          "name": "_nftManager",
          "type": "address"
        },
        {
          "internalType": "contract IUniswapV3Factory",
          "name": "_uniswapFactory",
          "type": "address"
        },
        {
          "internalType": "contract IQuoter",
          "name": "_quoter",
          "type": "address"
        }
      ],
      "stateMutability": "nonpayable",
      "type": "constructor"
    },
    {
      "anonymous": false,
      "inputs": [
        {
          "indexed": false,
          "internalType": "uint256",
          "name": "token0Balance",
          "type": "uint256"
        },
        {
          "indexed": false,
          "internalType": "uint256",
          "name": "token1Balance",
          "type": "uint256"
        },
        {
          "indexed": false,
          "internalType": "uint256",
          "name": "value",
          "type": "uint256"
        }
      ],
      "name": "PositionState",
      "type": "event"
    },
    {
      "anonymous": false,
      "inputs": [
        {
          "indexed": true,
          "internalType": "uint256",
          "name": "oldPositionId",
          "type": "uint256"
        },
        {
          "indexed": true,
          "internalType": "uint256",
          "name": "newPositionId",
          "type": "uint256"
        },
        {
          "indexed": false,
          "internalType": "int24",
          "name": "oldLowerTick",
          "type": "int24"
        },
        {
          "indexed": false,
          "internalType": "int24",
          "name": "oldUpperTick",
          "type": "int24"
        },
        {
          "indexed": false,
          "internalType": "int24",
          "name": "newLowerTick",
          "type": "int24"
        },
        {
          "indexed": false,
          "internalType": "int24",
          "name": "newUpperTick",
          "type": "int24"
        },
        {
          "indexed": false,
          "internalType": "uint256",
          "name": "newStakedToken0Balance",
          "type": "uint256"
        },
        {
          "indexed": false,
          "internalType": "uint256",
          "name": "newStakedToken1Balance",
          "type": "uint256"
        }
      ],
      "name": "Repositioned",
      "type": "event"
    },
    {
      "inputs": [
        {
          "internalType": "uint256",
          "name": "amount0",
          "type": "uint256"
        },
        {
          "internalType": "uint256",
          "name": "amount1",
          "type": "uint256"
        },
        {
          "internalType": "uint160",
          "name": "poolPrice",
          "type": "uint160"
        },
        {
          "internalType": "uint160",
          "name": "priceLower",
          "type": "uint160"
        },
        {
          "internalType": "uint160",
          "name": "priceUpper",
          "type": "uint160"
        }
      ],
      "name": "calculatePoolMintedAmounts",
      "outputs": [
        {
          "internalType": "uint256",
          "name": "amount0Minted",
          "type": "uint256"
        },
        {
          "internalType": "uint256",
          "name": "amount1Minted",
          "type": "uint256"
        }
      ],
      "stateMutability": "pure",
      "type": "function"
    },
    {
      "inputs": [
        {
          "internalType": "uint128",
          "name": "liquidity",
          "type": "uint128"
        },
        {
          "internalType": "uint160",
          "name": "poolPrice",
          "type": "uint160"
        },
        {
          "internalType": "uint160",
          "name": "priceLower",
          "type": "uint160"
        },
        {
          "internalType": "uint160",
          "name": "priceUpper",
          "type": "uint160"
        }
      ],
      "name": "getAmountsForLiquidity",
      "outputs": [
        {
          "internalType": "uint256",
          "name": "amount0",
          "type": "uint256"
        },
        {
          "internalType": "uint256",
          "name": "amount1",
          "type": "uint256"
        }
      ],
      "stateMutability": "pure",
      "type": "function"
    },
    {
      "inputs": [
        {
          "internalType": "uint128",
          "name": "liquidity",
          "type": "uint128"
        },
        {
          "internalType": "uint160",
          "name": "poolPrice",
          "type": "uint160"
        },
        {
          "components": [
            {
              "internalType": "uint256",
              "name": "id",
              "type": "uint256"
            },
            {
              "internalType": "address",
              "name": "token0",
              "type": "address"
            },
            {
              "internalType": "address",
              "name": "token1",
              "type": "address"
            },
            {
              "internalType": "uint24",
              "name": "fee",
              "type": "uint24"
            },
            {
              "internalType": "int24",
              "name": "tickLower",
              "type": "int24"
            },
            {
              "internalType": "int24",
              "name": "tickUpper",
              "type": "int24"
            },
            {
              "internalType": "uint128",
              "name": "liquidity",
              "type": "uint128"
            }
          ],
          "internalType": "struct UniswapPositionManager.Position",
          "name": "pos",
          "type": "tuple"
        }
      ],
      "name": "getAmountsForLiquidity",
      "outputs": [
        {
          "internalType": "uint256",
          "name": "amount0",
          "type": "uint256"
        },
        {
          "internalType": "uint256",
          "name": "amount1",
          "type": "uint256"
        }
      ],
      "stateMutability": "pure",
      "type": "function"
    },
    {
      "inputs": [
        {
          "internalType": "uint256",
          "name": "amount0",
          "type": "uint256"
        },
        {
          "internalType": "uint256",
          "name": "amount1",
          "type": "uint256"
        },
        {
          "internalType": "uint160",
          "name": "poolPrice",
          "type": "uint160"
        },
        {
          "internalType": "uint160",
          "name": "priceLower",
          "type": "uint160"
        },
        {
          "internalType": "uint160",
          "name": "priceUpper",
          "type": "uint160"
        }
      ],
      "name": "getLiquidityForAmounts",
      "outputs": [
        {
          "internalType": "uint128",
          "name": "liquidity",
          "type": "uint128"
        }
      ],
      "stateMutability": "pure",
      "type": "function"
    },
    {
      "inputs": [
        {
          "components": [
            {
              "internalType": "uint256",
              "name": "id",
              "type": "uint256"
            },
            {
              "internalType": "address",
              "name": "token0",
              "type": "address"
            },
            {
              "internalType": "address",
              "name": "token1",
              "type": "address"
            },
            {
              "internalType": "uint24",
              "name": "fee",
              "type": "uint24"
            },
            {
              "internalType": "int24",
              "name": "tickLower",
              "type": "int24"
            },
            {
              "internalType": "int24",
              "name": "tickUpper",
              "type": "int24"
            },
            {
              "internalType": "uint128",
              "name": "liquidity",
              "type": "uint128"
            }
          ],
          "internalType": "struct UniswapPositionManager.Position",
          "name": "pos",
          "type": "tuple"
        }
      ],
      "name": "getPoolAddress",
      "outputs": [
        {
          "internalType": "address",
          "name": "pool",
          "type": "address"
        }
      ],
      "stateMutability": "view",
      "type": "function"
    },
    {
      "inputs": [
        {
          "internalType": "uint256",
          "name": "positionId",
          "type": "uint256"
        }
      ],
      "name": "getPoolPrice",
      "outputs": [
        {
          "internalType": "uint160",
          "name": "price",
          "type": "uint160"
        }
      ],
      "stateMutability": "view",
      "type": "function"
    },
    {
      "inputs": [
        {
          "internalType": "address",
          "name": "_pool",
          "type": "address"
        }
      ],
      "name": "getPoolPriceFromAddress",
      "outputs": [
        {
          "internalType": "uint160",
          "name": "price",
          "type": "uint160"
        }
      ],
      "stateMutability": "view",
      "type": "function"
    },
    {
      "inputs": [
        {
          "internalType": "int24",
          "name": "tick",
          "type": "int24"
        }
      ],
      "name": "getPriceFromTick",
      "outputs": [
        {
          "internalType": "uint160",
          "name": "",
          "type": "uint160"
        }
      ],
      "stateMutability": "pure",
      "type": "function"
    },
    {
      "inputs": [
        {
          "internalType": "uint256",
          "name": "positionId",
          "type": "uint256"
        }
      ],
      "name": "getStakedTokenBalance",
      "outputs": [
        {
          "internalType": "uint256",
          "name": "amount0",
          "type": "uint256"
        },
        {
          "internalType": "uint256",
          "name": "amount1",
          "type": "uint256"
        }
      ],
      "stateMutability": "view",
      "type": "function"
    },
    {
      "inputs": [],
      "name": "nftManager",
      "outputs": [
        {
          "internalType": "contract INonfungiblePositionManager",
          "name": "",
          "type": "address"
        }
      ],
      "stateMutability": "view",
      "type": "function"
    },
    {
      "inputs": [],
      "name": "quoter",
      "outputs": [
        {
          "internalType": "contract IQuoter",
          "name": "",
          "type": "address"
        }
      ],
      "stateMutability": "view",
      "type": "function"
    },
    {
      "inputs": [
        {
          "internalType": "uint256",
          "name": "positionId",
          "type": "uint256"
        }
      ],
      "name": "readPosition",
      "outputs": [
        {
          "components": [
            {
              "internalType": "uint256",
              "name": "id",
              "type": "uint256"
            },
            {
              "internalType": "address",
              "name": "token0",
              "type": "address"
            },
            {
              "internalType": "address",
              "name": "token1",
              "type": "address"
            },
            {
              "internalType": "uint24",
              "name": "fee",
              "type": "uint24"
            },
            {
              "internalType": "int24",
              "name": "tickLower",
              "type": "int24"
            },
            {
              "internalType": "int24",
              "name": "tickUpper",
              "type": "int24"
            },
            {
              "internalType": "uint128",
              "name": "liquidity",
              "type": "uint128"
            }
          ],
          "internalType": "struct UniswapPositionManager.Position",
          "name": "",
          "type": "tuple"
        }
      ],
      "stateMutability": "view",
      "type": "function"
    },
    {
      "inputs": [
        {
          "components": [
            {
              "internalType": "uint256",
              "name": "positionId",
              "type": "uint256"
            },
            {
              "internalType": "int24",
              "name": "newTickLower",
              "type": "int24"
            },
            {
              "internalType": "int24",
              "name": "newTickUpper",
              "type": "int24"
            },
            {
              "internalType": "uint256",
              "name": "minAmount0Staked",
              "type": "uint256"
            },
            {
              "internalType": "uint256",
              "name": "minAmount1Staked",
              "type": "uint256"
            },
            {
              "internalType": "bytes",
              "name": "swapData",
              "type": "bytes"
            }
          ],
          "internalType": "struct UniswapPositionManager.RepositionParams",
          "name": "params",
          "type": "tuple"
        }
      ],
      "name": "reposition",
      "outputs": [],
      "stateMutability": "nonpayable",
      "type": "function"
    },
    {
      "inputs": [],
      "name": "uniswapFactory",
      "outputs": [
        {
          "internalType": "contract IUniswapV3Factory",
          "name": "",
          "type": "address"
        }
      ],
      "stateMutability": "view",
      "type": "function"
    }
  ],
  "transactionHash": "0x92b6be11badd8e5c0a91ffb485fa18266886d0d347a2381c530f48124def03c3",
  "args": [
    "0xC36442b4a4522E871399CD717aBDD847Ab11FE88",
    "0x1F98431c8aD98523631AE4a59f267346ea31F984",
    "0xb27308f9F90D607463bb33eA1BeBb41C27CE5AB6"
  ],
  "numDeployments": 10,
  "solcInputHash": "5269245aa942cbb8af1e6332af53b002",
  "bytecode": "0x60806040523480156200001157600080fd5b5060405162002c9d38038062002c9d833981016040819052620000349162000077565b600080546001600160a01b039485166001600160a01b031991821617909155600180549385169382169390931790925560028054919093169116179055620000e3565b6000806000606084860312156200008c578283fd5b83516200009981620000ca565b6020850151909350620000ac81620000ca565b6040850151909250620000bf81620000ca565b809150509250925092565b6001600160a01b0381168114620000e057600080fd5b50565b612baa80620000f36000396000f3fe608060405234801561001057600080fd5b50600436106100ea5760003560e01c80638bdb2afa1161008c578063bafcf68e11610066578063bafcf68e146101d5578063c6bbd5a7146101f5578063e88b91ea146101fd578063fe12dbfb14610205576100ea565b80638bdb2afa146101a75780639af94f30146101af578063b76e4d13146101c2576100ea565b806331add76f116100c857806331add76f1461014c57806341d00d0a1461016157806359e0fe1814610181578063736d917c14610194576100ea565b8063016c8cc0146100ef5780630dee2ff814610119578063182aa0d81461012c575b600080fd5b6101026100fd36600461239d565b610218565b604051610110929190612a5c565b60405180910390f35b610102610127366004612492565b610234565b61013f61013a366004612492565b61026a565b60405161011091906129bc565b61015f61015a36600461231d565b610397565b005b61017461016f3660046122ae565b6107be565b60405161011091906126b5565b61017461018f3660046122e6565b610846565b6101026101a2366004612355565b610857565b610174610879565b6101746101bd366004612492565b610888565b6101746101d0366004612302565b610899565b6101e86101e3366004612522565b610942565b6040516101109190612a36565b61017461095b565b61017461096a565b610102610213366004612522565b610979565b600080610227858585896109a8565b9097909650945050505050565b60008060006102428461026a565b9050600061025261016f83610899565b905061025e8183610a44565b90969095509350505050565b610272612163565b600080546040517f99fbab88000000000000000000000000000000000000000000000000000000008152829182918291829182916001600160a01b0316906399fbab88906102c4908b90600401612a53565b6101806040518083038186803b1580156102dd57600080fd5b505afa1580156102f1573d6000803e3d6000fd5b505050506040513d601f19601f820116820180604052508101906103159190612580565b5050505097509750975097509750975050506040518060e00160405280898152602001876001600160a01b03168152602001866001600160a01b031681526020018562ffffff1681526020018460020b81526020018360020b8152602001826fffffffffffffffffffffffffffffffff1681525096505050505050505b919050565b60006103a3823561026a565b6000546040517f6352211e00000000000000000000000000000000000000000000000000000000815291925033916001600160a01b0390911690636352211e906103f290863590600401612a53565b60206040518083038186803b15801561040a57600080fd5b505afa15801561041e573d6000803e3d6000fd5b505050506040513d601f19601f8201168201806040525081019061044291906122ca565b6001600160a01b0316146104715760405162461bcd60e51b81526004016104689061283f565b60405180910390fd5b608081015160020b61048960408401602085016122e6565b60020b1415806104b2575060a081015160020b6104ac60608401604085016122e6565b60020b14155b6104ce5760405162461bcd60e51b8152600401610468906127d1565b60006104d982610899565b905060006104e6826107be565b90506104f28184610a61565b506104ff90508435610a9a565b61050883610b18565b61051560a0850185612a80565b15905061057b5761052583610d74565b61056f61053560a0860186612a80565b8080601f016020809104026020016040519081016040528093929190818152602001838380828437600092019190915250610f0992505050565b610578826107be565b90505b61058483610f9e565b61058d83610b18565b6000806106ba85602001516001600160a01b03166370a08231306040518263ffffffff1660e01b81526004016105c391906126b5565b60206040518083038186803b1580156105db57600080fd5b505afa1580156105ef573d6000803e3d6000fd5b505050506040513d601f19601f8201168201806040525081019061061391906124aa565b86604001516001600160a01b03166370a08231306040518263ffffffff1660e01b815260040161064391906126b5565b60206040518083038186803b15801561065b57600080fd5b505afa15801561066f573d6000803e3d6000fd5b505050506040513d601f19601f8201168201806040525081019061069391906124aa565b856106a761018f60408c0160208d016122e6565b61021361018f60608d0160408e016122e6565b909250905060006106ec8383886106d760408c0160208d016122e6565b6106e760608d0160408e016122e6565b61112c565b90506106f7866112a3565b6000806107048684610a44565b9150915081896060013511158015610720575080896080013511155b61073c5760405162461bcd60e51b815260040161046890612774565b826000015189600001357f8e7b1272607b2ee22f0cf286791a608d5eee7d9dbc3495ab15334aab1c6c0d218a608001518b60a001518d602001602081019061078491906122e6565b8e604001602081019061079791906122e6565b88886040516107ab96959493929190612740565b60405180910390a3505050505050505050565b6000808290506000816001600160a01b0316633850c7bd6040518163ffffffff1660e01b815260040160e06040518083038186803b1580156107ff57600080fd5b505afa158015610813573d6000803e3d6000fd5b505050506040513d601f19601f8201168201806040525081019061083791906123f8565b50949998505050505050505050565b6000610851826113d5565b92915050565b60008061025e858561086c8660800151610846565b6100fd8760a00151610846565b6001546001600160a01b031681565b600061085161016f6101d08461026a565b6001546020820151604080840151606085015191517f1698ee820000000000000000000000000000000000000000000000000000000081526000946001600160a01b031693631698ee82936108f29391926004016126e3565b60206040518083038186803b15801561090a57600080fd5b505afa15801561091e573d6000803e3d6000fd5b505050506040513d601f19601f8201168201806040525081019061085191906122ca565b60006109518484848989611730565b9695505050505050565b6002546001600160a01b031681565b6000546001600160a01b031681565b600080600061098b8888888888610942565b905061099981878787610218565b90999098509650505050505050565b600080836001600160a01b0316856001600160a01b031611156109c9579293925b846001600160a01b0316866001600160a01b0316116109f4576109ed8585856117fa565b9150610a3b565b836001600160a01b0316866001600160a01b03161015610a2d57610a198685856117fa565b9150610a2685878561186e565b9050610a3b565b610a3885858561186e565b90505b94509492505050565b600080610a568360c001518585610857565b909590945092505050565b600080610a7183600001516118cb565b5050610a7d84846118f3565b84519193509150610a9190839083906119e0565b50509250929050565b6000546040517f42966c680000000000000000000000000000000000000000000000000000000081526001600160a01b03909116906342966c6890610ae3908490600401612a53565b600060405180830381600087803b158015610afd57600080fd5b505af1158015610b11573d6000803e3d6000fd5b5050505050565b60208101516040517f70a082310000000000000000000000000000000000000000000000000000000081526000916001600160a01b0316906370a0823190610b649030906004016126b5565b60206040518083038186803b158015610b7c57600080fd5b505afa158015610b90573d6000803e3d6000fd5b505050506040513d601f19601f82011682018060405250810190610bb491906124aa565b9050600082604001516001600160a01b03166370a08231306040518263ffffffff1660e01b8152600401610be891906126b5565b60206040518083038186803b158015610c0057600080fd5b505afa158015610c14573d6000803e3d6000fd5b505050506040513d601f19601f82011682018060405250810190610c3891906124aa565b905081610c7f577f47d5216adfffacf4b2feb77308ff7ea217e6c997222ac3a1abf9932988d65c18828283604051610c7293929190612a6a565b60405180910390a1610d6f565b6002546020840151604080860151606087015191517ff7729d430000000000000000000000000000000000000000000000000000000081526000946001600160a01b03169363f7729d4393610cdc9391928990889060040161270b565b602060405180830381600087803b158015610cf657600080fd5b505af1158015610d0a573d6000803e3d6000fd5b505050506040513d601f19601f82011682018060405250810190610d2e91906124aa565b820190507f47d5216adfffacf4b2feb77308ff7ea217e6c997222ac3a1abf9932988d65c18838383604051610d6593929190612a6a565b60405180910390a1505b505050565b80602001516001600160a01b031663dd62ed3e3073111111125421ca6dc452d289314280a0f8842a656040518363ffffffff1660e01b8152600401610dba9291906126c9565b60206040518083038186803b158015610dd257600080fd5b505afa158015610de6573d6000803e3d6000fd5b505050506040513d601f19601f82011682018060405250810190610e0a91906124aa565b610e3d576020810151610e3d906001600160a01b031673111111125421ca6dc452d289314280a0f8842a65600019611aab565b80604001516001600160a01b031663dd62ed3e3073111111125421ca6dc452d289314280a0f8842a656040518363ffffffff1660e01b8152600401610e839291906126c9565b60206040518083038186803b158015610e9b57600080fd5b505afa158015610eaf573d6000803e3d6000fd5b505050506040513d601f19601f82011682018060405250810190610ed391906124aa565b610f06576040810151610f06906001600160a01b031673111111125421ca6dc452d289314280a0f8842a65600019611aab565b50565b600073111111125421ca6dc452d289314280a0f8842a656001600160a01b031682604051610f37919061267c565b6000604051808303816000865af19150503d8060008114610f74576040519150601f19603f3d011682016040523d82523d6000602084013e610f79565b606091505b5050905080610f9a5760405162461bcd60e51b815260040161046890612808565b5050565b60208101516000546040517fdd62ed3e0000000000000000000000000000000000000000000000000000000081526001600160a01b039283169263dd62ed3e92610ff0923092909116906004016126c9565b60206040518083038186803b15801561100857600080fd5b505afa15801561101c573d6000803e3d6000fd5b505050506040513d601f19601f8201168201806040525081019061104091906124aa565b611065576000546020820151611065916001600160a01b039182169116600019611aab565b60408082015160005491517fdd62ed3e0000000000000000000000000000000000000000000000000000000081526001600160a01b039182169263dd62ed3e926110b7923092909116906004016126c9565b60206040518083038186803b1580156110cf57600080fd5b505afa1580156110e3573d6000803e3d6000fd5b505050506040513d601f19601f8201168201806040525081019061110791906124aa565b610f06576000546040820151610f06916001600160a01b039182169116600019611aab565b611134612163565b60008060009054906101000a90046001600160a01b03166001600160a01b0316638831645660405180610160016040528088602001516001600160a01b0316815260200188604001516001600160a01b03168152602001886060015162ffffff1681526020018760020b81526020018660020b81526020018a81526020018981526020016111d66111cf60648d611c0590919063ffffffff16565b8c90611c6c565b81526020016111f06111e98b6064611c05565b8b90611c6c565b815233602082015242604091820152517fffffffff0000000000000000000000000000000000000000000000000000000060e084901b168152611236919060040161290e565b608060405180830381600087803b15801561125057600080fd5b505af1158015611264573d6000803e3d6000fd5b505050506040513d601f19601f8201168201806040525081019061128891906124c2565b50505090506112968161026a565b9150505b95945050505050565b61133c3382602001516001600160a01b03166370a08231306040518263ffffffff1660e01b81526004016112d791906126b5565b60206040518083038186803b1580156112ef57600080fd5b505afa158015611303573d6000803e3d6000fd5b505050506040513d601f19601f8201168201806040525081019061132791906124aa565b60208401516001600160a01b03169190611cc9565b610f063382604001516001600160a01b03166370a08231306040518263ffffffff1660e01b815260040161137091906126b5565b60206040518083038186803b15801561138857600080fd5b505afa15801561139c573d6000803e3d6000fd5b505050506040513d601f19601f820116820180604052508101906113c091906124aa565b60408401516001600160a01b03169190611cc9565b60008060008360020b126113ec578260020b6113f4565b8260020b6000035b9050620d89e881111561144e576040805162461bcd60e51b815260206004820152600160248201527f5400000000000000000000000000000000000000000000000000000000000000604482015290519081900360640190fd5b60006001821661146f57700100000000000000000000000000000000611481565b6ffffcb933bd6fad37aa2d162d1a5940015b70ffffffffffffffffffffffffffffffffff16905060028216156114b5576ffff97272373d413259a46990580e213a0260801c5b60048216156114d4576ffff2e50f5f656932ef12357cf3c7fdcc0260801c5b60088216156114f3576fffe5caca7e10e4e61c3624eaa0941cd00260801c5b6010821615611512576fffcb9843d60f6159c9db58835c9266440260801c5b6020821615611531576fff973b41fa98c081472e6896dfb254c00260801c5b6040821615611550576fff2ea16466c96a3843ec78b326b528610260801c5b608082161561156f576ffe5dee046a99a2a811c461f1969c30530260801c5b61010082161561158f576ffcbe86c7900a88aedcffc83b479aa3a40260801c5b6102008216156115af576ff987a7253ac413176f2b074cf7815e540260801c5b6104008216156115cf576ff3392b0822b70005940c7a398e4b70f30260801c5b6108008216156115ef576fe7159475a2c29b7443b29c7fa6e889d90260801c5b61100082161561160f576fd097f3bdfd2022b8845ad8f792aa58250260801c5b61200082161561162f576fa9f746462d870fdf8a65dc1f90e061e50260801c5b61400082161561164f576f70d869a156d2a1b890bb3df62baf32f70260801c5b61800082161561166f576f31be135f97d08fd981231505542fcfa60260801c5b62010000821615611690576f09aa508b5b7a84e1c677de54f3e99bc90260801c5b620200008216156116b0576e5d6af8dedb81196699c329225ee6040260801c5b620400008216156116cf576d2216e584f5fa1ea926041bedfe980260801c5b620800008216156116ec576b048a170391f7dc42444e8fa20260801c5b60008460020b131561170757806000198161170357fe5b0490505b64010000000081061561171b57600161171e565b60005b60ff16602082901c0192505050919050565b6000836001600160a01b0316856001600160a01b03161115611750579293925b846001600160a01b0316866001600160a01b03161161177b57611774858585611d49565b905061129a565b836001600160a01b0316866001600160a01b031610156117ef5760006117a2878686611d49565b905060006117b1878986611db5565b9050806fffffffffffffffffffffffffffffffff16826fffffffffffffffffffffffffffffffff16106117e457806117e6565b815b9250505061129a565b610951858584611db5565b6000826001600160a01b0316846001600160a01b0316111561181a579192915b836001600160a01b031661185c606060ff16846fffffffffffffffffffffffffffffffff16901b8686036001600160a01b0316866001600160a01b0316611df7565b8161186357fe5b0490505b9392505050565b6000826001600160a01b0316846001600160a01b0316111561188e579192915b6118c3826fffffffffffffffffffffffffffffffff168585036001600160a01b03166c01000000000000000000000000611df7565b949350505050565b6000806118e96fffffffffffffffffffffffffffffffff80856119e0565b9094909350915050565b6000806000806119088560c001518787610857565b6000546040805160a0810182528951815260c08a01516fffffffffffffffffffffffffffffffff1660208201528082018590526060810184905242608082015290517f0c49ccbe0000000000000000000000000000000000000000000000000000000081529395509193506001600160a01b031691630c49ccbe9161198f916004016128c2565b6040805180830381600087803b1580156119a857600080fd5b505af11580156119bc573d6000803e3d6000fd5b505050506040513d601f19601f8201168201806040525081019061022791906124ff565b60008054604080516080810182528481523060208201526fffffffffffffffffffffffffffffffff808816828401528616606082015290517ffc6f786500000000000000000000000000000000000000000000000000000000815283926001600160a01b03169163fc6f786591611a5a9190600401612876565b6040805180830381600087803b158015611a7357600080fd5b505af1158015611a87573d6000803e3d6000fd5b505050506040513d601f19601f8201168201806040525081019061025e91906124ff565b801580611b4a5750604080517fdd62ed3e0000000000000000000000000000000000000000000000000000000081523060048201526001600160a01b03848116602483015291519185169163dd62ed3e91604480820192602092909190829003018186803b158015611b1c57600080fd5b505afa158015611b30573d6000803e3d6000fd5b505050506040513d6020811015611b4657600080fd5b5051155b611b855760405162461bcd60e51b8152600401808060200182810382526036815260200180612b686036913960400191505060405180910390fd5b604080516001600160a01b038416602482015260448082018490528251808303909101815260649091019091526020810180517bffffffffffffffffffffffffffffffffffffffffffffffffffffffff167f095ea7b300000000000000000000000000000000000000000000000000000000179052610d6f908490611ea6565b6000808211611c5b576040805162461bcd60e51b815260206004820152601a60248201527f536166654d6174683a206469766973696f6e206279207a65726f000000000000604482015290519081900360640190fd5b818381611c6457fe5b049392505050565b600082821115611cc3576040805162461bcd60e51b815260206004820152601e60248201527f536166654d6174683a207375627472616374696f6e206f766572666c6f770000604482015290519081900360640190fd5b50900390565b604080516001600160a01b038416602482015260448082018490528251808303909101815260649091019091526020810180517bffffffffffffffffffffffffffffffffffffffffffffffffffffffff167fa9059cbb00000000000000000000000000000000000000000000000000000000179052610d6f908490611ea6565b6000826001600160a01b0316846001600160a01b03161115611d69579192915b6000611d95856001600160a01b0316856001600160a01b03166c01000000000000000000000000611df7565b905061129a611db084838888036001600160a01b0316611df7565b611f57565b6000826001600160a01b0316846001600160a01b03161115611dd5579192915b6118c3611db0836c010000000000000000000000008787036001600160a01b03165b6000808060001985870986860292508281109083900303905080611e2d5760008411611e2257600080fd5b508290049050611867565b808411611e3957600080fd5b6000848688096000868103871696879004966002600389028118808a02820302808a02820302808a02820302808a02820302808a02820302808a02909103029181900381900460010186841190950394909402919094039290920491909117919091029150509392505050565b6000611efb826040518060400160405280602081526020017f5361666545524332303a206c6f772d6c6576656c2063616c6c206661696c6564815250856001600160a01b0316611f769092919063ffffffff16565b805190915015610d6f57808060200190516020811015611f1a57600080fd5b5051610d6f5760405162461bcd60e51b815260040180806020018281038252602a815260200180612b3e602a913960400191505060405180910390fd5b806fffffffffffffffffffffffffffffffff8116811461039257600080fd5b60606118c3848460008585611f8a856120b9565b611fdb576040805162461bcd60e51b815260206004820152601d60248201527f416464726573733a2063616c6c20746f206e6f6e2d636f6e7472616374000000604482015290519081900360640190fd5b600080866001600160a01b031685876040518082805190602001908083835b6020831061203757805182527fffffffffffffffffffffffffffffffffffffffffffffffffffffffffffffffe09092019160209182019101611ffa565b6001836020036101000a03801982511681845116808217855250505050505090500191505060006040518083038185875af1925050503d8060008114612099576040519150601f19603f3d011682016040523d82523d6000602084013e61209e565b606091505b50915091506120ae8282866120bf565b979650505050505050565b3b151590565b606083156120ce575081611867565b8251156120de5782518084602001fd5b8160405162461bcd60e51b81526004018080602001828103825283818151815260200191508051906020019080838360005b83811015612128578181015183820152602001612110565b50505050905090810190601f1680156121555780820380516001836020036101000a031916815260200191505b509250505060405180910390fd5b6040805160e081018252600080825260208201819052918101829052606081018290526080810182905260a0810182905260c081019190915290565b803561039281612aea565b805161039281612aea565b803561039281612aff565b805161039281612aff565b600060e082840312156121dc578081fd5b60405160e0810181811067ffffffffffffffff821117156121f957fe5b6040528235815290508061220f6020840161219f565b60208201526122206040840161219f565b604082015261223160608401612298565b6060820152612242608084016121b5565b608082015261225360a084016121b5565b60a082015261226460c08401612270565b60c08201525092915050565b803561039281612b0e565b805161039281612b0e565b805161ffff8116811461039257600080fd5b803561039281612b2c565b805161039281612b2c565b6000602082840312156122bf578081fd5b813561186781612aea565b6000602082840312156122db578081fd5b815161186781612aea565b6000602082840312156122f7578081fd5b813561186781612aff565b600060e08284031215612313578081fd5b61186783836121cb565b60006020828403121561232e578081fd5b813567ffffffffffffffff811115612344578182fd5b820160c08185031215611867578182fd5b6000806000610120848603121561236a578182fd5b833561237581612b0e565b9250602084013561238581612aea565b915061239485604086016121cb565b90509250925092565b600080600080608085870312156123b2578081fd5b84356123bd81612b0e565b935060208501356123cd81612aea565b925060408501356123dd81612aea565b915060608501356123ed81612aea565b939692955090935050565b600080600080600080600060e0888a031215612412578283fd5b875161241d81612aea565b602089015190975061242e81612aff565b955061243c60408901612286565b945061244a60608901612286565b935061245860808901612286565b925060a088015160ff8116811461246d578283fd5b60c08901519092508015158114612482578182fd5b8091505092959891949750929550565b6000602082840312156124a3578081fd5b5035919050565b6000602082840312156124bb578081fd5b5051919050565b600080600080608085870312156124d7578182fd5b8451935060208501516124e981612b0e565b6040860151606090960151949790965092505050565b60008060408385031215612511578182fd5b505080516020909101519092909150565b600080600080600060a08688031215612539578283fd5b8535945060208601359350604086013561255281612aea565b9250606086013561256281612aea565b9150608086013561257281612aea565b809150509295509295909350565b6000806000806000806000806000806000806101808d8f0312156125a2578586fd5b8c516bffffffffffffffffffffffff811681146125bd578687fd5b9b506125cb60208e016121aa565b9a506125d960408e016121aa565b99506125e760608e016121aa565b98506125f560808e016122a3565b975061260360a08e016121c0565b965061261160c08e016121c0565b955061261f60e08e0161227b565b94506101008d015193506101208d0151925061263e6101408e0161227b565b915061264d6101608e0161227b565b90509295989b509295989b509295989b565b6001600160a01b03169052565b60020b9052565b62ffffff169052565b60008251815b8181101561269c5760208186018101518583015201612682565b818111156126aa5782828501525b509190910192915050565b6001600160a01b0391909116815260200190565b6001600160a01b0392831681529116602082015260400190565b6001600160a01b03938416815291909216602082015262ffffff909116604082015260600190565b6001600160a01b039586168152938516602085015262ffffff9290921660408401526060830152909116608082015260a00190565b600296870b815294860b602086015292850b6040850152930b6060830152608082019290925260a081019190915260c00190565b6020808252602f908201527f5374616b656420616d6f756e747320616674657220726562616c616e6365206160408201527f726520696e73756666696369656e740000000000000000000000000000000000606082015260800190565b60208082526014908201527f4e65656420746f206368616e6765207469636b73000000000000000000000000604082015260600190565b60208082526010908201527f537761702063616c6c206661696c656400000000000000000000000000000000604082015260600190565b60208082526018908201527f43616c6c6572206d757374206f776e20706f736974696f6e0000000000000000604082015260600190565b815181526020808301516001600160a01b0316908201526040808301516fffffffffffffffffffffffffffffffff90811691830191909152606092830151169181019190915260800190565b600060a082019050825182526fffffffffffffffffffffffffffffffff602084015116602083015260408301516040830152606083015160608301526080830151608083015292915050565b60006101608201905061292282845161265f565b6020830151612934602084018261265f565b5060408301516129476040840182612673565b50606083015161295a606084018261266c565b50608083015161296d608084018261266c565b5060a083015160a083015260c083015160c083015260e083015160e0830152610100808401518184015250610120808401516129ab8285018261265f565b505061014092830151919092015290565b600060e0820190508251825260208301516001600160a01b038082166020850152806040860151166040850152505062ffffff6060840151166060830152608083015160020b608083015260a083015160020b60a08301526fffffffffffffffffffffffffffffffff60c08401511660c083015292915050565b6fffffffffffffffffffffffffffffffff91909116815260200190565b90815260200190565b918252602082015260400190565b9283526020830191909152604082015260600190565b60008083357fffffffffffffffffffffffffffffffffffffffffffffffffffffffffffffffe1843603018112612ab4578283fd5b83018035915067ffffffffffffffff821115612ace578283fd5b602001915036819003821315612ae357600080fd5b9250929050565b6001600160a01b0381168114610f0657600080fd5b8060020b8114610f0657600080fd5b6fffffffffffffffffffffffffffffffff81168114610f0657600080fd5b62ffffff81168114610f0657600080fdfe5361666545524332303a204552433230206f7065726174696f6e20646964206e6f7420737563636565645361666545524332303a20617070726f76652066726f6d206e6f6e2d7a65726f20746f206e6f6e2d7a65726f20616c6c6f77616e6365a164736f6c6343000706000a",
  "devdoc": {
    "kind": "dev",
    "methods": {
      "calculatePoolMintedAmounts(uint256,uint256,uint160,uint160,uint160)": {
        "details": "Calculates the amounts deposited/withdrawn from the pool amount0, amount1 - amounts to deposit/withdraw amount0Minted, amount1Minted - actual amounts which can be deposited"
      },
      "getAmountsForLiquidity(uint128,uint160,(uint256,address,address,uint24,int24,int24,uint128))": {
        "details": "Calculate token amounts for given pool liquidity"
      },
      "getAmountsForLiquidity(uint128,uint160,uint160,uint160)": {
        "details": "Calculate token amounts for given pool liquidity"
      },
      "getLiquidityForAmounts(uint256,uint256,uint160,uint160,uint160)": {
        "details": "Calculate pool liquidity for given token amounts"
      },
      "getPoolPrice(uint256)": {
        "details": "Get a pool's price from position id",
        "params": {
          "positionId": "the position id"
        }
      },
      "getPoolPriceFromAddress(address)": {
        "details": "Get a pool's price from pool address",
        "params": {
          "_pool": "the pool address"
        }
      },
      "getPriceFromTick(int24)": {
        "details": "get price from tick"
      },
      "readPosition(uint256)": {
        "details": "Returns the parameters needed for reposition function",
        "params": {
          "positionId": "the nft id of the position"
        }
      },
      "reposition((uint256,int24,int24,uint256,uint256,bytes))": {
        "details": "Rebalance a given Uni V3 position to a new price range",
        "params": {
          "params": "Reposition parameter structure"
        }
      }
    },
    "version": 1
  },
  "userdoc": {
    "kind": "user",
    "methods": {
      "getStakedTokenBalance(uint256)": {
        "notice": "Get token balances in the position"
      }
    },
    "notice": "Contract which manages an Uniswap V3 Position Can rebalance and change the ticks of the position",
    "version": 1
  },
  "storageLayout": {
    "storage": [
      {
        "astId": 4248,
        "contract": "contracts/UniswapPositionManager.sol:UniswapPositionManager",
        "label": "nftManager",
        "offset": 0,
        "slot": "0",
        "type": "t_contract(INonfungiblePositionManager)3481"
      },
      {
        "astId": 4250,
        "contract": "contracts/UniswapPositionManager.sol:UniswapPositionManager",
        "label": "uniswapFactory",
        "offset": 0,
        "slot": "1",
        "type": "t_contract(IUniswapV3Factory)2091"
      },
      {
        "astId": 4252,
        "contract": "contracts/UniswapPositionManager.sol:UniswapPositionManager",
        "label": "quoter",
        "offset": 0,
        "slot": "2",
        "type": "t_contract(IQuoter)3599"
      }
    ],
    "types": {
      "t_contract(INonfungiblePositionManager)3481": {
        "encoding": "inplace",
        "label": "contract INonfungiblePositionManager",
        "numberOfBytes": "20"
      },
      "t_contract(IQuoter)3599": {
        "encoding": "inplace",
        "label": "contract IQuoter",
        "numberOfBytes": "20"
      },
      "t_contract(IUniswapV3Factory)2091": {
        "encoding": "inplace",
        "label": "contract IUniswapV3Factory",
        "numberOfBytes": "20"
      }
    }
  }
}