{
  "address": "0xd2c516C2312a02591d5546CE87B9e14C4Ec25DB2",
  "abi": [
    {
      "inputs": [
        {
          "internalType": "contract INonfungiblePositionManager",
          "name": "_nftManager",
          "type": "address"
        },
        {
          "internalType": "contract IUniswapV3Factory",
          "name": "_uniswapFactory",
          "type": "address"
        }
      ],
      "stateMutability": "nonpayable",
      "type": "constructor"
    },
    {
      "anonymous": false,
      "inputs": [
        {
          "indexed": true,
          "internalType": "uint256",
          "name": "oldPositionId",
          "type": "uint256"
        },
        {
          "indexed": true,
          "internalType": "uint256",
          "name": "newPositionId",
          "type": "uint256"
        },
        {
          "indexed": false,
          "internalType": "int24",
          "name": "oldLowerTick",
          "type": "int24"
        },
        {
          "indexed": false,
          "internalType": "int24",
          "name": "oldUpperTick",
          "type": "int24"
        },
        {
          "indexed": false,
          "internalType": "int24",
          "name": "newLowerTick",
          "type": "int24"
        },
        {
          "indexed": false,
          "internalType": "int24",
          "name": "newUpperTick",
          "type": "int24"
        },
        {
          "indexed": false,
          "internalType": "uint256",
          "name": "newStakedToken0Balance",
          "type": "uint256"
        },
        {
          "indexed": false,
          "internalType": "uint256",
          "name": "newStakedToken1Balance",
          "type": "uint256"
        }
      ],
      "name": "Repositioned",
      "type": "event"
    },
    {
      "inputs": [
        {
          "internalType": "uint8",
          "name": "inputAsset",
          "type": "uint8"
        },
        {
          "internalType": "uint256",
          "name": "amount",
          "type": "uint256"
        },
        {
          "internalType": "uint256",
          "name": "positionId",
          "type": "uint256"
        }
      ],
      "name": "calculateAmountsMintedSingleToken",
      "outputs": [
        {
          "internalType": "uint256",
          "name": "amount0Minted",
          "type": "uint256"
        },
        {
          "internalType": "uint256",
          "name": "amount1Minted",
          "type": "uint256"
        }
      ],
      "stateMutability": "view",
      "type": "function"
    },
    {
      "inputs": [
        {
          "internalType": "uint256",
          "name": "amount0",
          "type": "uint256"
        },
        {
          "internalType": "uint256",
          "name": "amount1",
          "type": "uint256"
        },
        {
          "internalType": "uint160",
          "name": "poolPrice",
          "type": "uint160"
        },
        {
          "internalType": "uint160",
          "name": "priceLower",
          "type": "uint160"
        },
        {
          "internalType": "uint160",
          "name": "priceUpper",
          "type": "uint160"
        }
      ],
      "name": "calculatePoolMintedAmounts",
      "outputs": [
        {
          "internalType": "uint256",
          "name": "amount0Minted",
          "type": "uint256"
        },
        {
          "internalType": "uint256",
          "name": "amount1Minted",
          "type": "uint256"
        }
      ],
      "stateMutability": "view",
      "type": "function"
    },
    {
      "inputs": [
        {
          "internalType": "uint128",
          "name": "liquidity",
          "type": "uint128"
        },
        {
          "internalType": "uint160",
          "name": "poolPrice",
          "type": "uint160"
        },
        {
          "internalType": "uint160",
          "name": "priceLower",
          "type": "uint160"
        },
        {
          "internalType": "uint160",
          "name": "priceUpper",
          "type": "uint160"
        }
      ],
      "name": "getAmountsForLiquidity",
      "outputs": [
        {
          "internalType": "uint256",
          "name": "amount0",
          "type": "uint256"
        },
        {
          "internalType": "uint256",
          "name": "amount1",
          "type": "uint256"
        }
      ],
      "stateMutability": "view",
      "type": "function"
    },
    {
      "inputs": [
        {
          "internalType": "uint128",
          "name": "liquidity",
          "type": "uint128"
        },
        {
          "internalType": "uint256",
          "name": "positionId",
          "type": "uint256"
        }
      ],
      "name": "getAmountsForLiquidity",
      "outputs": [
        {
          "internalType": "uint256",
          "name": "amount0",
          "type": "uint256"
        },
        {
          "internalType": "uint256",
          "name": "amount1",
          "type": "uint256"
        }
      ],
      "stateMutability": "view",
      "type": "function"
    },
    {
      "inputs": [
        {
          "internalType": "uint256",
          "name": "positionId",
          "type": "uint256"
        }
      ],
      "name": "getFee",
      "outputs": [
        {
          "internalType": "uint24",
          "name": "fee",
          "type": "uint24"
        }
      ],
      "stateMutability": "view",
      "type": "function"
    },
    {
      "inputs": [
        {
          "internalType": "uint160",
          "name": "priceLower",
          "type": "uint160"
        },
        {
          "internalType": "uint160",
          "name": "priceUpper",
          "type": "uint160"
        },
        {
          "internalType": "uint256",
          "name": "amount0",
          "type": "uint256"
        }
      ],
      "name": "getLiquidityForAmount0",
      "outputs": [
        {
          "internalType": "uint128",
          "name": "liquidity",
          "type": "uint128"
        }
      ],
      "stateMutability": "pure",
      "type": "function"
    },
    {
      "inputs": [
        {
          "internalType": "uint160",
          "name": "priceLower",
          "type": "uint160"
        },
        {
          "internalType": "uint160",
          "name": "priceUpper",
          "type": "uint160"
        },
        {
          "internalType": "uint256",
          "name": "amount1",
          "type": "uint256"
        }
      ],
      "name": "getLiquidityForAmount1",
      "outputs": [
        {
          "internalType": "uint128",
          "name": "liquidity",
          "type": "uint128"
        }
      ],
      "stateMutability": "pure",
      "type": "function"
    },
    {
      "inputs": [
        {
          "internalType": "uint256",
          "name": "amount0",
          "type": "uint256"
        },
        {
          "internalType": "uint256",
          "name": "amount1",
          "type": "uint256"
        },
        {
          "internalType": "uint256",
          "name": "positionId",
          "type": "uint256"
        }
      ],
      "name": "getLiquidityForAmounts",
      "outputs": [
        {
          "internalType": "uint128",
          "name": "liquidity",
          "type": "uint128"
        }
      ],
      "stateMutability": "view",
      "type": "function"
    },
    {
      "inputs": [
        {
          "internalType": "uint256",
          "name": "amount0",
          "type": "uint256"
        },
        {
          "internalType": "uint256",
          "name": "amount1",
          "type": "uint256"
        },
        {
          "internalType": "uint160",
          "name": "poolPrice",
          "type": "uint160"
        },
        {
          "internalType": "uint160",
          "name": "priceLower",
          "type": "uint160"
        },
        {
          "internalType": "uint160",
          "name": "priceUpper",
          "type": "uint160"
        }
      ],
      "name": "getLiquidityForAmounts",
      "outputs": [
        {
          "internalType": "uint128",
          "name": "liquidity",
          "type": "uint128"
        }
      ],
      "stateMutability": "view",
      "type": "function"
    },
    {
      "inputs": [
        {
          "internalType": "uint256",
          "name": "positionId",
          "type": "uint256"
        }
      ],
      "name": "getPoolAddress",
      "outputs": [
        {
          "internalType": "address",
          "name": "pool",
          "type": "address"
        }
      ],
      "stateMutability": "view",
      "type": "function"
    },
    {
      "inputs": [
        {
          "internalType": "uint256",
          "name": "positionId",
          "type": "uint256"
        }
      ],
      "name": "getPoolLiquidity",
      "outputs": [
        {
          "internalType": "uint160",
          "name": "price",
          "type": "uint160"
        }
      ],
      "stateMutability": "view",
      "type": "function"
    },
    {
      "inputs": [
        {
          "internalType": "address",
          "name": "_pool",
          "type": "address"
        }
      ],
      "name": "getPoolLiquidityFromAddress",
      "outputs": [
        {
          "internalType": "uint128",
          "name": "",
          "type": "uint128"
        }
      ],
      "stateMutability": "view",
      "type": "function"
    },
    {
      "inputs": [
        {
          "internalType": "uint256",
          "name": "positionId",
          "type": "uint256"
        }
      ],
      "name": "getPoolPrice",
      "outputs": [
        {
          "internalType": "uint160",
          "name": "price",
          "type": "uint160"
        }
      ],
      "stateMutability": "view",
      "type": "function"
    },
    {
      "inputs": [
        {
          "internalType": "address",
          "name": "_pool",
          "type": "address"
        }
      ],
      "name": "getPoolPriceFromAddress",
      "outputs": [
        {
          "internalType": "uint160",
          "name": "price",
          "type": "uint160"
        }
      ],
      "stateMutability": "view",
      "type": "function"
    },
    {
      "inputs": [
        {
          "internalType": "uint256",
          "name": "positionId",
          "type": "uint256"
        },
        {
          "internalType": "uint8",
          "name": "token0Decimals",
          "type": "uint8"
        },
        {
          "internalType": "uint8",
          "name": "token1Decimals",
          "type": "uint8"
        }
      ],
      "name": "getPoolPriceWithDecimals",
      "outputs": [
        {
          "internalType": "uint256",
          "name": "price",
          "type": "uint256"
        }
      ],
      "stateMutability": "view",
      "type": "function"
    },
    {
      "inputs": [
        {
          "internalType": "uint256",
          "name": "positionId",
          "type": "uint256"
        }
      ],
      "name": "getPositionLiquidity",
      "outputs": [
        {
          "internalType": "uint128",
          "name": "liquidity",
          "type": "uint128"
        }
      ],
      "stateMutability": "view",
      "type": "function"
    },
    {
      "inputs": [
        {
          "internalType": "uint256",
          "name": "positionId",
          "type": "uint256"
        }
      ],
      "name": "getPositionParams",
      "outputs": [
        {
          "components": [
            {
              "internalType": "address",
              "name": "token0",
              "type": "address"
            },
            {
              "internalType": "address",
              "name": "token1",
              "type": "address"
            },
            {
              "internalType": "uint24",
              "name": "fee",
              "type": "uint24"
            },
            {
              "internalType": "int24",
              "name": "tickLower",
              "type": "int24"
            },
            {
              "internalType": "int24",
              "name": "tickUpper",
              "type": "int24"
            }
          ],
          "internalType": "struct UniswapPositionManager.PositionParams",
          "name": "positionParams",
          "type": "tuple"
        }
      ],
      "stateMutability": "view",
      "type": "function"
    },
    {
      "inputs": [
        {
          "internalType": "int24",
          "name": "tick",
          "type": "int24"
        }
      ],
      "name": "getPriceFromTick",
      "outputs": [
        {
          "internalType": "uint160",
          "name": "",
          "type": "uint160"
        }
      ],
      "stateMutability": "pure",
      "type": "function"
    },
    {
      "inputs": [
        {
          "internalType": "uint256",
          "name": "positionId",
          "type": "uint256"
        }
      ],
      "name": "getPriceRange",
      "outputs": [
        {
          "internalType": "uint160",
          "name": "priceLower",
          "type": "uint160"
        },
        {
          "internalType": "uint160",
          "name": "priceUpper",
          "type": "uint160"
        }
      ],
      "stateMutability": "view",
      "type": "function"
    },
    {
      "inputs": [
        {
          "internalType": "uint256",
          "name": "positionId",
          "type": "uint256"
        }
      ],
      "name": "getStakedTokenBalance",
      "outputs": [
        {
          "internalType": "uint256",
          "name": "amount0",
          "type": "uint256"
        },
        {
          "internalType": "uint256",
          "name": "amount1",
          "type": "uint256"
        }
      ],
      "stateMutability": "view",
      "type": "function"
    },
    {
      "inputs": [
        {
          "internalType": "uint160",
          "name": "price",
          "type": "uint160"
        }
      ],
      "name": "getTickFromPrice",
      "outputs": [
        {
          "internalType": "int24",
          "name": "",
          "type": "int24"
        }
      ],
      "stateMutability": "pure",
      "type": "function"
    },
    {
      "inputs": [
        {
          "internalType": "uint256",
          "name": "positionId",
          "type": "uint256"
        }
      ],
      "name": "getTicks",
      "outputs": [
        {
          "internalType": "int24",
          "name": "tickLower",
          "type": "int24"
        },
        {
          "internalType": "int24",
          "name": "tickUpper",
          "type": "int24"
        }
      ],
      "stateMutability": "view",
      "type": "function"
    },
    {
      "inputs": [
        {
          "internalType": "uint256",
          "name": "positionId",
          "type": "uint256"
        }
      ],
      "name": "getTokens",
      "outputs": [
        {
          "internalType": "address",
          "name": "token0",
          "type": "address"
        },
        {
          "internalType": "address",
          "name": "token1",
          "type": "address"
        }
      ],
      "stateMutability": "view",
      "type": "function"
    },
    {
      "inputs": [],
      "name": "nftManager",
      "outputs": [
        {
          "internalType": "contract INonfungiblePositionManager",
          "name": "",
          "type": "address"
        }
      ],
      "stateMutability": "view",
      "type": "function"
    },
    {
      "inputs": [
        {
          "components": [
            {
              "internalType": "uint256",
              "name": "positionId",
              "type": "uint256"
            },
            {
              "internalType": "int24",
              "name": "newTickLower",
              "type": "int24"
            },
            {
              "internalType": "int24",
              "name": "newTickUpper",
              "type": "int24"
            },
            {
              "internalType": "uint256",
              "name": "minAmount0Staked",
              "type": "uint256"
            },
            {
              "internalType": "uint256",
              "name": "minAmount1Staked",
              "type": "uint256"
            },
            {
              "internalType": "bytes",
              "name": "swapData",
              "type": "bytes"
            }
          ],
          "internalType": "struct UniswapPositionManager.RepositionParams",
          "name": "params",
          "type": "tuple"
        }
      ],
      "name": "reposition",
      "outputs": [],
      "stateMutability": "nonpayable",
      "type": "function"
    },
    {
      "inputs": [],
      "name": "uniswapFactory",
      "outputs": [
        {
          "internalType": "contract IUniswapV3Factory",
          "name": "",
          "type": "address"
        }
      ],
      "stateMutability": "view",
      "type": "function"
    }
  ],
  "transactionHash": "0x303245ce9de1ec1a0d337446e72201553b5ed049f19981ac54810ddedfb3d35c",
  "args": [
    "0xC36442b4a4522E871399CD717aBDD847Ab11FE88",
    "0x1F98431c8aD98523631AE4a59f267346ea31F984"
  ],
  "numDeployments": 1,
  "solcInputHash": "51efd7f5515039bda1184d2c4f9aac98",
  "bytecode": "0x60806040523480156200001157600080fd5b506040516200357f3803806200357f833981016040819052620000349162000066565b600080546001600160a01b039384166001600160a01b03199182161790915560018054929093169116179055620000bd565b6000806040838503121562000079578182fd5b82516200008681620000a4565b60208401519092506200009981620000a4565b809150509250929050565b6001600160a01b0381168114620000ba57600080fd5b50565b6134b280620000cd6000396000f3fe608060405234801561001057600080fd5b50600436106101ad5760003560e01c806387aa64f7116100ee578063b9a7acd411610097578063e63490ce11610071578063e63490ce146103b2578063e88b91ea146103d2578063fcee45f4146103da578063fe12dbfb146103fa576101ad565b8063b9a7acd414610379578063bafcf68e1461038c578063d3c9cc261461039f576101ad565b8063958af242116100c8578063958af242146103255780639af94f30146103455780639d4ad6f114610358576101ad565b806387aa64f7146102ea5780638a6537f91461030a5780638bdb2afa1461031d576101ad565b806331add76f1161015b57806353bfd4fb1161013557806353bfd4fb1461029e57806359e0fe18146102b157806367df6e89146102c45780637e1469fe146102d7576101ad565b806331add76f1461025557806338b7b79e1461026a57806341d00d0a1461028b576101ad565b80630dee2ff81161018c5780630dee2ff81461021c5780630eab51f31461022f5780631efeed3314610242576101ad565b8062a5ae21146101b2578063016c8cc0146101db57806308c0f795146101fc575b600080fd5b6101c56101c0366004612d19565b61040d565b6040516101d29190612fdc565b60405180910390f35b6101ee6101e9366004612bbe565b610565565b6040516101d2929190613358565b61020f61020a366004612cd9565b610581565b6040516101d29190613322565b6101ee61022a366004612d19565b610596565b6101ee61023d366004612c19565b6105b5565b61020f610250366004612d19565b6105ec565b610268610263366004612b6a565b610699565b005b61027d610278366004612d19565b610bd8565b6040516101d2929190612ff0565b6101c5610299366004612b16565b610ca2565b61020f6102ac366004612b16565b610d2c565b6101c56102bf366004612b4e565b610daa565b61020f6102d2366004612cd9565b610dbb565b6101ee6102e5366004612e73565b610dc8565b6102fd6102f8366004612b16565b610e92565b6040516101d29190613032565b6101c5610318366004612d19565b610e9d565b6101c5610ec3565b610338610333366004612e32565b610ed2565b6040516101d2919061334f565b6101c5610353366004612d19565b610f6b565b61036b610366366004612d19565b610f79565b6040516101d2929190613040565b61020f610387366004612e07565b611029565b61020f61039a366004612da9565b611060565b61027d6103ad366004612d19565b61106f565b6103c56103c0366004612d19565b61111f565b6040516101d291906132d0565b6101c561121c565b6103ed6103e8366004612d19565b61122b565b6040516101d2919061333f565b6101ee610408366004612da9565b6112d8565b600080546040517f99fbab880000000000000000000000000000000000000000000000000000000081528291829182916001600160a01b0316906399fbab889061045b90889060040161334f565b6101806040518083038186803b15801561047457600080fd5b505afa158015610488573d6000803e3d6000fd5b505050506040513d601f19601f820116820180604052508101906104ac9190612ea7565b50506001546040517f1698ee82000000000000000000000000000000000000000000000000000000008152989d50969b50949950506001600160a01b039094169650631698ee82955061050c948a9450899350889250600401905061300a565b60206040518083038186803b15801561052457600080fd5b505afa158015610538573d6000803e3d6000fd5b505050506040513d601f19601f8201168201806040525081019061055c9190612b32565b95945050505050565b60008061057485858589611307565b9097909650945050505050565b600061058e8484846113a3565b949350505050565b6000806105ab6105a5846105ec565b846105b5565b9094909350915050565b6000806000806105c485610f79565b915091506105746105d486610f6b565b6105dd84610daa565b6105e684610daa565b89611307565b600080546040517f99fbab880000000000000000000000000000000000000000000000000000000081526001600160a01b03909116906399fbab889061063690859060040161334f565b6101806040518083038186803b15801561064f57600080fd5b505afa158015610663573d6000803e3d6000fd5b505050506040513d601f19601f820116820180604052508101906106879190612ea7565b50929c9b505050505050505050505050565b60006106a5823561111f565b6000546040517f6352211e00000000000000000000000000000000000000000000000000000000815291925033916001600160a01b0390911690636352211e906106f49086359060040161334f565b60206040518083038186803b15801561070c57600080fd5b505afa158015610720573d6000803e3d6000fd5b505050506040513d601f19601f820116820180604052508101906107449190612b32565b6001600160a01b0316146107735760405162461bcd60e51b815260040161076a90613153565b60405180910390fd5b606081015160020b61078b6040840160208501612b4e565b60020b1415806107b45750608081015160020b6107ae6060840160408501612b4e565b60020b14155b6107d05760405162461bcd60e51b815260040161076a906130e5565b8051602082015160006107e3853561040d565b90506107ef85356113ee565b506107fc90508535611425565b61080960a0860186613366565b1590506108645761081a83836114a3565b61086461082a60a0870187613366565b8080601f01602080910402602001604051908101604052809392919081815260200183838082843760009201919091525061165992505050565b61086e83836116ea565b6000806109b4856001600160a01b03166370a08231306040518263ffffffff1660e01b81526004016108a09190612fdc565b60206040518083038186803b1580156108b857600080fd5b505afa1580156108cc573d6000803e3d6000fd5b505050506040513d601f19601f820116820180604052508101906108f09190612d31565b6040517f70a082310000000000000000000000000000000000000000000000000000000081526001600160a01b038716906370a0823190610935903090600401612fdc565b60206040518083038186803b15801561094d57600080fd5b505afa158015610961573d6000803e3d6000fd5b505050506040513d601f19601f820116820180604052508101906109859190612d31565b61098e86610ca2565b6109a16102bf60408d0160208e01612b4e565b6104086102bf60608e0160408f01612b4e565b9150915060006109f1838388888b604001518d60200160208101906109d99190612b4e565b8e60400160208101906109ec9190612b4e565b611860565b9050610a8433876001600160a01b03166370a08231306040518263ffffffff1660e01b8152600401610a239190612fdc565b60206040518083038186803b158015610a3b57600080fd5b505afa158015610a4f573d6000803e3d6000fd5b505050506040513d601f19601f82011682018060405250810190610a739190612d31565b6001600160a01b0389169190611995565b610b1533866001600160a01b03166370a08231306040518263ffffffff1660e01b8152600401610ab49190612fdc565b60206040518083038186803b158015610acc57600080fd5b505afa158015610ae0573d6000803e3d6000fd5b505050506040513d601f19601f82011682018060405250810190610b049190612d31565b6001600160a01b0388169190611995565b600080610b2183610596565b91509150818a6060013511158015610b3d5750808a6080013511155b610b595760405162461bcd60e51b815260040161076a90613088565b828a600001357f8e7b1272607b2ee22f0cf286791a608d5eee7d9dbc3495ab15334aab1c6c0d218b606001518c608001518e6020016020810190610b9d9190612b4e565b8f6040016020810190610bb09190612b4e565b8888604051610bc496959493929190613054565b60405180910390a350505050505050505050565b600080546040517f99fbab880000000000000000000000000000000000000000000000000000000081528291829182916001600160a01b0316906399fbab8890610c2690889060040161334f565b6101806040518083038186803b158015610c3f57600080fd5b505afa158015610c53573d6000803e3d6000fd5b505050506040513d601f19601f82011682018060405250810190610c779190612ea7565b5050505050965096505050505050610c8e82610daa565b9350610c9981610daa565b92505050915091565b6000808290506000816001600160a01b0316633850c7bd6040518163ffffffff1660e01b815260040160e06040518083038186803b158015610ce357600080fd5b505afa158015610cf7573d6000803e3d6000fd5b505050506040513d601f19601f82011682018060405250810190610d1b9190612c44565b50949750505050505050505b919050565b600080829050806001600160a01b0316631a6865026040518163ffffffff1660e01b815260040160206040518083038186803b158015610d6b57600080fd5b505afa158015610d7f573d6000803e3d6000fd5b505050506040513d601f19601f82011682018060405250810190610da39190612ba2565b9392505050565b6000610db582611a1a565b92915050565b600061058e848484611d75565b6000806000610dd684610f6b565b9050600080610de486610f79565b915091506000610df383610daa565b90506000610e0083610daa565b90506000826001600160a01b0316866001600160a01b03161015610e3057610e2983838c610dbb565b9050610e76565b816001600160a01b0316866001600160a01b03161115610e5557610e2983838c610581565b60ff8b16610e6857610e2986838c610dbb565b610e7383878c610581565b90505b610e80818a6105b5565b909c909b509950505050505050505050565b6000610db582611ddc565b6000610eab6102ac8361040d565b6fffffffffffffffffffffffffffffffff1692915050565b6001546001600160a01b031681565b600080610ede85610f6b565b905060008360ff168560ff161015610ef857848403610efc565b8385035b90508360ff168560ff161015610f3c5760c0610f3560ff600c84900316600a0a610f2f6001600160a01b0386168061215a565b9061215a565b901c610f61565b60c0610f5e60ff600c840116600a0a610f2f6001600160a01b0386168061215a565b901c5b9695505050505050565b6000610db56102998361040d565b600080546040517f99fbab8800000000000000000000000000000000000000000000000000000000815282916001600160a01b0316906399fbab8890610fc390869060040161334f565b6101806040518083038186803b158015610fdc57600080fd5b505afa158015610ff0573d6000803e3d6000fd5b505050506040513d601f19601f820116820180604052508101906110149190612ea7565b50949d939c50929a5050505050505050505050565b600080600061103784610f79565b91509150610f6161104785610f6b565b61105084610daa565b61105984610daa565b89896121b3565b6000610f6184848489896121b3565b600080546040517f99fbab8800000000000000000000000000000000000000000000000000000000815282916001600160a01b0316906399fbab88906110b990869060040161334f565b6101806040518083038186803b1580156110d257600080fd5b505afa1580156110e6573d6000803e3d6000fd5b505050506040513d601f19601f8201168201806040525081019061110a9190612ea7565b50979d969c50959a5050505050505050505050565b611127612aa2565b600080546040517f99fbab8800000000000000000000000000000000000000000000000000000000815282918291829182916001600160a01b03909116906399fbab8890611179908a9060040161334f565b6101806040518083038186803b15801561119257600080fd5b505afa1580156111a6573d6000803e3d6000fd5b505050506040513d601f19601f820116820180604052508101906111ca9190612ea7565b50506040805160a0810182526001600160a01b03998a16815298909716602089015250505062ffffff90921692840192909252600291820b6060840152900b6080820152975050505050505050919050565b6000546001600160a01b031681565b600080546040517f99fbab880000000000000000000000000000000000000000000000000000000081526001600160a01b03909116906399fbab889061127590859060040161334f565b6101806040518083038186803b15801561128e57600080fd5b505afa1580156112a2573d6000803e3d6000fd5b505050506040513d601f19601f820116820180604052508101906112c69190612ea7565b50959c9b505050505050505050505050565b60008060006112ea8888888888611060565b90506112f881878787610565565b90999098509650505050505050565b600080836001600160a01b0316856001600160a01b03161115611328579293925b846001600160a01b0316866001600160a01b0316116113535761134c85858561227d565b915061139a565b836001600160a01b0316866001600160a01b0316101561138c5761137886858561227d565b91506113858587856122ef565b905061139a565b6113978585856122ef565b90505b94509492505050565b6000826001600160a01b0316846001600160a01b031611156113c3579192915b61058e6113e9836c010000000000000000000000008787036001600160a01b0316612340565b6123ef565b6000806113fa8361240e565b505061140e611408846105ec565b8461242c565b909250905061141e82828561250f565b5050915091565b6000546040517f42966c680000000000000000000000000000000000000000000000000000000081526001600160a01b03909116906342966c689061146e90849060040161334f565b600060405180830381600087803b15801561148857600080fd5b505af115801561149c573d6000803e3d6000fd5b5050505050565b6040517fdd62ed3e0000000000000000000000000000000000000000000000000000000081526001600160a01b0383169063dd62ed3e906114fe903090731231deb6f5749ef6ce6943a275a1d3e7486f4eae90600401612ff0565b60206040518083038186803b15801561151657600080fd5b505afa15801561152a573d6000803e3d6000fd5b505050506040513d601f19601f8201168201806040525081019061154e9190612d31565b61157c5761157c6001600160a01b038316731231deb6f5749ef6ce6943a275a1d3e7486f4eae6000196125e6565b6040517fdd62ed3e0000000000000000000000000000000000000000000000000000000081526001600160a01b0382169063dd62ed3e906115d7903090731231deb6f5749ef6ce6943a275a1d3e7486f4eae90600401612ff0565b60206040518083038186803b1580156115ef57600080fd5b505afa158015611603573d6000803e3d6000fd5b505050506040513d601f19601f820116820180604052508101906116279190612d31565b611655576116556001600160a01b038216731231deb6f5749ef6ce6943a275a1d3e7486f4eae6000196125e6565b5050565b6000731231deb6f5749ef6ce6943a275a1d3e7486f4eae6001600160a01b0316826040516116879190612fa3565b6000604051808303816000865af19150503d80600081146116c4576040519150601f19603f3d011682016040523d82523d6000602084013e6116c9565b606091505b50509050806116555760405162461bcd60e51b815260040161076a9061311c565b6000546040517fdd62ed3e0000000000000000000000000000000000000000000000000000000081526001600160a01b038085169263dd62ed3e926117359230921690600401612ff0565b60206040518083038186803b15801561174d57600080fd5b505afa158015611761573d6000803e3d6000fd5b505050506040513d601f19601f820116820180604052508101906117859190612d31565b6117a5576000546117a5906001600160a01b0384811691166000196125e6565b6000546040517fdd62ed3e0000000000000000000000000000000000000000000000000000000081526001600160a01b038084169263dd62ed3e926117f09230921690600401612ff0565b60206040518083038186803b15801561180857600080fd5b505afa15801561181c573d6000803e3d6000fd5b505050506040513d601f19601f820116820180604052508101906118409190612d31565b61165557600054611655906001600160a01b0383811691166000196125e6565b6000805460408051610160810182526001600160a01b038981168252888116602083015262ffffff881692820192909252600286810b606083015285900b608082015260a081018b905260c081018a905291169063883164569060e081016118d36118cc8d6064612740565b8d906127a7565b81526020016118ed6118e68c6064612740565b8c906127a7565b815233602082015242604091820152517fffffffff0000000000000000000000000000000000000000000000000000000060e084901b1681526119339190600401613222565b608060405180830381600087803b15801561194d57600080fd5b505af1158015611961573d6000803e3d6000fd5b505050506040513d601f19601f820116820180604052508101906119859190612d49565b50919a9950505050505050505050565b604080516001600160a01b038416602482015260448082018490528251808303909101815260649091019091526020810180517bffffffffffffffffffffffffffffffffffffffffffffffffffffffff167fa9059cbb00000000000000000000000000000000000000000000000000000000179052611a15908490612804565b505050565b60008060008360020b12611a31578260020b611a39565b8260020b6000035b9050620d89e8811115611a93576040805162461bcd60e51b815260206004820152600160248201527f5400000000000000000000000000000000000000000000000000000000000000604482015290519081900360640190fd5b600060018216611ab457700100000000000000000000000000000000611ac6565b6ffffcb933bd6fad37aa2d162d1a5940015b70ffffffffffffffffffffffffffffffffff1690506002821615611afa576ffff97272373d413259a46990580e213a0260801c5b6004821615611b19576ffff2e50f5f656932ef12357cf3c7fdcc0260801c5b6008821615611b38576fffe5caca7e10e4e61c3624eaa0941cd00260801c5b6010821615611b57576fffcb9843d60f6159c9db58835c9266440260801c5b6020821615611b76576fff973b41fa98c081472e6896dfb254c00260801c5b6040821615611b95576fff2ea16466c96a3843ec78b326b528610260801c5b6080821615611bb4576ffe5dee046a99a2a811c461f1969c30530260801c5b610100821615611bd4576ffcbe86c7900a88aedcffc83b479aa3a40260801c5b610200821615611bf4576ff987a7253ac413176f2b074cf7815e540260801c5b610400821615611c14576ff3392b0822b70005940c7a398e4b70f30260801c5b610800821615611c34576fe7159475a2c29b7443b29c7fa6e889d90260801c5b611000821615611c54576fd097f3bdfd2022b8845ad8f792aa58250260801c5b612000821615611c74576fa9f746462d870fdf8a65dc1f90e061e50260801c5b614000821615611c94576f70d869a156d2a1b890bb3df62baf32f70260801c5b618000821615611cb4576f31be135f97d08fd981231505542fcfa60260801c5b62010000821615611cd5576f09aa508b5b7a84e1c677de54f3e99bc90260801c5b62020000821615611cf5576e5d6af8dedb81196699c329225ee6040260801c5b62040000821615611d14576d2216e584f5fa1ea926041bedfe980260801c5b62080000821615611d31576b048a170391f7dc42444e8fa20260801c5b60008460020b1315611d4c578060001981611d4857fe5b0490505b640100000000810615611d60576001611d63565b60005b60ff16602082901c0192505050919050565b6000826001600160a01b0316846001600160a01b03161115611d95579192915b6000611dc1856001600160a01b0316856001600160a01b03166c01000000000000000000000000612340565b905061055c6113e984838888036001600160a01b0316612340565b60006401000276a36001600160a01b03831610801590611e18575073fffd8963efd1fc6a506488495d951d5263988d266001600160a01b038316105b611e69576040805162461bcd60e51b815260206004820152600160248201527f5200000000000000000000000000000000000000000000000000000000000000604482015290519081900360640190fd5b77ffffffffffffffffffffffffffffffffffffffff00000000602083901b166fffffffffffffffffffffffffffffffff811160071b81811c67ffffffffffffffff811160061b90811c63ffffffff811160051b90811c61ffff811160041b90811c60ff8111600390811b91821c600f811160021b90811c918211600190811b92831c97908811961790941790921717909117171760808110611f1357607f810383901c9150611f1d565b80607f0383901b91505b908002607f81811c60ff83811c9190911c800280831c81831c1c800280841c81841c1c800280851c81851c1c800280861c81861c1c800280871c81871c1c800280881c81881c1c800280891c81891c1c8002808a1c818a1c1c8002808b1c818b1c1c8002808c1c818c1c1c8002808d1c818d1c1c8002808e1c9c81901c9c909c1c80029c8d901c9e9d7fffffffffffffffffffffffffffffffffffffffffffffffffffffffffffffff808f0160401b60c09190911c678000000000000000161760c19b909b1c674000000000000000169a909a1760c29990991c672000000000000000169890981760c39790971c671000000000000000169690961760c49590951c670800000000000000169490941760c59390931c670400000000000000169290921760c69190911c670200000000000000161760c79190911c670100000000000000161760c89190911c6680000000000000161760c99190911c6640000000000000161760ca9190911c6620000000000000161760cb9190911c6610000000000000161760cc9190911c6608000000000000161760cd9190911c66040000000000001617693627a301d71055774c8581027ffffffffffffffffffffffffffffffffffd709b7e5480fba5a50fed5e62ffc5568101608090811d906fdb2df09e81959a81455e260799a0632f8301901d600281810b9083900b1461214b57886001600160a01b031661212f82611a1a565b6001600160a01b031611156121445781612146565b805b61214d565b815b9998505050505050505050565b60008261216957506000610db5565b8282028284828161217657fe5b0414610da35760405162461bcd60e51b81526004018080602001828103825260218152602001806134256021913960400191505060405180910390fd5b6000836001600160a01b0316856001600160a01b031611156121d3579293925b846001600160a01b0316866001600160a01b0316116121fe576121f7858585611d75565b905061055c565b836001600160a01b0316866001600160a01b03161015612272576000612225878686611d75565b905060006122348789866113a3565b9050806fffffffffffffffffffffffffffffffff16826fffffffffffffffffffffffffffffffff16106122675780612269565b815b9250505061055c565b610f618585846113a3565b6000826001600160a01b0316846001600160a01b0316111561229d579192915b836001600160a01b03166122df606060ff16846fffffffffffffffffffffffffffffffff16901b8686036001600160a01b0316866001600160a01b0316612340565b816122e657fe5b04949350505050565b6000826001600160a01b0316846001600160a01b0316111561230f579192915b61058e826fffffffffffffffffffffffffffffffff168585036001600160a01b03166c010000000000000000000000005b6000808060001985870986860292508281109083900303905080612376576000841161236b57600080fd5b508290049050610da3565b80841161238257600080fd5b6000848688096000868103871696879004966002600389028118808a02820302808a02820302808a02820302808a02820302808a02820302808a02909103029181900381900460010186841190950394909402919094039290920491909117919091029150509392505050565b806fffffffffffffffffffffffffffffffff81168114610d2757600080fd5b6000806105ab6fffffffffffffffffffffffffffffffff808561250f565b60008060008061243c86866105b5565b6000546040805160a0810182528981526fffffffffffffffffffffffffffffffff8b1660208201528082018590526060810184905242608082015290517f0c49ccbe0000000000000000000000000000000000000000000000000000000081529395509193506001600160a01b031691630c49ccbe916124be916004016131d6565b6040805180830381600087803b1580156124d757600080fd5b505af11580156124eb573d6000803e3d6000fd5b505050506040513d601f19601f820116820180604052508101906105749190612d86565b60008054604080516080810182528481523060208201526fffffffffffffffffffffffffffffffff808816828401528616606082015290517ffc6f786500000000000000000000000000000000000000000000000000000000815283926001600160a01b03169163fc6f786591612589919060040161318a565b6040805180830381600087803b1580156125a257600080fd5b505af11580156125b6573d6000803e3d6000fd5b505050506040513d601f19601f820116820180604052508101906125da9190612d86565b90969095509350505050565b8015806126855750604080517fdd62ed3e0000000000000000000000000000000000000000000000000000000081523060048201526001600160a01b03848116602483015291519185169163dd62ed3e91604480820192602092909190829003018186803b15801561265757600080fd5b505afa15801561266b573d6000803e3d6000fd5b505050506040513d602081101561268157600080fd5b5051155b6126c05760405162461bcd60e51b81526004018080602001828103825260368152602001806134706036913960400191505060405180910390fd5b604080516001600160a01b038416602482015260448082018490528251808303909101815260649091019091526020810180517bffffffffffffffffffffffffffffffffffffffffffffffffffffffff167f095ea7b300000000000000000000000000000000000000000000000000000000179052611a15908490612804565b6000808211612796576040805162461bcd60e51b815260206004820152601a60248201527f536166654d6174683a206469766973696f6e206279207a65726f000000000000604482015290519081900360640190fd5b81838161279f57fe5b049392505050565b6000828211156127fe576040805162461bcd60e51b815260206004820152601e60248201527f536166654d6174683a207375627472616374696f6e206f766572666c6f770000604482015290519081900360640190fd5b50900390565b6000612859826040518060400160405280602081526020017f5361666545524332303a206c6f772d6c6576656c2063616c6c206661696c6564815250856001600160a01b03166128b59092919063ffffffff16565b805190915015611a155780806020019051602081101561287857600080fd5b5051611a155760405162461bcd60e51b815260040180806020018281038252602a815260200180613446602a913960400191505060405180910390fd5b606061058e8484600085856128c9856129f8565b61291a576040805162461bcd60e51b815260206004820152601d60248201527f416464726573733a2063616c6c20746f206e6f6e2d636f6e7472616374000000604482015290519081900360640190fd5b600080866001600160a01b031685876040518082805190602001908083835b6020831061297657805182527fffffffffffffffffffffffffffffffffffffffffffffffffffffffffffffffe09092019160209182019101612939565b6001836020036101000a03801982511681845116808217855250505050505090500191505060006040518083038185875af1925050503d80600081146129d8576040519150601f19603f3d011682016040523d82523d6000602084013e6129dd565b606091505b50915091506129ed8282866129fe565b979650505050505050565b3b151590565b60608315612a0d575081610da3565b825115612a1d5782518084602001fd5b8160405162461bcd60e51b81526004018080602001828103825283818151815260200191508051906020019080838360005b83811015612a67578181015183820152602001612a4f565b50505050905090810190601f168015612a945780820380516001836020036101000a031916815260200191505b509250505060405180910390fd5b6040805160a08101825260008082526020820181905291810182905260608101829052608081019190915290565b8051610d27816133d0565b8051610d27816133e8565b8051610d27816133f7565b805161ffff81168114610d2757600080fd5b805162ffffff81168114610d2757600080fd5b600060208284031215612b27578081fd5b8135610da3816133d0565b600060208284031215612b43578081fd5b8151610da3816133d0565b600060208284031215612b5f578081fd5b8135610da3816133e8565b600060208284031215612b7b578081fd5b813567ffffffffffffffff811115612b91578182fd5b820160c08185031215610da3578182fd5b600060208284031215612bb3578081fd5b8151610da3816133f7565b60008060008060808587031215612bd3578283fd5b8435612bde816133f7565b93506020850135612bee816133d0565b92506040850135612bfe816133d0565b91506060850135612c0e816133d0565b939692955090935050565b60008060408385031215612c2b578182fd5b8235612c36816133f7565b946020939093013593505050565b600080600080600080600060e0888a031215612c5e578283fd5b8751612c69816133d0565b6020890151909750612c7a816133e8565b9550612c8860408901612af1565b9450612c9660608901612af1565b9350612ca460808901612af1565b925060a0880151612cb481613415565b60c08901519092508015158114612cc9578182fd5b8091505092959891949750929550565b600080600060608486031215612ced578081fd5b8335612cf8816133d0565b92506020840135612d08816133d0565b929592945050506040919091013590565b600060208284031215612d2a578081fd5b5035919050565b600060208284031215612d42578081fd5b5051919050565b60008060008060808587031215612d5e578182fd5b845193506020850151612d70816133f7565b6040860151606090960151949790965092505050565b60008060408385031215612d98578182fd5b505080516020909101519092909150565b600080600080600060a08688031215612dc0578283fd5b85359450602086013593506040860135612dd9816133d0565b92506060860135612de9816133d0565b91506080860135612df9816133d0565b809150509295509295909350565b600080600060608486031215612e1b578081fd5b505081359360208301359350604090920135919050565b600080600060608486031215612e46578081fd5b833592506020840135612e5881613415565b91506040840135612e6881613415565b809150509250925092565b600080600060608486031215612e87578081fd5b8335612e9281613415565b95602085013595506040909401359392505050565b6000806000806000806000806000806000806101808d8f031215612ec9578586fd5b8c516bffffffffffffffffffffffff81168114612ee4578687fd5b9b50612ef260208e01612ad0565b9a50612f0060408e01612ad0565b9950612f0e60608e01612ad0565b9850612f1c60808e01612b03565b9750612f2a60a08e01612adb565b9650612f3860c08e01612adb565b9550612f4660e08e01612ae6565b94506101008d015193506101208d01519250612f656101408e01612ae6565b9150612f746101608e01612ae6565b90509295989b509295989b509295989b565b6001600160a01b03169052565b60020b9052565b62ffffff169052565b60008251815b81811015612fc35760208186018101518583015201612fa9565b81811115612fd15782828501525b509190910192915050565b6001600160a01b0391909116815260200190565b6001600160a01b0392831681529116602082015260400190565b6001600160a01b03938416815291909216602082015262ffffff909116604082015260600190565b60029190910b815260200190565b600292830b8152910b602082015260400190565b600296870b815294860b602086015292850b6040850152930b6060830152608082019290925260a081019190915260c00190565b6020808252602f908201527f5374616b656420616d6f756e747320616674657220726562616c616e6365206160408201527f726520696e73756666696369656e740000000000000000000000000000000000606082015260800190565b60208082526014908201527f4e65656420746f206368616e6765207469636b73000000000000000000000000604082015260600190565b60208082526010908201527f537761702063616c6c206661696c656400000000000000000000000000000000604082015260600190565b60208082526018908201527f43616c6c6572206d757374206f776e20706f736974696f6e0000000000000000604082015260600190565b815181526020808301516001600160a01b0316908201526040808301516fffffffffffffffffffffffffffffffff90811691830191909152606092830151169181019190915260800190565b600060a082019050825182526fffffffffffffffffffffffffffffffff602084015116602083015260408301516040830152606083015160608301526080830151608083015292915050565b600061016082019050613236828451612f86565b60208301516132486020840182612f86565b50604083015161325b6040840182612f9a565b50606083015161326e6060840182612f93565b5060808301516132816080840182612f93565b5060a083015160a083015260c083015160c083015260e083015160e0830152610100808401518184015250610120808401516132bf82850182612f86565b505061014092830151919092015290565b600060a0820190506001600160a01b038084511683528060208501511660208401525062ffffff6040840151166040830152606083015160020b6060830152608083015160020b608083015292915050565b6fffffffffffffffffffffffffffffffff91909116815260200190565b62ffffff91909116815260200190565b90815260200190565b918252602082015260400190565b60008083357fffffffffffffffffffffffffffffffffffffffffffffffffffffffffffffffe184360301811261339a578283fd5b83018035915067ffffffffffffffff8211156133b4578283fd5b6020019150368190038213156133c957600080fd5b9250929050565b6001600160a01b03811681146133e557600080fd5b50565b8060020b81146133e557600080fd5b6fffffffffffffffffffffffffffffffff811681146133e557600080fd5b60ff811681146133e557600080fdfe536166654d6174683a206d756c7469706c69636174696f6e206f766572666c6f775361666545524332303a204552433230206f7065726174696f6e20646964206e6f7420737563636565645361666545524332303a20617070726f76652066726f6d206e6f6e2d7a65726f20746f206e6f6e2d7a65726f20616c6c6f77616e6365a164736f6c6343000706000a",
  "devdoc": {
    "kind": "dev",
    "methods": {
      "calculateAmountsMintedSingleToken(uint8,uint256,uint256)": {
        "details": "Calculates single-side minted amountTakes an asset and amount and returnsthe amounts to deposit in the pool in the correct ratio",
        "params": {
          "amount": "- amount to deposit/withdraw",
          "inputAsset": "- use token0 if 0, token1 else",
          "positionId": "- nft id of the position"
        }
      },
      "calculatePoolMintedAmounts(uint256,uint256,uint160,uint160,uint160)": {
        "details": "Calculates the amounts deposited/withdrawn from the pool amount0, amount1 - amounts to deposit/withdraw amount0Minted, amount1Minted - actual amounts which can be deposited"
      },
      "getAmountsForLiquidity(uint128,uint160,uint160,uint160)": {
        "details": "Calculate token amounts for given pool liquidity"
      },
      "getAmountsForLiquidity(uint128,uint256)": {
        "details": "Calculate token amounts for given pool liquidity"
      },
      "getFee(uint256)": {
        "details": "Returns a position's fee",
        "params": {
          "positionId": "the nft id of the position"
        }
      },
      "getLiquidityForAmounts(uint256,uint256,uint160,uint160,uint160)": {
        "details": "Calculate pool liquidity for given token amounts"
      },
      "getLiquidityForAmounts(uint256,uint256,uint256)": {
        "details": "Calculate pool liquidity for given token amounts"
      },
      "getPoolLiquidity(uint256)": {
        "details": "Get a pool's liquidity from position id",
        "params": {
          "positionId": "the position id"
        }
      },
      "getPoolLiquidityFromAddress(address)": {
        "details": "Returns the current pool liquidity"
      },
      "getPoolPrice(uint256)": {
        "details": "Get a pool's price from position id",
        "params": {
          "positionId": "the position id"
        }
      },
      "getPoolPriceFromAddress(address)": {
        "details": "Get a pool's price from pool address",
        "params": {
          "_pool": "the pool address"
        }
      },
      "getPositionLiquidity(uint256)": {
        "details": "Returns a position's liquidity",
        "params": {
          "positionId": "the nft id of the position"
        }
      },
      "getPositionParams(uint256)": {
        "details": "Returns the parameters needed for reposition function",
        "params": {
          "positionId": "the nft id of the position"
        }
      },
      "getPriceFromTick(int24)": {
        "details": "get price from tick"
      },
      "getPriceRange(uint256)": {
        "details": "Returns a position's lower and upper prices (the price range of the position)",
        "params": {
          "positionId": "the nft id of the position"
        }
      },
      "getTickFromPrice(uint160)": {
        "details": "get tick from price"
      },
      "getTicks(uint256)": {
        "details": "Returns a position's lower and upper ticks",
        "params": {
          "positionId": "the nft id of the position"
        }
      },
      "getTokens(uint256)": {
        "details": "Returns a position's token 0 and token 1 addresses",
        "params": {
          "positionId": "the nft id of the position"
        }
      },
      "reposition((uint256,int24,int24,uint256,uint256,bytes))": {
        "details": "Rebalance a given Uni V3 position to a new price range",
        "params": {
          "params": "Reposition parameter structure"
        }
      }
    },
    "version": 1
  },
  "userdoc": {
    "kind": "user",
    "methods": {
      "getPoolPriceWithDecimals(uint256,uint8,uint8)": {
        "notice": "Get pool price in decimal notation with 12 decimals"
      },
      "getStakedTokenBalance(uint256)": {
        "notice": "Get token balances in the position"
      }
    },
    "notice": "Contract which manages an Uniswap V3 Position Can rebalance and change the ticks of the position",
    "version": 1
  },
  "storageLayout": {
    "storage": [
      {
        "astId": 3639,
        "contract": "contracts/UniswapPositionManager.sol:UniswapPositionManager",
        "label": "nftManager",
        "offset": 0,
        "slot": "0",
        "type": "t_contract(INonfungiblePositionManager)3126"
      },
      {
        "astId": 3641,
        "contract": "contracts/UniswapPositionManager.sol:UniswapPositionManager",
        "label": "uniswapFactory",
        "offset": 0,
        "slot": "1",
        "type": "t_contract(IUniswapV3Factory)1736"
      }
    ],
    "types": {
      "t_contract(INonfungiblePositionManager)3126": {
        "encoding": "inplace",
        "label": "contract INonfungiblePositionManager",
        "numberOfBytes": "20"
      },
      "t_contract(IUniswapV3Factory)1736": {
        "encoding": "inplace",
        "label": "contract IUniswapV3Factory",
        "numberOfBytes": "20"
      }
    }
  }
}