{
  "address": "0xCFfa26AEFb1ea7F73401CfD302491e7B39EB1E35",
  "abi": [
    {
      "inputs": [
        {
          "internalType": "contract INonfungiblePositionManager",
          "name": "_nftManager",
          "type": "address"
        },
        {
          "internalType": "contract IUniswapV3Factory",
          "name": "_uniswapFactory",
          "type": "address"
        },
        {
          "internalType": "contract IQuoter",
          "name": "_quoter",
          "type": "address"
        }
      ],
      "stateMutability": "nonpayable",
      "type": "constructor"
    },
    {
      "anonymous": false,
      "inputs": [
        {
          "indexed": false,
          "internalType": "uint256",
          "name": "token0Balance",
          "type": "uint256"
        },
        {
          "indexed": false,
          "internalType": "uint256",
          "name": "token1Balance",
          "type": "uint256"
        },
        {
          "indexed": false,
          "internalType": "uint256",
          "name": "value",
          "type": "uint256"
        }
      ],
      "name": "PositionState",
      "type": "event"
    },
    {
      "anonymous": false,
      "inputs": [
        {
          "indexed": true,
          "internalType": "uint256",
          "name": "oldPositionId",
          "type": "uint256"
        },
        {
          "indexed": true,
          "internalType": "uint256",
          "name": "newPositionId",
          "type": "uint256"
        },
        {
          "indexed": false,
          "internalType": "int24",
          "name": "oldLowerTick",
          "type": "int24"
        },
        {
          "indexed": false,
          "internalType": "int24",
          "name": "oldUpperTick",
          "type": "int24"
        },
        {
          "indexed": false,
          "internalType": "int24",
          "name": "newLowerTick",
          "type": "int24"
        },
        {
          "indexed": false,
          "internalType": "int24",
          "name": "newUpperTick",
          "type": "int24"
        },
        {
          "indexed": false,
          "internalType": "uint256",
          "name": "newStakedToken0Balance",
          "type": "uint256"
        },
        {
          "indexed": false,
          "internalType": "uint256",
          "name": "newStakedToken1Balance",
          "type": "uint256"
        }
      ],
      "name": "Repositioned",
      "type": "event"
    },
    {
      "inputs": [
        {
          "internalType": "uint8",
          "name": "inputAsset",
          "type": "uint8"
        },
        {
          "internalType": "uint256",
          "name": "amount",
          "type": "uint256"
        },
        {
          "internalType": "uint256",
          "name": "positionId",
          "type": "uint256"
        }
      ],
      "name": "calculateAmountsMintedSingleToken",
      "outputs": [
        {
          "internalType": "uint256",
          "name": "amount0Minted",
          "type": "uint256"
        },
        {
          "internalType": "uint256",
          "name": "amount1Minted",
          "type": "uint256"
        }
      ],
      "stateMutability": "view",
      "type": "function"
    },
    {
      "inputs": [
        {
          "internalType": "uint256",
          "name": "amount0",
          "type": "uint256"
        },
        {
          "internalType": "uint256",
          "name": "amount1",
          "type": "uint256"
        },
        {
          "internalType": "uint160",
          "name": "poolPrice",
          "type": "uint160"
        },
        {
          "internalType": "uint160",
          "name": "priceLower",
          "type": "uint160"
        },
        {
          "internalType": "uint160",
          "name": "priceUpper",
          "type": "uint160"
        }
      ],
      "name": "calculatePoolMintedAmounts",
      "outputs": [
        {
          "internalType": "uint256",
          "name": "amount0Minted",
          "type": "uint256"
        },
        {
          "internalType": "uint256",
          "name": "amount1Minted",
          "type": "uint256"
        }
      ],
      "stateMutability": "view",
      "type": "function"
    },
    {
      "inputs": [
        {
          "internalType": "uint128",
          "name": "liquidity",
          "type": "uint128"
        },
        {
          "internalType": "uint160",
          "name": "poolPrice",
          "type": "uint160"
        },
        {
          "internalType": "uint160",
          "name": "priceLower",
          "type": "uint160"
        },
        {
          "internalType": "uint160",
          "name": "priceUpper",
          "type": "uint160"
        }
      ],
      "name": "getAmountsForLiquidity",
      "outputs": [
        {
          "internalType": "uint256",
          "name": "amount0",
          "type": "uint256"
        },
        {
          "internalType": "uint256",
          "name": "amount1",
          "type": "uint256"
        }
      ],
      "stateMutability": "view",
      "type": "function"
    },
    {
      "inputs": [
        {
          "internalType": "uint128",
          "name": "liquidity",
          "type": "uint128"
        },
        {
          "internalType": "uint256",
          "name": "positionId",
          "type": "uint256"
        }
      ],
      "name": "getAmountsForLiquidity",
      "outputs": [
        {
          "internalType": "uint256",
          "name": "amount0",
          "type": "uint256"
        },
        {
          "internalType": "uint256",
          "name": "amount1",
          "type": "uint256"
        }
      ],
      "stateMutability": "view",
      "type": "function"
    },
    {
      "inputs": [
        {
          "internalType": "uint256",
          "name": "positionId",
          "type": "uint256"
        }
      ],
      "name": "getFee",
      "outputs": [
        {
          "internalType": "uint24",
          "name": "fee",
          "type": "uint24"
        }
      ],
      "stateMutability": "view",
      "type": "function"
    },
    {
      "inputs": [
        {
          "internalType": "uint160",
          "name": "priceLower",
          "type": "uint160"
        },
        {
          "internalType": "uint160",
          "name": "priceUpper",
          "type": "uint160"
        },
        {
          "internalType": "uint256",
          "name": "amount0",
          "type": "uint256"
        }
      ],
      "name": "getLiquidityForAmount0",
      "outputs": [
        {
          "internalType": "uint128",
          "name": "liquidity",
          "type": "uint128"
        }
      ],
      "stateMutability": "pure",
      "type": "function"
    },
    {
      "inputs": [
        {
          "internalType": "uint160",
          "name": "priceLower",
          "type": "uint160"
        },
        {
          "internalType": "uint160",
          "name": "priceUpper",
          "type": "uint160"
        },
        {
          "internalType": "uint256",
          "name": "amount1",
          "type": "uint256"
        }
      ],
      "name": "getLiquidityForAmount1",
      "outputs": [
        {
          "internalType": "uint128",
          "name": "liquidity",
          "type": "uint128"
        }
      ],
      "stateMutability": "pure",
      "type": "function"
    },
    {
      "inputs": [
        {
          "internalType": "uint256",
          "name": "amount0",
          "type": "uint256"
        },
        {
          "internalType": "uint256",
          "name": "amount1",
          "type": "uint256"
        },
        {
          "internalType": "uint256",
          "name": "positionId",
          "type": "uint256"
        }
      ],
      "name": "getLiquidityForAmounts",
      "outputs": [
        {
          "internalType": "uint128",
          "name": "liquidity",
          "type": "uint128"
        }
      ],
      "stateMutability": "view",
      "type": "function"
    },
    {
      "inputs": [
        {
          "internalType": "uint256",
          "name": "amount0",
          "type": "uint256"
        },
        {
          "internalType": "uint256",
          "name": "amount1",
          "type": "uint256"
        },
        {
          "internalType": "uint160",
          "name": "poolPrice",
          "type": "uint160"
        },
        {
          "internalType": "uint160",
          "name": "priceLower",
          "type": "uint160"
        },
        {
          "internalType": "uint160",
          "name": "priceUpper",
          "type": "uint160"
        }
      ],
      "name": "getLiquidityForAmounts",
      "outputs": [
        {
          "internalType": "uint128",
          "name": "liquidity",
          "type": "uint128"
        }
      ],
      "stateMutability": "view",
      "type": "function"
    },
    {
      "inputs": [
        {
          "internalType": "uint256",
          "name": "positionId",
          "type": "uint256"
        }
      ],
      "name": "getPoolAddress",
      "outputs": [
        {
          "internalType": "address",
          "name": "pool",
          "type": "address"
        }
      ],
      "stateMutability": "view",
      "type": "function"
    },
    {
      "inputs": [
        {
          "internalType": "uint256",
          "name": "positionId",
          "type": "uint256"
        }
      ],
      "name": "getPoolLiquidity",
      "outputs": [
        {
          "internalType": "uint160",
          "name": "price",
          "type": "uint160"
        }
      ],
      "stateMutability": "view",
      "type": "function"
    },
    {
      "inputs": [
        {
          "internalType": "address",
          "name": "_pool",
          "type": "address"
        }
      ],
      "name": "getPoolLiquidityFromAddress",
      "outputs": [
        {
          "internalType": "uint128",
          "name": "",
          "type": "uint128"
        }
      ],
      "stateMutability": "view",
      "type": "function"
    },
    {
      "inputs": [
        {
          "internalType": "uint256",
          "name": "positionId",
          "type": "uint256"
        }
      ],
      "name": "getPoolPrice",
      "outputs": [
        {
          "internalType": "uint160",
          "name": "price",
          "type": "uint160"
        }
      ],
      "stateMutability": "view",
      "type": "function"
    },
    {
      "inputs": [
        {
          "internalType": "address",
          "name": "_pool",
          "type": "address"
        }
      ],
      "name": "getPoolPriceFromAddress",
      "outputs": [
        {
          "internalType": "uint160",
          "name": "price",
          "type": "uint160"
        }
      ],
      "stateMutability": "view",
      "type": "function"
    },
    {
      "inputs": [
        {
          "internalType": "uint256",
          "name": "positionId",
          "type": "uint256"
        },
        {
          "internalType": "uint8",
          "name": "token0Decimals",
          "type": "uint8"
        },
        {
          "internalType": "uint8",
          "name": "token1Decimals",
          "type": "uint8"
        }
      ],
      "name": "getPoolPriceWithDecimals",
      "outputs": [
        {
          "internalType": "uint256",
          "name": "price",
          "type": "uint256"
        }
      ],
      "stateMutability": "view",
      "type": "function"
    },
    {
      "inputs": [
        {
          "internalType": "uint256",
          "name": "positionId",
          "type": "uint256"
        }
      ],
      "name": "getPositionLiquidity",
      "outputs": [
        {
          "internalType": "uint128",
          "name": "liquidity",
          "type": "uint128"
        }
      ],
      "stateMutability": "view",
      "type": "function"
    },
    {
      "inputs": [
        {
          "internalType": "uint256",
          "name": "positionId",
          "type": "uint256"
        }
      ],
      "name": "getPositionParams",
      "outputs": [
        {
          "components": [
            {
              "internalType": "address",
              "name": "token0",
              "type": "address"
            },
            {
              "internalType": "address",
              "name": "token1",
              "type": "address"
            },
            {
              "internalType": "uint24",
              "name": "fee",
              "type": "uint24"
            },
            {
              "internalType": "int24",
              "name": "tickLower",
              "type": "int24"
            },
            {
              "internalType": "int24",
              "name": "tickUpper",
              "type": "int24"
            }
          ],
          "internalType": "struct UniswapPositionManager.PositionParams",
          "name": "positionParams",
          "type": "tuple"
        }
      ],
      "stateMutability": "view",
      "type": "function"
    },
    {
      "inputs": [
        {
          "internalType": "int24",
          "name": "tick",
          "type": "int24"
        }
      ],
      "name": "getPriceFromTick",
      "outputs": [
        {
          "internalType": "uint160",
          "name": "",
          "type": "uint160"
        }
      ],
      "stateMutability": "pure",
      "type": "function"
    },
    {
      "inputs": [
        {
          "internalType": "uint256",
          "name": "positionId",
          "type": "uint256"
        }
      ],
      "name": "getPriceRange",
      "outputs": [
        {
          "internalType": "uint160",
          "name": "priceLower",
          "type": "uint160"
        },
        {
          "internalType": "uint160",
          "name": "priceUpper",
          "type": "uint160"
        }
      ],
      "stateMutability": "view",
      "type": "function"
    },
    {
      "inputs": [
        {
          "internalType": "uint256",
          "name": "positionId",
          "type": "uint256"
        }
      ],
      "name": "getStakedTokenBalance",
      "outputs": [
        {
          "internalType": "uint256",
          "name": "amount0",
          "type": "uint256"
        },
        {
          "internalType": "uint256",
          "name": "amount1",
          "type": "uint256"
        }
      ],
      "stateMutability": "view",
      "type": "function"
    },
    {
      "inputs": [
        {
          "internalType": "uint160",
          "name": "price",
          "type": "uint160"
        }
      ],
      "name": "getTickFromPrice",
      "outputs": [
        {
          "internalType": "int24",
          "name": "",
          "type": "int24"
        }
      ],
      "stateMutability": "pure",
      "type": "function"
    },
    {
      "inputs": [
        {
          "internalType": "uint256",
          "name": "positionId",
          "type": "uint256"
        }
      ],
      "name": "getTicks",
      "outputs": [
        {
          "internalType": "int24",
          "name": "tickLower",
          "type": "int24"
        },
        {
          "internalType": "int24",
          "name": "tickUpper",
          "type": "int24"
        }
      ],
      "stateMutability": "view",
      "type": "function"
    },
    {
      "inputs": [
        {
          "internalType": "uint256",
          "name": "positionId",
          "type": "uint256"
        }
      ],
      "name": "getTokens",
      "outputs": [
        {
          "internalType": "address",
          "name": "token0",
          "type": "address"
        },
        {
          "internalType": "address",
          "name": "token1",
          "type": "address"
        }
      ],
      "stateMutability": "view",
      "type": "function"
    },
    {
      "inputs": [],
      "name": "nftManager",
      "outputs": [
        {
          "internalType": "contract INonfungiblePositionManager",
          "name": "",
          "type": "address"
        }
      ],
      "stateMutability": "view",
      "type": "function"
    },
    {
      "inputs": [],
      "name": "quoter",
      "outputs": [
        {
          "internalType": "contract IQuoter",
          "name": "",
          "type": "address"
        }
      ],
      "stateMutability": "view",
      "type": "function"
    },
    {
      "inputs": [
        {
          "components": [
            {
              "internalType": "uint256",
              "name": "positionId",
              "type": "uint256"
            },
            {
              "internalType": "int24",
              "name": "newTickLower",
              "type": "int24"
            },
            {
              "internalType": "int24",
              "name": "newTickUpper",
              "type": "int24"
            },
            {
              "internalType": "uint256",
              "name": "minAmount0Staked",
              "type": "uint256"
            },
            {
              "internalType": "uint256",
              "name": "minAmount1Staked",
              "type": "uint256"
            },
            {
              "internalType": "bytes",
              "name": "swapData",
              "type": "bytes"
            }
          ],
          "internalType": "struct UniswapPositionManager.RepositionParams",
          "name": "params",
          "type": "tuple"
        }
      ],
      "name": "reposition",
      "outputs": [],
      "stateMutability": "nonpayable",
      "type": "function"
    },
    {
      "inputs": [],
      "name": "uniswapFactory",
      "outputs": [
        {
          "internalType": "contract IUniswapV3Factory",
          "name": "",
          "type": "address"
        }
      ],
      "stateMutability": "view",
      "type": "function"
    }
  ],
  "transactionHash": "0xa3cf72eff3aca84263209cc7082505ac9f720ccfda2af87132d85c39d4a9ab62",
  "args": [
    "0xC36442b4a4522E871399CD717aBDD847Ab11FE88",
    "0x1F98431c8aD98523631AE4a59f267346ea31F984",
    "0xb27308f9F90D607463bb33eA1BeBb41C27CE5AB6"
  ],
  "numDeployments": 4,
  "solcInputHash": "0dcb846cf5e581872f8777aebaa33dc7",
  "bytecode": "0x60806040523480156200001157600080fd5b506040516200383938038062003839833981016040819052620000349162000077565b600080546001600160a01b039485166001600160a01b031991821617909155600180549385169382169390931790925560028054919093169116179055620000e3565b6000806000606084860312156200008c578283fd5b83516200009981620000ca565b6020850151909350620000ac81620000ca565b6040850151909250620000bf81620000ca565b809150509250925092565b6001600160a01b0381168114620000e057600080fd5b50565b61374680620000f36000396000f3fe608060405234801561001057600080fd5b50600436106101b85760003560e01c806387aa64f7116100f9578063bafcf68e11610097578063e63490ce11610071578063e63490ce146103c5578063e88b91ea146103e5578063fcee45f4146103ed578063fe12dbfb1461040d576101b8565b8063bafcf68e14610397578063c6bbd5a7146103aa578063d3c9cc26146103b2576101b8565b8063958af242116100d3578063958af242146103305780639af94f30146103505780639d4ad6f114610363578063b9a7acd414610384576101b8565b806387aa64f7146102f55780638a6537f9146103155780638bdb2afa14610328576101b8565b806331add76f1161016657806353bfd4fb1161014057806353bfd4fb146102a957806359e0fe18146102bc57806367df6e89146102cf5780637e1469fe146102e2576101b8565b806331add76f1461026057806338b7b79e1461027557806341d00d0a14610296576101b8565b80630dee2ff8116101975780630dee2ff8146102275780630eab51f31461023a5780631efeed331461024d576101b8565b8062a5ae21146101bd578063016c8cc0146101e657806308c0f79514610207575b600080fd5b6101d06101cb366004612f62565b610420565b6040516101dd9190613225565b60405180910390f35b6101f96101f4366004612e07565b610578565b6040516101dd9291906135d6565b61021a610215366004612f22565b610594565b6040516101dd91906135a0565b6101f9610235366004612f62565b6105a9565b6101f9610248366004612e62565b6105c8565b61021a61025b366004612f62565b6105ff565b61027361026e366004612db3565b6106ac565b005b610288610283366004612f62565b610bfd565b6040516101dd929190613239565b6101d06102a4366004612d5f565b610cc7565b61021a6102b7366004612d5f565b610d51565b6101d06102ca366004612d97565b610dcf565b61021a6102dd366004612f22565b610de0565b6101f96102f03660046130bc565b610ded565b610308610303366004612d5f565b610eb7565b6040516101dd91906132b0565b6101d0610323366004612f62565b610ec2565b6101d0610ee8565b61034361033e36600461307b565b610ef7565b6040516101dd91906135cd565b6101d061035e366004612f62565b610f90565b610376610371366004612f62565b610f9e565b6040516101dd9291906132be565b61021a610392366004613050565b61104e565b61021a6103a5366004612ff2565b611085565b6101d0611094565b6102886103c0366004612f62565b6110a3565b6103d86103d3366004612f62565b611153565b6040516101dd919061354e565b6101d0611250565b6104006103fb366004612f62565b61125f565b6040516101dd91906135bd565b6101f961041b366004612ff2565b61130c565b600080546040517f99fbab880000000000000000000000000000000000000000000000000000000081528291829182916001600160a01b0316906399fbab889061046e9088906004016135cd565b6101806040518083038186803b15801561048757600080fd5b505afa15801561049b573d6000803e3d6000fd5b505050506040513d601f19601f820116820180604052508101906104bf91906130f0565b50506001546040517f1698ee82000000000000000000000000000000000000000000000000000000008152989d50969b50949950506001600160a01b039094169650631698ee82955061051f948a94508993508892506004019050613253565b60206040518083038186803b15801561053757600080fd5b505afa15801561054b573d6000803e3d6000fd5b505050506040513d601f19601f8201168201806040525081019061056f9190612d7b565b95945050505050565b6000806105878585858961133b565b9097909650945050505050565b60006105a18484846113d7565b949350505050565b6000806105be6105b8846105ff565b846105c8565b9094909350915050565b6000806000806105d785610f9e565b915091506105876105e786610f90565b6105f084610dcf565b6105f984610dcf565b8961133b565b600080546040517f99fbab880000000000000000000000000000000000000000000000000000000081526001600160a01b03909116906399fbab88906106499085906004016135cd565b6101806040518083038186803b15801561066257600080fd5b505afa158015610676573d6000803e3d6000fd5b505050506040513d601f19601f8201168201806040525081019061069a91906130f0565b50929c9b505050505050505050505050565b60006106b88235611153565b6000546040517f6352211e00000000000000000000000000000000000000000000000000000000815291925033916001600160a01b0390911690636352211e90610707908635906004016135cd565b60206040518083038186803b15801561071f57600080fd5b505afa158015610733573d6000803e3d6000fd5b505050506040513d601f19601f820116820180604052508101906107579190612d7b565b6001600160a01b0316146107865760405162461bcd60e51b815260040161077d906133d1565b60405180910390fd5b606081015160020b61079e6040840160208501612d97565b60020b1415806107c75750608081015160020b6107c16060840160408501612d97565b60020b14155b6107e35760405162461bcd60e51b815260040161077d90613363565b8051602082015160006107f68535610420565b90506108028535611422565b5061080f90508535611459565b610818846114d7565b61082560a08601866135fa565b1590506108805761083683836116ec565b61088061084660a08701876135fa565b8080601f0160208091040260200160405190810160405280939291908181526020018383808284376000920191909152506118a292505050565b61088a8383611933565b610893846114d7565b6000806109d9856001600160a01b03166370a08231306040518263ffffffff1660e01b81526004016108c59190613225565b60206040518083038186803b1580156108dd57600080fd5b505afa1580156108f1573d6000803e3d6000fd5b505050506040513d601f19601f820116820180604052508101906109159190612f7a565b6040517f70a082310000000000000000000000000000000000000000000000000000000081526001600160a01b038716906370a082319061095a903090600401613225565b60206040518083038186803b15801561097257600080fd5b505afa158015610986573d6000803e3d6000fd5b505050506040513d601f19601f820116820180604052508101906109aa9190612f7a565b6109b386610cc7565b6109c66102ca60408d0160208e01612d97565b61041b6102ca60608e0160408f01612d97565b915091506000610a16838388888b604001518d60200160208101906109fe9190612d97565b8e6040016020810190610a119190612d97565b611aa9565b9050610aa933876001600160a01b03166370a08231306040518263ffffffff1660e01b8152600401610a489190613225565b60206040518083038186803b158015610a6057600080fd5b505afa158015610a74573d6000803e3d6000fd5b505050506040513d601f19601f82011682018060405250810190610a989190612f7a565b6001600160a01b0389169190611bde565b610b3a33866001600160a01b03166370a08231306040518263ffffffff1660e01b8152600401610ad99190613225565b60206040518083038186803b158015610af157600080fd5b505afa158015610b05573d6000803e3d6000fd5b505050506040513d601f19601f82011682018060405250810190610b299190612f7a565b6001600160a01b0388169190611bde565b600080610b46836105a9565b91509150818a6060013511158015610b625750808a6080013511155b610b7e5760405162461bcd60e51b815260040161077d90613306565b828a600001357f8e7b1272607b2ee22f0cf286791a608d5eee7d9dbc3495ab15334aab1c6c0d218b606001518c608001518e6020016020810190610bc29190612d97565b8f6040016020810190610bd59190612d97565b8888604051610be9969594939291906132d2565b60405180910390a350505050505050505050565b600080546040517f99fbab880000000000000000000000000000000000000000000000000000000081528291829182916001600160a01b0316906399fbab8890610c4b9088906004016135cd565b6101806040518083038186803b158015610c6457600080fd5b505afa158015610c78573d6000803e3d6000fd5b505050506040513d601f19601f82011682018060405250810190610c9c91906130f0565b5050505050965096505050505050610cb382610dcf565b9350610cbe81610dcf565b92505050915091565b6000808290506000816001600160a01b0316633850c7bd6040518163ffffffff1660e01b815260040160e06040518083038186803b158015610d0857600080fd5b505afa158015610d1c573d6000803e3d6000fd5b505050506040513d601f19601f82011682018060405250810190610d409190612e8d565b50949750505050505050505b919050565b600080829050806001600160a01b0316631a6865026040518163ffffffff1660e01b815260040160206040518083038186803b158015610d9057600080fd5b505afa158015610da4573d6000803e3d6000fd5b505050506040513d601f19601f82011682018060405250810190610dc89190612deb565b9392505050565b6000610dda82611c63565b92915050565b60006105a1848484611fbe565b6000806000610dfb84610f90565b9050600080610e0986610f9e565b915091506000610e1883610dcf565b90506000610e2583610dcf565b90506000826001600160a01b0316866001600160a01b03161015610e5557610e4e83838c610de0565b9050610e9b565b816001600160a01b0316866001600160a01b03161115610e7a57610e4e83838c610594565b60ff8b16610e8d57610e4e86838c610de0565b610e9883878c610594565b90505b610ea5818a6105c8565b909c909b509950505050505050505050565b6000610dda82612025565b6000610ed06102b783610420565b6fffffffffffffffffffffffffffffffff1692915050565b6001546001600160a01b031681565b600080610f0385610f90565b905060008360ff168560ff161015610f1d57848403610f21565b8385035b90508360ff168560ff161015610f615760c0610f5a60ff600c84900316600a0a610f546001600160a01b038616806123a3565b906123a3565b901c610f86565b60c0610f8360ff600c840116600a0a610f546001600160a01b038616806123a3565b901c5b9695505050505050565b6000610dda6102a483610420565b600080546040517f99fbab8800000000000000000000000000000000000000000000000000000000815282916001600160a01b0316906399fbab8890610fe89086906004016135cd565b6101806040518083038186803b15801561100157600080fd5b505afa158015611015573d6000803e3d6000fd5b505050506040513d601f19601f8201168201806040525081019061103991906130f0565b50949d939c50929a5050505050505050505050565b600080600061105c84610f9e565b91509150610f8661106c85610f90565b61107584610dcf565b61107e84610dcf565b89896123fc565b6000610f8684848489896123fc565b6002546001600160a01b031681565b600080546040517f99fbab8800000000000000000000000000000000000000000000000000000000815282916001600160a01b0316906399fbab88906110ed9086906004016135cd565b6101806040518083038186803b15801561110657600080fd5b505afa15801561111a573d6000803e3d6000fd5b505050506040513d601f19601f8201168201806040525081019061113e91906130f0565b50979d969c50959a5050505050505050505050565b61115b612ceb565b600080546040517f99fbab8800000000000000000000000000000000000000000000000000000000815282918291829182916001600160a01b03909116906399fbab88906111ad908a906004016135cd565b6101806040518083038186803b1580156111c657600080fd5b505afa1580156111da573d6000803e3d6000fd5b505050506040513d601f19601f820116820180604052508101906111fe91906130f0565b50506040805160a0810182526001600160a01b03998a16815298909716602089015250505062ffffff90921692840192909252600291820b6060840152900b6080820152975050505050505050919050565b6000546001600160a01b031681565b600080546040517f99fbab880000000000000000000000000000000000000000000000000000000081526001600160a01b03909116906399fbab88906112a99085906004016135cd565b6101806040518083038186803b1580156112c257600080fd5b505afa1580156112d6573d6000803e3d6000fd5b505050506040513d601f19601f820116820180604052508101906112fa91906130f0565b50959c9b505050505050505050505050565b600080600061131e8888888888611085565b905061132c81878787610578565b90999098509650505050505050565b600080836001600160a01b0316856001600160a01b0316111561135c579293925b846001600160a01b0316866001600160a01b031611611387576113808585856124c6565b91506113ce565b836001600160a01b0316866001600160a01b031610156113c0576113ac8685856124c6565b91506113b9858785612538565b90506113ce565b6113cb858585612538565b90505b94509492505050565b6000826001600160a01b0316846001600160a01b031611156113f7579192915b6105a161141d836c010000000000000000000000008787036001600160a01b0316612589565b612638565b60008061142e83612657565b505061144261143c846105ff565b84612675565b9092509050611452828285612758565b5050915091565b6000546040517f42966c680000000000000000000000000000000000000000000000000000000081526001600160a01b03909116906342966c68906114a29084906004016135cd565b600060405180830381600087803b1580156114bc57600080fd5b505af11580156114d0573d6000803e3d6000fd5b5050505050565b80516040517f70a082310000000000000000000000000000000000000000000000000000000081526000916001600160a01b0316906370a0823190611520903090600401613225565b60206040518083038186803b15801561153857600080fd5b505afa15801561154c573d6000803e3d6000fd5b505050506040513d601f19601f820116820180604052508101906115709190612f7a565b9050600082602001516001600160a01b03166370a08231306040518263ffffffff1660e01b81526004016115a49190613225565b60206040518083038186803b1580156115bc57600080fd5b505afa1580156115d0573d6000803e3d6000fd5b505050506040513d601f19601f820116820180604052508101906115f49190612f7a565b6002548451602086015160408088015190517ff7729d430000000000000000000000000000000000000000000000000000000081529495506000946001600160a01b039094169363f7729d439361165593909290918990889060040161327b565b602060405180830381600087803b15801561166f57600080fd5b505af1158015611683573d6000803e3d6000fd5b505050506040513d601f19601f820116820180604052508101906116a79190612f7a565b820190507f47d5216adfffacf4b2feb77308ff7ea217e6c997222ac3a1abf9932988d65c188383836040516116de939291906135e4565b60405180910390a150505050565b6040517fdd62ed3e0000000000000000000000000000000000000000000000000000000081526001600160a01b0383169063dd62ed3e9061174790309073111111125421ca6dc452d289314280a0f8842a6590600401613239565b60206040518083038186803b15801561175f57600080fd5b505afa158015611773573d6000803e3d6000fd5b505050506040513d601f19601f820116820180604052508101906117979190612f7a565b6117c5576117c56001600160a01b03831673111111125421ca6dc452d289314280a0f8842a6560001961282f565b6040517fdd62ed3e0000000000000000000000000000000000000000000000000000000081526001600160a01b0382169063dd62ed3e9061182090309073111111125421ca6dc452d289314280a0f8842a6590600401613239565b60206040518083038186803b15801561183857600080fd5b505afa15801561184c573d6000803e3d6000fd5b505050506040513d601f19601f820116820180604052508101906118709190612f7a565b61189e5761189e6001600160a01b03821673111111125421ca6dc452d289314280a0f8842a6560001961282f565b5050565b600073111111125421ca6dc452d289314280a0f8842a656001600160a01b0316826040516118d091906131ec565b6000604051808303816000865af19150503d806000811461190d576040519150601f19603f3d011682016040523d82523d6000602084013e611912565b606091505b505090508061189e5760405162461bcd60e51b815260040161077d9061339a565b6000546040517fdd62ed3e0000000000000000000000000000000000000000000000000000000081526001600160a01b038085169263dd62ed3e9261197e9230921690600401613239565b60206040518083038186803b15801561199657600080fd5b505afa1580156119aa573d6000803e3d6000fd5b505050506040513d601f19601f820116820180604052508101906119ce9190612f7a565b6119ee576000546119ee906001600160a01b03848116911660001961282f565b6000546040517fdd62ed3e0000000000000000000000000000000000000000000000000000000081526001600160a01b038084169263dd62ed3e92611a399230921690600401613239565b60206040518083038186803b158015611a5157600080fd5b505afa158015611a65573d6000803e3d6000fd5b505050506040513d601f19601f82011682018060405250810190611a899190612f7a565b61189e5760005461189e906001600160a01b03838116911660001961282f565b6000805460408051610160810182526001600160a01b038981168252888116602083015262ffffff881692820192909252600286810b606083015285900b608082015260a081018b905260c081018a905291169063883164569060e08101611b1c611b158d6064612989565b8d906129f0565b8152602001611b36611b2f8c6064612989565b8c906129f0565b815233602082015242604091820152517fffffffff0000000000000000000000000000000000000000000000000000000060e084901b168152611b7c91906004016134a0565b608060405180830381600087803b158015611b9657600080fd5b505af1158015611baa573d6000803e3d6000fd5b505050506040513d601f19601f82011682018060405250810190611bce9190612f92565b50919a9950505050505050505050565b604080516001600160a01b038416602482015260448082018490528251808303909101815260649091019091526020810180517bffffffffffffffffffffffffffffffffffffffffffffffffffffffff167fa9059cbb00000000000000000000000000000000000000000000000000000000179052611c5e908490612a4d565b505050565b60008060008360020b12611c7a578260020b611c82565b8260020b6000035b9050620d89e8811115611cdc576040805162461bcd60e51b815260206004820152600160248201527f5400000000000000000000000000000000000000000000000000000000000000604482015290519081900360640190fd5b600060018216611cfd57700100000000000000000000000000000000611d0f565b6ffffcb933bd6fad37aa2d162d1a5940015b70ffffffffffffffffffffffffffffffffff1690506002821615611d43576ffff97272373d413259a46990580e213a0260801c5b6004821615611d62576ffff2e50f5f656932ef12357cf3c7fdcc0260801c5b6008821615611d81576fffe5caca7e10e4e61c3624eaa0941cd00260801c5b6010821615611da0576fffcb9843d60f6159c9db58835c9266440260801c5b6020821615611dbf576fff973b41fa98c081472e6896dfb254c00260801c5b6040821615611dde576fff2ea16466c96a3843ec78b326b528610260801c5b6080821615611dfd576ffe5dee046a99a2a811c461f1969c30530260801c5b610100821615611e1d576ffcbe86c7900a88aedcffc83b479aa3a40260801c5b610200821615611e3d576ff987a7253ac413176f2b074cf7815e540260801c5b610400821615611e5d576ff3392b0822b70005940c7a398e4b70f30260801c5b610800821615611e7d576fe7159475a2c29b7443b29c7fa6e889d90260801c5b611000821615611e9d576fd097f3bdfd2022b8845ad8f792aa58250260801c5b612000821615611ebd576fa9f746462d870fdf8a65dc1f90e061e50260801c5b614000821615611edd576f70d869a156d2a1b890bb3df62baf32f70260801c5b618000821615611efd576f31be135f97d08fd981231505542fcfa60260801c5b62010000821615611f1e576f09aa508b5b7a84e1c677de54f3e99bc90260801c5b62020000821615611f3e576e5d6af8dedb81196699c329225ee6040260801c5b62040000821615611f5d576d2216e584f5fa1ea926041bedfe980260801c5b62080000821615611f7a576b048a170391f7dc42444e8fa20260801c5b60008460020b1315611f95578060001981611f9157fe5b0490505b640100000000810615611fa9576001611fac565b60005b60ff16602082901c0192505050919050565b6000826001600160a01b0316846001600160a01b03161115611fde579192915b600061200a856001600160a01b0316856001600160a01b03166c01000000000000000000000000612589565b905061056f61141d84838888036001600160a01b0316612589565b60006401000276a36001600160a01b03831610801590612061575073fffd8963efd1fc6a506488495d951d5263988d266001600160a01b038316105b6120b2576040805162461bcd60e51b815260206004820152600160248201527f5200000000000000000000000000000000000000000000000000000000000000604482015290519081900360640190fd5b77ffffffffffffffffffffffffffffffffffffffff00000000602083901b166fffffffffffffffffffffffffffffffff811160071b81811c67ffffffffffffffff811160061b90811c63ffffffff811160051b90811c61ffff811160041b90811c60ff8111600390811b91821c600f811160021b90811c918211600190811b92831c9790881196179094179092171790911717176080811061215c57607f810383901c9150612166565b80607f0383901b91505b908002607f81811c60ff83811c9190911c800280831c81831c1c800280841c81841c1c800280851c81851c1c800280861c81861c1c800280871c81871c1c800280881c81881c1c800280891c81891c1c8002808a1c818a1c1c8002808b1c818b1c1c8002808c1c818c1c1c8002808d1c818d1c1c8002808e1c9c81901c9c909c1c80029c8d901c9e9d7fffffffffffffffffffffffffffffffffffffffffffffffffffffffffffffff808f0160401b60c09190911c678000000000000000161760c19b909b1c674000000000000000169a909a1760c29990991c672000000000000000169890981760c39790971c671000000000000000169690961760c49590951c670800000000000000169490941760c59390931c670400000000000000169290921760c69190911c670200000000000000161760c79190911c670100000000000000161760c89190911c6680000000000000161760c99190911c6640000000000000161760ca9190911c6620000000000000161760cb9190911c6610000000000000161760cc9190911c6608000000000000161760cd9190911c66040000000000001617693627a301d71055774c8581027ffffffffffffffffffffffffffffffffffd709b7e5480fba5a50fed5e62ffc5568101608090811d906fdb2df09e81959a81455e260799a0632f8301901d600281810b9083900b1461239457886001600160a01b031661237882611c63565b6001600160a01b0316111561238d578161238f565b805b612396565b815b9998505050505050505050565b6000826123b257506000610dda565b828202828482816123bf57fe5b0414610dc85760405162461bcd60e51b81526004018080602001828103825260218152602001806136b96021913960400191505060405180910390fd5b6000836001600160a01b0316856001600160a01b0316111561241c579293925b846001600160a01b0316866001600160a01b03161161244757612440858585611fbe565b905061056f565b836001600160a01b0316866001600160a01b031610156124bb57600061246e878686611fbe565b9050600061247d8789866113d7565b9050806fffffffffffffffffffffffffffffffff16826fffffffffffffffffffffffffffffffff16106124b057806124b2565b815b9250505061056f565b610f868585846113d7565b6000826001600160a01b0316846001600160a01b031611156124e6579192915b836001600160a01b0316612528606060ff16846fffffffffffffffffffffffffffffffff16901b8686036001600160a01b0316866001600160a01b0316612589565b8161252f57fe5b04949350505050565b6000826001600160a01b0316846001600160a01b03161115612558579192915b6105a1826fffffffffffffffffffffffffffffffff168585036001600160a01b03166c010000000000000000000000005b60008080600019858709868602925082811090839003039050806125bf57600084116125b457600080fd5b508290049050610dc8565b8084116125cb57600080fd5b6000848688096000868103871696879004966002600389028118808a02820302808a02820302808a02820302808a02820302808a02820302808a02909103029181900381900460010186841190950394909402919094039290920491909117919091029150509392505050565b806fffffffffffffffffffffffffffffffff81168114610d4c57600080fd5b6000806105be6fffffffffffffffffffffffffffffffff8085612758565b60008060008061268586866105c8565b6000546040805160a0810182528981526fffffffffffffffffffffffffffffffff8b1660208201528082018590526060810184905242608082015290517f0c49ccbe0000000000000000000000000000000000000000000000000000000081529395509193506001600160a01b031691630c49ccbe9161270791600401613454565b6040805180830381600087803b15801561272057600080fd5b505af1158015612734573d6000803e3d6000fd5b505050506040513d601f19601f820116820180604052508101906105879190612fcf565b60008054604080516080810182528481523060208201526fffffffffffffffffffffffffffffffff808816828401528616606082015290517ffc6f786500000000000000000000000000000000000000000000000000000000815283926001600160a01b03169163fc6f7865916127d29190600401613408565b6040805180830381600087803b1580156127eb57600080fd5b505af11580156127ff573d6000803e3d6000fd5b505050506040513d601f19601f820116820180604052508101906128239190612fcf565b90969095509350505050565b8015806128ce5750604080517fdd62ed3e0000000000000000000000000000000000000000000000000000000081523060048201526001600160a01b03848116602483015291519185169163dd62ed3e91604480820192602092909190829003018186803b1580156128a057600080fd5b505afa1580156128b4573d6000803e3d6000fd5b505050506040513d60208110156128ca57600080fd5b5051155b6129095760405162461bcd60e51b81526004018080602001828103825260368152602001806137046036913960400191505060405180910390fd5b604080516001600160a01b038416602482015260448082018490528251808303909101815260649091019091526020810180517bffffffffffffffffffffffffffffffffffffffffffffffffffffffff167f095ea7b300000000000000000000000000000000000000000000000000000000179052611c5e908490612a4d565b60008082116129df576040805162461bcd60e51b815260206004820152601a60248201527f536166654d6174683a206469766973696f6e206279207a65726f000000000000604482015290519081900360640190fd5b8183816129e857fe5b049392505050565b600082821115612a47576040805162461bcd60e51b815260206004820152601e60248201527f536166654d6174683a207375627472616374696f6e206f766572666c6f770000604482015290519081900360640190fd5b50900390565b6000612aa2826040518060400160405280602081526020017f5361666545524332303a206c6f772d6c6576656c2063616c6c206661696c6564815250856001600160a01b0316612afe9092919063ffffffff16565b805190915015611c5e57808060200190516020811015612ac157600080fd5b5051611c5e5760405162461bcd60e51b815260040180806020018281038252602a8152602001806136da602a913960400191505060405180910390fd5b60606105a1848460008585612b1285612c41565b612b63576040805162461bcd60e51b815260206004820152601d60248201527f416464726573733a2063616c6c20746f206e6f6e2d636f6e7472616374000000604482015290519081900360640190fd5b600080866001600160a01b031685876040518082805190602001908083835b60208310612bbf57805182527fffffffffffffffffffffffffffffffffffffffffffffffffffffffffffffffe09092019160209182019101612b82565b6001836020036101000a03801982511681845116808217855250505050505090500191505060006040518083038185875af1925050503d8060008114612c21576040519150601f19603f3d011682016040523d82523d6000602084013e612c26565b606091505b5091509150612c36828286612c47565b979650505050505050565b3b151590565b60608315612c56575081610dc8565b825115612c665782518084602001fd5b8160405162461bcd60e51b81526004018080602001828103825283818151815260200191508051906020019080838360005b83811015612cb0578181015183820152602001612c98565b50505050905090810190601f168015612cdd5780820380516001836020036101000a031916815260200191505b509250505060405180910390fd5b6040805160a08101825260008082526020820181905291810182905260608101829052608081019190915290565b8051610d4c81613664565b8051610d4c8161367c565b8051610d4c8161368b565b805161ffff81168114610d4c57600080fd5b805162ffffff81168114610d4c57600080fd5b600060208284031215612d70578081fd5b8135610dc881613664565b600060208284031215612d8c578081fd5b8151610dc881613664565b600060208284031215612da8578081fd5b8135610dc88161367c565b600060208284031215612dc4578081fd5b813567ffffffffffffffff811115612dda578182fd5b820160c08185031215610dc8578182fd5b600060208284031215612dfc578081fd5b8151610dc88161368b565b60008060008060808587031215612e1c578283fd5b8435612e278161368b565b93506020850135612e3781613664565b92506040850135612e4781613664565b91506060850135612e5781613664565b939692955090935050565b60008060408385031215612e74578182fd5b8235612e7f8161368b565b946020939093013593505050565b600080600080600080600060e0888a031215612ea7578283fd5b8751612eb281613664565b6020890151909750612ec38161367c565b9550612ed160408901612d3a565b9450612edf60608901612d3a565b9350612eed60808901612d3a565b925060a0880151612efd816136a9565b60c08901519092508015158114612f12578182fd5b8091505092959891949750929550565b600080600060608486031215612f36578081fd5b8335612f4181613664565b92506020840135612f5181613664565b929592945050506040919091013590565b600060208284031215612f73578081fd5b5035919050565b600060208284031215612f8b578081fd5b5051919050565b60008060008060808587031215612fa7578182fd5b845193506020850151612fb98161368b565b6040860151606090960151949790965092505050565b60008060408385031215612fe1578182fd5b505080516020909101519092909150565b600080600080600060a08688031215613009578283fd5b8535945060208601359350604086013561302281613664565b9250606086013561303281613664565b9150608086013561304281613664565b809150509295509295909350565b600080600060608486031215613064578081fd5b505081359360208301359350604090920135919050565b60008060006060848603121561308f578081fd5b8335925060208401356130a1816136a9565b915060408401356130b1816136a9565b809150509250925092565b6000806000606084860312156130d0578081fd5b83356130db816136a9565b95602085013595506040909401359392505050565b6000806000806000806000806000806000806101808d8f031215613112578586fd5b8c516bffffffffffffffffffffffff8116811461312d578687fd5b9b5061313b60208e01612d19565b9a5061314960408e01612d19565b995061315760608e01612d19565b985061316560808e01612d4c565b975061317360a08e01612d24565b965061318160c08e01612d24565b955061318f60e08e01612d2f565b94506101008d015193506101208d015192506131ae6101408e01612d2f565b91506131bd6101608e01612d2f565b90509295989b509295989b509295989b565b6001600160a01b03169052565b60020b9052565b62ffffff169052565b60008251815b8181101561320c57602081860181015185830152016131f2565b8181111561321a5782828501525b509190910192915050565b6001600160a01b0391909116815260200190565b6001600160a01b0392831681529116602082015260400190565b6001600160a01b03938416815291909216602082015262ffffff909116604082015260600190565b6001600160a01b039586168152938516602085015262ffffff9290921660408401526060830152909116608082015260a00190565b60029190910b815260200190565b600292830b8152910b602082015260400190565b600296870b815294860b602086015292850b6040850152930b6060830152608082019290925260a081019190915260c00190565b6020808252602f908201527f5374616b656420616d6f756e747320616674657220726562616c616e6365206160408201527f726520696e73756666696369656e740000000000000000000000000000000000606082015260800190565b60208082526014908201527f4e65656420746f206368616e6765207469636b73000000000000000000000000604082015260600190565b60208082526010908201527f537761702063616c6c206661696c656400000000000000000000000000000000604082015260600190565b60208082526018908201527f43616c6c6572206d757374206f776e20706f736974696f6e0000000000000000604082015260600190565b815181526020808301516001600160a01b0316908201526040808301516fffffffffffffffffffffffffffffffff90811691830191909152606092830151169181019190915260800190565b600060a082019050825182526fffffffffffffffffffffffffffffffff602084015116602083015260408301516040830152606083015160608301526080830151608083015292915050565b6000610160820190506134b48284516131cf565b60208301516134c660208401826131cf565b5060408301516134d960408401826131e3565b5060608301516134ec60608401826131dc565b5060808301516134ff60808401826131dc565b5060a083015160a083015260c083015160c083015260e083015160e08301526101008084015181840152506101208084015161353d828501826131cf565b505061014092830151919092015290565b600060a0820190506001600160a01b038084511683528060208501511660208401525062ffffff6040840151166040830152606083015160020b6060830152608083015160020b608083015292915050565b6fffffffffffffffffffffffffffffffff91909116815260200190565b62ffffff91909116815260200190565b90815260200190565b918252602082015260400190565b9283526020830191909152604082015260600190565b60008083357fffffffffffffffffffffffffffffffffffffffffffffffffffffffffffffffe184360301811261362e578283fd5b83018035915067ffffffffffffffff821115613648578283fd5b60200191503681900382131561365d57600080fd5b9250929050565b6001600160a01b038116811461367957600080fd5b50565b8060020b811461367957600080fd5b6fffffffffffffffffffffffffffffffff8116811461367957600080fd5b60ff8116811461367957600080fdfe536166654d6174683a206d756c7469706c69636174696f6e206f766572666c6f775361666545524332303a204552433230206f7065726174696f6e20646964206e6f7420737563636565645361666545524332303a20617070726f76652066726f6d206e6f6e2d7a65726f20746f206e6f6e2d7a65726f20616c6c6f77616e6365a164736f6c6343000706000a",
  "devdoc": {
    "kind": "dev",
    "methods": {
      "calculateAmountsMintedSingleToken(uint8,uint256,uint256)": {
        "details": "Calculates single-side minted amountTakes an asset and amount and returnsthe amounts to deposit in the pool in the correct ratio",
        "params": {
          "amount": "- amount to deposit/withdraw",
          "inputAsset": "- use token0 if 0, token1 else",
          "positionId": "- nft id of the position"
        }
      },
      "calculatePoolMintedAmounts(uint256,uint256,uint160,uint160,uint160)": {
        "details": "Calculates the amounts deposited/withdrawn from the pool amount0, amount1 - amounts to deposit/withdraw amount0Minted, amount1Minted - actual amounts which can be deposited"
      },
      "getAmountsForLiquidity(uint128,uint160,uint160,uint160)": {
        "details": "Calculate token amounts for given pool liquidity"
      },
      "getAmountsForLiquidity(uint128,uint256)": {
        "details": "Calculate token amounts for given pool liquidity"
      },
      "getFee(uint256)": {
        "details": "Returns a position's fee",
        "params": {
          "positionId": "the nft id of the position"
        }
      },
      "getLiquidityForAmounts(uint256,uint256,uint160,uint160,uint160)": {
        "details": "Calculate pool liquidity for given token amounts"
      },
      "getLiquidityForAmounts(uint256,uint256,uint256)": {
        "details": "Calculate pool liquidity for given token amounts"
      },
      "getPoolLiquidity(uint256)": {
        "details": "Get a pool's liquidity from position id",
        "params": {
          "positionId": "the position id"
        }
      },
      "getPoolLiquidityFromAddress(address)": {
        "details": "Returns the current pool liquidity"
      },
      "getPoolPrice(uint256)": {
        "details": "Get a pool's price from position id",
        "params": {
          "positionId": "the position id"
        }
      },
      "getPoolPriceFromAddress(address)": {
        "details": "Get a pool's price from pool address",
        "params": {
          "_pool": "the pool address"
        }
      },
      "getPositionLiquidity(uint256)": {
        "details": "Returns a position's liquidity",
        "params": {
          "positionId": "the nft id of the position"
        }
      },
      "getPositionParams(uint256)": {
        "details": "Returns the parameters needed for reposition function",
        "params": {
          "positionId": "the nft id of the position"
        }
      },
      "getPriceFromTick(int24)": {
        "details": "get price from tick"
      },
      "getPriceRange(uint256)": {
        "details": "Returns a position's lower and upper prices (the price range of the position)",
        "params": {
          "positionId": "the nft id of the position"
        }
      },
      "getTickFromPrice(uint160)": {
        "details": "get tick from price"
      },
      "getTicks(uint256)": {
        "details": "Returns a position's lower and upper ticks",
        "params": {
          "positionId": "the nft id of the position"
        }
      },
      "getTokens(uint256)": {
        "details": "Returns a position's token 0 and token 1 addresses",
        "params": {
          "positionId": "the nft id of the position"
        }
      },
      "reposition((uint256,int24,int24,uint256,uint256,bytes))": {
        "details": "Rebalance a given Uni V3 position to a new price range",
        "params": {
          "params": "Reposition parameter structure"
        }
      }
    },
    "version": 1
  },
  "userdoc": {
    "kind": "user",
    "methods": {
      "getPoolPriceWithDecimals(uint256,uint8,uint8)": {
        "notice": "Get pool price in decimal notation with 12 decimals"
      },
      "getStakedTokenBalance(uint256)": {
        "notice": "Get token balances in the position"
      }
    },
    "notice": "Contract which manages an Uniswap V3 Position Can rebalance and change the ticks of the position",
    "version": 1
  },
  "storageLayout": {
    "storage": [
      {
        "astId": 3697,
        "contract": "contracts/UniswapPositionManager.sol:UniswapPositionManager",
        "label": "nftManager",
        "offset": 0,
        "slot": "0",
        "type": "t_contract(INonfungiblePositionManager)3126"
      },
      {
        "astId": 3699,
        "contract": "contracts/UniswapPositionManager.sol:UniswapPositionManager",
        "label": "uniswapFactory",
        "offset": 0,
        "slot": "1",
        "type": "t_contract(IUniswapV3Factory)1736"
      },
      {
        "astId": 3701,
        "contract": "contracts/UniswapPositionManager.sol:UniswapPositionManager",
        "label": "quoter",
        "offset": 0,
        "slot": "2",
        "type": "t_contract(IQuoter)3244"
      }
    ],
    "types": {
      "t_contract(INonfungiblePositionManager)3126": {
        "encoding": "inplace",
        "label": "contract INonfungiblePositionManager",
        "numberOfBytes": "20"
      },
      "t_contract(IQuoter)3244": {
        "encoding": "inplace",
        "label": "contract IQuoter",
        "numberOfBytes": "20"
      },
      "t_contract(IUniswapV3Factory)1736": {
        "encoding": "inplace",
        "label": "contract IUniswapV3Factory",
        "numberOfBytes": "20"
      }
    }
  }
}