{
  "address": "0x00f4646e64F4162F2326673DF09eb32bC9F8Dbd6",
  "abi": [
    {
      "inputs": [
        {
          "internalType": "contract INonfungiblePositionManager",
          "name": "_nftManager",
          "type": "address"
        },
        {
          "internalType": "contract IUniswapV3Factory",
          "name": "_uniswapFactory",
          "type": "address"
        },
        {
          "internalType": "contract IQuoter",
          "name": "_quoter",
          "type": "address"
        }
      ],
      "stateMutability": "nonpayable",
      "type": "constructor"
    },
    {
      "anonymous": false,
      "inputs": [
        {
          "indexed": false,
          "internalType": "uint256",
          "name": "token0Balance",
          "type": "uint256"
        },
        {
          "indexed": false,
          "internalType": "uint256",
          "name": "token1Balance",
          "type": "uint256"
        },
        {
          "indexed": false,
          "internalType": "uint256",
          "name": "value",
          "type": "uint256"
        }
      ],
      "name": "PositionState",
      "type": "event"
    },
    {
      "anonymous": false,
      "inputs": [
        {
          "indexed": true,
          "internalType": "uint256",
          "name": "oldPositionId",
          "type": "uint256"
        },
        {
          "indexed": true,
          "internalType": "uint256",
          "name": "newPositionId",
          "type": "uint256"
        },
        {
          "indexed": false,
          "internalType": "int24",
          "name": "oldLowerTick",
          "type": "int24"
        },
        {
          "indexed": false,
          "internalType": "int24",
          "name": "oldUpperTick",
          "type": "int24"
        },
        {
          "indexed": false,
          "internalType": "int24",
          "name": "newLowerTick",
          "type": "int24"
        },
        {
          "indexed": false,
          "internalType": "int24",
          "name": "newUpperTick",
          "type": "int24"
        },
        {
          "indexed": false,
          "internalType": "uint256",
          "name": "newStakedToken0Balance",
          "type": "uint256"
        },
        {
          "indexed": false,
          "internalType": "uint256",
          "name": "newStakedToken1Balance",
          "type": "uint256"
        }
      ],
      "name": "Repositioned",
      "type": "event"
    },
    {
      "inputs": [
        {
          "internalType": "uint256",
          "name": "amount0",
          "type": "uint256"
        },
        {
          "internalType": "uint256",
          "name": "amount1",
          "type": "uint256"
        },
        {
          "internalType": "uint160",
          "name": "poolPrice",
          "type": "uint160"
        },
        {
          "internalType": "uint160",
          "name": "priceLower",
          "type": "uint160"
        },
        {
          "internalType": "uint160",
          "name": "priceUpper",
          "type": "uint160"
        }
      ],
      "name": "calculatePoolMintedAmounts",
      "outputs": [
        {
          "internalType": "uint256",
          "name": "amount0Minted",
          "type": "uint256"
        },
        {
          "internalType": "uint256",
          "name": "amount1Minted",
          "type": "uint256"
        }
      ],
      "stateMutability": "pure",
      "type": "function"
    },
    {
      "inputs": [
        {
          "internalType": "uint128",
          "name": "liquidity",
          "type": "uint128"
        },
        {
          "internalType": "uint160",
          "name": "poolPrice",
          "type": "uint160"
        },
        {
          "internalType": "uint160",
          "name": "priceLower",
          "type": "uint160"
        },
        {
          "internalType": "uint160",
          "name": "priceUpper",
          "type": "uint160"
        }
      ],
      "name": "getAmountsForLiquidity",
      "outputs": [
        {
          "internalType": "uint256",
          "name": "amount0",
          "type": "uint256"
        },
        {
          "internalType": "uint256",
          "name": "amount1",
          "type": "uint256"
        }
      ],
      "stateMutability": "pure",
      "type": "function"
    },
    {
      "inputs": [
        {
          "internalType": "uint128",
          "name": "liquidity",
          "type": "uint128"
        },
        {
          "internalType": "uint160",
          "name": "poolPrice",
          "type": "uint160"
        },
        {
          "components": [
            {
              "internalType": "uint256",
              "name": "id",
              "type": "uint256"
            },
            {
              "internalType": "address",
              "name": "token0",
              "type": "address"
            },
            {
              "internalType": "address",
              "name": "token1",
              "type": "address"
            },
            {
              "internalType": "uint24",
              "name": "fee",
              "type": "uint24"
            },
            {
              "internalType": "int24",
              "name": "tickLower",
              "type": "int24"
            },
            {
              "internalType": "int24",
              "name": "tickUpper",
              "type": "int24"
            },
            {
              "internalType": "uint128",
              "name": "liquidity",
              "type": "uint128"
            }
          ],
          "internalType": "struct UniswapPositionManager.Position",
          "name": "pos",
          "type": "tuple"
        }
      ],
      "name": "getAmountsForLiquidity",
      "outputs": [
        {
          "internalType": "uint256",
          "name": "amount0",
          "type": "uint256"
        },
        {
          "internalType": "uint256",
          "name": "amount1",
          "type": "uint256"
        }
      ],
      "stateMutability": "pure",
      "type": "function"
    },
    {
      "inputs": [
        {
          "internalType": "uint256",
          "name": "amount0",
          "type": "uint256"
        },
        {
          "internalType": "uint256",
          "name": "amount1",
          "type": "uint256"
        },
        {
          "internalType": "uint160",
          "name": "poolPrice",
          "type": "uint160"
        },
        {
          "internalType": "uint160",
          "name": "priceLower",
          "type": "uint160"
        },
        {
          "internalType": "uint160",
          "name": "priceUpper",
          "type": "uint160"
        }
      ],
      "name": "getLiquidityForAmounts",
      "outputs": [
        {
          "internalType": "uint128",
          "name": "liquidity",
          "type": "uint128"
        }
      ],
      "stateMutability": "pure",
      "type": "function"
    },
    {
      "inputs": [
        {
          "components": [
            {
              "internalType": "uint256",
              "name": "id",
              "type": "uint256"
            },
            {
              "internalType": "address",
              "name": "token0",
              "type": "address"
            },
            {
              "internalType": "address",
              "name": "token1",
              "type": "address"
            },
            {
              "internalType": "uint24",
              "name": "fee",
              "type": "uint24"
            },
            {
              "internalType": "int24",
              "name": "tickLower",
              "type": "int24"
            },
            {
              "internalType": "int24",
              "name": "tickUpper",
              "type": "int24"
            },
            {
              "internalType": "uint128",
              "name": "liquidity",
              "type": "uint128"
            }
          ],
          "internalType": "struct UniswapPositionManager.Position",
          "name": "pos",
          "type": "tuple"
        }
      ],
      "name": "getPoolAddress",
      "outputs": [
        {
          "internalType": "address",
          "name": "pool",
          "type": "address"
        }
      ],
      "stateMutability": "view",
      "type": "function"
    },
    {
      "inputs": [
        {
          "internalType": "uint256",
          "name": "positionId",
          "type": "uint256"
        }
      ],
      "name": "getPoolPrice",
      "outputs": [
        {
          "internalType": "uint160",
          "name": "price",
          "type": "uint160"
        }
      ],
      "stateMutability": "view",
      "type": "function"
    },
    {
      "inputs": [
        {
          "internalType": "address",
          "name": "_pool",
          "type": "address"
        }
      ],
      "name": "getPoolPriceFromAddress",
      "outputs": [
        {
          "internalType": "uint160",
          "name": "price",
          "type": "uint160"
        }
      ],
      "stateMutability": "view",
      "type": "function"
    },
    {
      "inputs": [
        {
          "internalType": "int24",
          "name": "tick",
          "type": "int24"
        }
      ],
      "name": "getPriceFromTick",
      "outputs": [
        {
          "internalType": "uint160",
          "name": "",
          "type": "uint160"
        }
      ],
      "stateMutability": "pure",
      "type": "function"
    },
    {
      "inputs": [
        {
          "internalType": "uint256",
          "name": "positionId",
          "type": "uint256"
        }
      ],
      "name": "getStakedTokenBalance",
      "outputs": [
        {
          "internalType": "uint256",
          "name": "amount0",
          "type": "uint256"
        },
        {
          "internalType": "uint256",
          "name": "amount1",
          "type": "uint256"
        }
      ],
      "stateMutability": "view",
      "type": "function"
    },
    {
      "inputs": [],
      "name": "nftManager",
      "outputs": [
        {
          "internalType": "contract INonfungiblePositionManager",
          "name": "",
          "type": "address"
        }
      ],
      "stateMutability": "view",
      "type": "function"
    },
    {
      "inputs": [],
      "name": "quoter",
      "outputs": [
        {
          "internalType": "contract IQuoter",
          "name": "",
          "type": "address"
        }
      ],
      "stateMutability": "view",
      "type": "function"
    },
    {
      "inputs": [
        {
          "internalType": "uint256",
          "name": "positionId",
          "type": "uint256"
        }
      ],
      "name": "readPosition",
      "outputs": [
        {
          "components": [
            {
              "internalType": "uint256",
              "name": "id",
              "type": "uint256"
            },
            {
              "internalType": "address",
              "name": "token0",
              "type": "address"
            },
            {
              "internalType": "address",
              "name": "token1",
              "type": "address"
            },
            {
              "internalType": "uint24",
              "name": "fee",
              "type": "uint24"
            },
            {
              "internalType": "int24",
              "name": "tickLower",
              "type": "int24"
            },
            {
              "internalType": "int24",
              "name": "tickUpper",
              "type": "int24"
            },
            {
              "internalType": "uint128",
              "name": "liquidity",
              "type": "uint128"
            }
          ],
          "internalType": "struct UniswapPositionManager.Position",
          "name": "",
          "type": "tuple"
        }
      ],
      "stateMutability": "view",
      "type": "function"
    },
    {
      "inputs": [
        {
          "components": [
            {
              "internalType": "uint256",
              "name": "positionId",
              "type": "uint256"
            },
            {
              "internalType": "int24",
              "name": "newTickLower",
              "type": "int24"
            },
            {
              "internalType": "int24",
              "name": "newTickUpper",
              "type": "int24"
            },
            {
              "internalType": "uint256",
              "name": "minAmount0Staked",
              "type": "uint256"
            },
            {
              "internalType": "uint256",
              "name": "minAmount1Staked",
              "type": "uint256"
            },
            {
              "internalType": "bytes",
              "name": "swapData",
              "type": "bytes"
            }
          ],
          "internalType": "struct UniswapPositionManager.RepositionParams",
          "name": "params",
          "type": "tuple"
        }
      ],
      "name": "reposition",
      "outputs": [],
      "stateMutability": "nonpayable",
      "type": "function"
    },
    {
      "inputs": [],
      "name": "uniswapFactory",
      "outputs": [
        {
          "internalType": "contract IUniswapV3Factory",
          "name": "",
          "type": "address"
        }
      ],
      "stateMutability": "view",
      "type": "function"
    }
  ],
  "transactionHash": "0xd30ec87d77dba7e6bc7b5ea5a7642a6a965472fc20f802f1941651a7f033b087",
  "args": [
    "0xC36442b4a4522E871399CD717aBDD847Ab11FE88",
    "0x1F98431c8aD98523631AE4a59f267346ea31F984",
    "0xb27308f9F90D607463bb33eA1BeBb41C27CE5AB6"
  ],
  "numDeployments": 11,
  "solcInputHash": "cf32c52d7500eb26144dc01adfc5118f",
  "bytecode": "0x60806040523480156200001157600080fd5b5060405162002e6138038062002e61833981016040819052620000349162000077565b600080546001600160a01b039485166001600160a01b031991821617909155600180549385169382169390931790925560028054919093169116179055620000e3565b6000806000606084860312156200008c578283fd5b83516200009981620000ca565b6020850151909350620000ac81620000ca565b6040850151909250620000bf81620000ca565b809150509250925092565b6001600160a01b0381168114620000e057600080fd5b50565b612d6e80620000f36000396000f3fe608060405234801561001057600080fd5b50600436106100ea5760003560e01c80638bdb2afa1161008c578063bafcf68e11610066578063bafcf68e146101d5578063c6bbd5a7146101f5578063e88b91ea146101fd578063fe12dbfb14610205576100ea565b80638bdb2afa146101a75780639af94f30146101af578063b76e4d13146101c2576100ea565b806331add76f116100c857806331add76f1461014c57806341d00d0a1461016157806359e0fe1814610181578063736d917c14610194576100ea565b8063016c8cc0146100ef5780630dee2ff814610119578063182aa0d81461012c575b600080fd5b6101026100fd3660046124c8565b610218565b604051610110929190612b87565b60405180910390f35b6101026101273660046125bd565b610234565b61013f61013a3660046125bd565b61026a565b6040516101109190612ae7565b61015f61015a366004612448565b610397565b005b61017461016f3660046123d9565b61052c565b60405161011091906127e0565b61017461018f366004612411565b6105b4565b6101026101a2366004612480565b6105c5565b6101746105e7565b6101746101bd3660046125bd565b6105f6565b6101746101d036600461242d565b610607565b6101e86101e336600461264d565b6106b0565b6040516101109190612b61565b6101746106c9565b6101746106d8565b61010261021336600461264d565b6106e7565b60008061022785858589610716565b9097909650945050505050565b60008060006102428461026a565b9050600061025261016f83610607565b905061025e81836107b2565b90969095509350505050565b6102726121cd565b600080546040517f99fbab88000000000000000000000000000000000000000000000000000000008152829182918291829182916001600160a01b0316906399fbab88906102c4908b90600401612b7e565b6101806040518083038186803b1580156102dd57600080fd5b505afa1580156102f1573d6000803e3d6000fd5b505050506040513d601f19601f8201168201806040525081019061031591906126ab565b5050505097509750975097509750975050506040518060e00160405280898152602001876001600160a01b03168152602001866001600160a01b031681526020018562ffffff1681526020018460020b81526020018360020b8152602001826fffffffffffffffffffffffffffffffff1681525096505050505050505b919050565b60006103a3823561026a565b90506103b76103b183612c15565b826107cf565b60006103c2826108e3565b90506103ce8183610962565b506103db9050833561099c565b6103e481610a1a565b6103f160a0840184612bab565b1590506104655761040181610c76565b61044b61041160a0850185612bab565b8080601f016020809104026020016040519081016040528093929190818152602001838380828437600092019190915250610e0b92505050565b80516104569061052c565b6001600160a01b031660808201525b61046e81610a1a565b61047781610e9c565b600061048b8261048686612c15565b61102a565b905061049682611179565b6000806104b06104a587612c15565b8560800151856112ab565b8451608088015160a0890151939550919350918835917f8e7b1272607b2ee22f0cf286791a608d5eee7d9dbc3495ab15334aab1c6c0d21916104f860408c0160208d01612411565b61050860608d0160408e01612411565b888860405161051c9695949392919061286b565b60405180910390a3505050505050565b6000808290506000816001600160a01b0316633850c7bd6040518163ffffffff1660e01b815260040160e06040518083038186803b15801561056d57600080fd5b505afa158015610581573d6000803e3d6000fd5b505050506040513d601f19601f820116820180604052508101906105a59190612523565b50949998505050505050505050565b60006105bf826112f9565b92915050565b60008061025e85856105da86608001516105b4565b6100fd8760a001516105b4565b6001546001600160a01b031681565b60006105bf61016f6101d08461026a565b6001546020820151604080840151606085015191517f1698ee820000000000000000000000000000000000000000000000000000000081526000946001600160a01b031693631698ee829361066093919260040161280e565b60206040518083038186803b15801561067857600080fd5b505afa15801561068c573d6000803e3d6000fd5b505050506040513d601f19601f820116820180604052508101906105bf91906123f5565b60006106bf8484848989611654565b9695505050505050565b6002546001600160a01b031681565b6000546001600160a01b031681565b60008060006106f988888888886106b0565b905061070781878787610218565b90999098509650505050505050565b600080836001600160a01b0316856001600160a01b03161115610737579293925b846001600160a01b0316866001600160a01b0316116107625761075b85858561171e565b91506107a9565b836001600160a01b0316866001600160a01b0316101561079b5761078786858561171e565b9150610794858785611792565b90506107a9565b6107a6858585611792565b90505b94509492505050565b6000806107c48360c0015185856105c5565b909590945092505050565b60005482516040517f6352211e00000000000000000000000000000000000000000000000000000000815233926001600160a01b031691636352211e916108199190600401612b7e565b60206040518083038186803b15801561083157600080fd5b505afa158015610845573d6000803e3d6000fd5b505050506040513d601f19601f8201168201806040525081019061086991906123f5565b6001600160a01b0316146108985760405162461bcd60e51b815260040161088f9061296a565b60405180910390fd5b806080015160020b826020015160020b1415806108c357508060a0015160020b826040015160020b14155b6108df5760405162461bcd60e51b815260040161088f906128fc565b5050565b6108eb612209565b60006108f683610607565b90506040518060a00160405280826001600160a01b0316815260200184602001516001600160a01b0316815260200184604001516001600160a01b03168152602001846060015162ffffff1681526020016109508361052c565b6001600160a01b031690529392505050565b60008061096f84846117ef565b84519193509150610993906fffffffffffffffffffffffffffffffff9081906118e0565b50509250929050565b6000546040517f42966c680000000000000000000000000000000000000000000000000000000081526001600160a01b03909116906342966c68906109e5908490600401612b7e565b600060405180830381600087803b1580156109ff57600080fd5b505af1158015610a13573d6000803e3d6000fd5b5050505050565b60208101516040517f70a082310000000000000000000000000000000000000000000000000000000081526000916001600160a01b0316906370a0823190610a669030906004016127e0565b60206040518083038186803b158015610a7e57600080fd5b505afa158015610a92573d6000803e3d6000fd5b505050506040513d601f19601f82011682018060405250810190610ab691906125d5565b9050600082604001516001600160a01b03166370a08231306040518263ffffffff1660e01b8152600401610aea91906127e0565b60206040518083038186803b158015610b0257600080fd5b505afa158015610b16573d6000803e3d6000fd5b505050506040513d601f19601f82011682018060405250810190610b3a91906125d5565b905081610b81577f47d5216adfffacf4b2feb77308ff7ea217e6c997222ac3a1abf9932988d65c18828283604051610b7493929190612b95565b60405180910390a1610c71565b6002546020840151604080860151606087015191517ff7729d430000000000000000000000000000000000000000000000000000000081526000946001600160a01b03169363f7729d4393610bde93919289908890600401612836565b602060405180830381600087803b158015610bf857600080fd5b505af1158015610c0c573d6000803e3d6000fd5b505050506040513d601f19601f82011682018060405250810190610c3091906125d5565b820190507f47d5216adfffacf4b2feb77308ff7ea217e6c997222ac3a1abf9932988d65c18838383604051610c6793929190612b95565b60405180910390a1505b505050565b80602001516001600160a01b031663dd62ed3e3073111111125421ca6dc452d289314280a0f8842a656040518363ffffffff1660e01b8152600401610cbc9291906127f4565b60206040518083038186803b158015610cd457600080fd5b505afa158015610ce8573d6000803e3d6000fd5b505050506040513d601f19601f82011682018060405250810190610d0c91906125d5565b610d3f576020810151610d3f906001600160a01b031673111111125421ca6dc452d289314280a0f8842a656000196119ab565b80604001516001600160a01b031663dd62ed3e3073111111125421ca6dc452d289314280a0f8842a656040518363ffffffff1660e01b8152600401610d859291906127f4565b60206040518083038186803b158015610d9d57600080fd5b505afa158015610db1573d6000803e3d6000fd5b505050506040513d601f19601f82011682018060405250810190610dd591906125d5565b610e08576040810151610e08906001600160a01b031673111111125421ca6dc452d289314280a0f8842a656000196119ab565b50565b600073111111125421ca6dc452d289314280a0f8842a656001600160a01b031682604051610e3991906127a7565b6000604051808303816000865af19150503d8060008114610e76576040519150601f19603f3d011682016040523d82523d6000602084013e610e7b565b606091505b50509050806108df5760405162461bcd60e51b815260040161088f90612933565b60208101516000546040517fdd62ed3e0000000000000000000000000000000000000000000000000000000081526001600160a01b039283169263dd62ed3e92610eee923092909116906004016127f4565b60206040518083038186803b158015610f0657600080fd5b505afa158015610f1a573d6000803e3d6000fd5b505050506040513d601f19601f82011682018060405250810190610f3e91906125d5565b610f63576000546020820151610f63916001600160a01b0391821691166000196119ab565b60408082015160005491517fdd62ed3e0000000000000000000000000000000000000000000000000000000081526001600160a01b039182169263dd62ed3e92610fb5923092909116906004016127f4565b60206040518083038186803b158015610fcd57600080fd5b505afa158015610fe1573d6000803e3d6000fd5b505050506040513d601f19601f8201168201806040525081019061100591906125d5565b610e08576000546040820151610e08916001600160a01b0391821691166000196119ab565b6110326121cd565b60008061115785602001516001600160a01b03166370a08231306040518263ffffffff1660e01b815260040161106891906127e0565b60206040518083038186803b15801561108057600080fd5b505afa158015611094573d6000803e3d6000fd5b505050506040513d601f19601f820116820180604052508101906110b891906125d5565b86604001516001600160a01b03166370a08231306040518263ffffffff1660e01b81526004016110e891906127e0565b60206040518083038186803b15801561110057600080fd5b505afa158015611114573d6000803e3d6000fd5b505050506040513d601f19601f8201168201806040525081019061113891906125d5565b876080015161114a88602001516105b4565b61021389604001516105b4565b9150915061117082828787602001518860400151611b05565b95945050505050565b6112123382602001516001600160a01b03166370a08231306040518263ffffffff1660e01b81526004016111ad91906127e0565b60206040518083038186803b1580156111c557600080fd5b505afa1580156111d9573d6000803e3d6000fd5b505050506040513d601f19601f820116820180604052508101906111fd91906125d5565b60208401516001600160a01b03169190611c7a565b610e083382604001516001600160a01b03166370a08231306040518263ffffffff1660e01b815260040161124691906127e0565b60206040518083038186803b15801561125e57600080fd5b505afa158015611272573d6000803e3d6000fd5b505050506040513d601f19601f8201168201806040525081019061129691906125d5565b60408401516001600160a01b03169190611c7a565b6000806112b884846107b2565b6060870151919350915082108015906112d5575080856080015111155b6112f15760405162461bcd60e51b815260040161088f9061289f565b935093915050565b60008060008360020b12611310578260020b611318565b8260020b6000035b9050620d89e8811115611372576040805162461bcd60e51b815260206004820152600160248201527f5400000000000000000000000000000000000000000000000000000000000000604482015290519081900360640190fd5b600060018216611393577001000000000000000000000000000000006113a5565b6ffffcb933bd6fad37aa2d162d1a5940015b70ffffffffffffffffffffffffffffffffff16905060028216156113d9576ffff97272373d413259a46990580e213a0260801c5b60048216156113f8576ffff2e50f5f656932ef12357cf3c7fdcc0260801c5b6008821615611417576fffe5caca7e10e4e61c3624eaa0941cd00260801c5b6010821615611436576fffcb9843d60f6159c9db58835c9266440260801c5b6020821615611455576fff973b41fa98c081472e6896dfb254c00260801c5b6040821615611474576fff2ea16466c96a3843ec78b326b528610260801c5b6080821615611493576ffe5dee046a99a2a811c461f1969c30530260801c5b6101008216156114b3576ffcbe86c7900a88aedcffc83b479aa3a40260801c5b6102008216156114d3576ff987a7253ac413176f2b074cf7815e540260801c5b6104008216156114f3576ff3392b0822b70005940c7a398e4b70f30260801c5b610800821615611513576fe7159475a2c29b7443b29c7fa6e889d90260801c5b611000821615611533576fd097f3bdfd2022b8845ad8f792aa58250260801c5b612000821615611553576fa9f746462d870fdf8a65dc1f90e061e50260801c5b614000821615611573576f70d869a156d2a1b890bb3df62baf32f70260801c5b618000821615611593576f31be135f97d08fd981231505542fcfa60260801c5b620100008216156115b4576f09aa508b5b7a84e1c677de54f3e99bc90260801c5b620200008216156115d4576e5d6af8dedb81196699c329225ee6040260801c5b620400008216156115f3576d2216e584f5fa1ea926041bedfe980260801c5b62080000821615611610576b048a170391f7dc42444e8fa20260801c5b60008460020b131561162b57806000198161162757fe5b0490505b64010000000081061561163f576001611642565b60005b60ff16602082901c0192505050919050565b6000836001600160a01b0316856001600160a01b03161115611674579293925b846001600160a01b0316866001600160a01b03161161169f57611698858585611cfa565b9050611170565b836001600160a01b0316866001600160a01b031610156117135760006116c6878686611cfa565b905060006116d5878986611d66565b9050806fffffffffffffffffffffffffffffffff16826fffffffffffffffffffffffffffffffff1610611708578061170a565b815b92505050611170565b6106bf858584611d66565b6000826001600160a01b0316846001600160a01b0316111561173e579192915b836001600160a01b0316611780606060ff16846fffffffffffffffffffffffffffffffff16901b8686036001600160a01b0316866001600160a01b0316611da8565b8161178757fe5b0490505b9392505050565b6000826001600160a01b0316846001600160a01b031611156117b2579192915b6117e7826fffffffffffffffffffffffffffffffff168585036001600160a01b03166c01000000000000000000000000611da8565b949350505050565b6000806000806118088560c001518760800151876105c5565b6000546040805160a0810182528951815260c08a01516fffffffffffffffffffffffffffffffff1660208201528082018590526060810184905242608082015290517f0c49ccbe0000000000000000000000000000000000000000000000000000000081529395509193506001600160a01b031691630c49ccbe9161188f916004016129ed565b6040805180830381600087803b1580156118a857600080fd5b505af11580156118bc573d6000803e3d6000fd5b505050506040513d601f19601f82011682018060405250810190610227919061262a565b60008054604080516080810182528481523060208201526fffffffffffffffffffffffffffffffff808816828401528616606082015290517ffc6f786500000000000000000000000000000000000000000000000000000000815283926001600160a01b03169163fc6f78659161195a91906004016129a1565b6040805180830381600087803b15801561197357600080fd5b505af1158015611987573d6000803e3d6000fd5b505050506040513d601f19601f8201168201806040525081019061025e919061262a565b801580611a4a5750604080517fdd62ed3e0000000000000000000000000000000000000000000000000000000081523060048201526001600160a01b03848116602483015291519185169163dd62ed3e91604480820192602092909190829003018186803b158015611a1c57600080fd5b505afa158015611a30573d6000803e3d6000fd5b505050506040513d6020811015611a4657600080fd5b5051155b611a855760405162461bcd60e51b8152600401808060200182810382526036815260200180612d2c6036913960400191505060405180910390fd5b604080516001600160a01b038416602482015260448082018490528251808303909101815260649091019091526020810180517bffffffffffffffffffffffffffffffffffffffffffffffffffffffff167f095ea7b300000000000000000000000000000000000000000000000000000000179052610c71908490611e57565b611b0d6121cd565b60008060009054906101000a90046001600160a01b03166001600160a01b0316638831645660405180610160016040528088602001516001600160a01b0316815260200188604001516001600160a01b03168152602001886060015162ffffff1681526020018760020b81526020018660020b81526020018a8152602001898152602001611baf611ba860648d611f0890919063ffffffff16565b8c90611f6f565b8152602001611bc9611bc28b6064611f08565b8b90611f6f565b815233602082015242604091820152517fffffffff0000000000000000000000000000000000000000000000000000000060e084901b168152611c0f9190600401612a39565b608060405180830381600087803b158015611c2957600080fd5b505af1158015611c3d573d6000803e3d6000fd5b505050506040513d601f19601f82011682018060405250810190611c6191906125ed565b5050509050611c6f8161026a565b979650505050505050565b604080516001600160a01b038416602482015260448082018490528251808303909101815260649091019091526020810180517bffffffffffffffffffffffffffffffffffffffffffffffffffffffff167fa9059cbb00000000000000000000000000000000000000000000000000000000179052610c71908490611e57565b6000826001600160a01b0316846001600160a01b03161115611d1a579192915b6000611d46856001600160a01b0316856001600160a01b03166c01000000000000000000000000611da8565b9050611170611d6184838888036001600160a01b0316611da8565b611fcc565b6000826001600160a01b0316846001600160a01b03161115611d86579192915b6117e7611d61836c010000000000000000000000008787036001600160a01b03165b6000808060001985870986860292508281109083900303905080611dde5760008411611dd357600080fd5b50829004905061178b565b808411611dea57600080fd5b6000848688096000868103871696879004966002600389028118808a02820302808a02820302808a02820302808a02820302808a02820302808a02909103029181900381900460010186841190950394909402919094039290920491909117919091029150509392505050565b6000611eac826040518060400160405280602081526020017f5361666545524332303a206c6f772d6c6576656c2063616c6c206661696c6564815250856001600160a01b0316611feb9092919063ffffffff16565b805190915015610c7157808060200190516020811015611ecb57600080fd5b5051610c715760405162461bcd60e51b815260040180806020018281038252602a815260200180612d02602a913960400191505060405180910390fd5b6000808211611f5e576040805162461bcd60e51b815260206004820152601a60248201527f536166654d6174683a206469766973696f6e206279207a65726f000000000000604482015290519081900360640190fd5b818381611f6757fe5b049392505050565b600082821115611fc6576040805162461bcd60e51b815260206004820152601e60248201527f536166654d6174683a207375627472616374696f6e206f766572666c6f770000604482015290519081900360640190fd5b50900390565b806fffffffffffffffffffffffffffffffff8116811461039257600080fd5b60606117e7848460008585611fff85612123565b612050576040805162461bcd60e51b815260206004820152601d60248201527f416464726573733a2063616c6c20746f206e6f6e2d636f6e7472616374000000604482015290519081900360640190fd5b600080866001600160a01b031685876040518082805190602001908083835b602083106120ac57805182527fffffffffffffffffffffffffffffffffffffffffffffffffffffffffffffffe0909201916020918201910161206f565b6001836020036101000a03801982511681845116808217855250505050505090500191505060006040518083038185875af1925050503d806000811461210e576040519150601f19603f3d011682016040523d82523d6000602084013e612113565b606091505b5091509150611c6f828286612129565b3b151590565b6060831561213857508161178b565b8251156121485782518084602001fd5b8160405162461bcd60e51b81526004018080602001828103825283818151815260200191508051906020019080838360005b8381101561219257818101518382015260200161217a565b50505050905090810190601f1680156121bf5780820380516001836020036101000a031916815260200191505b509250505060405180910390fd5b6040805160e081018252600080825260208201819052918101829052606081018290526080810182905260a0810182905260c081019190915290565b6040805160a08101825260008082526020820181905291810182905260608101829052608081019190915290565b803561039281612cae565b805161039281612cae565b600082601f83011261225d578081fd5b813567ffffffffffffffff8082111561227257fe5b60405160207fffffffffffffffffffffffffffffffffffffffffffffffffffffffffffffffe0601f85011682010181811083821117156122ae57fe5b6040528281528483016020018610156122c5578384fd5b82602086016020830137918201602001929092529392505050565b803561039281612cc3565b805161039281612cc3565b600060e08284031215612307578081fd5b60405160e0810181811067ffffffffffffffff8211171561232457fe5b6040528235815290508061233a60208401612237565b602082015261234b60408401612237565b604082015261235c606084016123c3565b606082015261236d608084016122e0565b608082015261237e60a084016122e0565b60a082015261238f60c0840161239b565b60c08201525092915050565b803561039281612cd2565b805161039281612cd2565b805161ffff8116811461039257600080fd5b803561039281612cf0565b805161039281612cf0565b6000602082840312156123ea578081fd5b813561178b81612cae565b600060208284031215612406578081fd5b815161178b81612cae565b600060208284031215612422578081fd5b813561178b81612cc3565b600060e0828403121561243e578081fd5b61178b83836122f6565b600060208284031215612459578081fd5b813567ffffffffffffffff81111561246f578182fd5b820160c0818503121561178b578182fd5b60008060006101208486031215612495578182fd5b83356124a081612cd2565b925060208401356124b081612cae565b91506124bf85604086016122f6565b90509250925092565b600080600080608085870312156124dd578182fd5b84356124e881612cd2565b935060208501356124f881612cae565b9250604085013561250881612cae565b9150606085013561251881612cae565b939692955090935050565b600080600080600080600060e0888a03121561253d578485fd5b875161254881612cae565b602089015190975061255981612cc3565b9550612567604089016123b1565b9450612575606089016123b1565b9350612583608089016123b1565b925060a088015160ff81168114612598578283fd5b60c089015190925080151581146125ad578182fd5b8091505092959891949750929550565b6000602082840312156125ce578081fd5b5035919050565b6000602082840312156125e6578081fd5b5051919050565b60008060008060808587031215612602578182fd5b84519350602085015161261481612cd2565b6040860151606090960151949790965092505050565b6000806040838503121561263c578182fd5b505080516020909101519092909150565b600080600080600060a08688031215612664578283fd5b8535945060208601359350604086013561267d81612cae565b9250606086013561268d81612cae565b9150608086013561269d81612cae565b809150509295509295909350565b6000806000806000806000806000806000806101808d8f0312156126cd578586fd5b8c516bffffffffffffffffffffffff811681146126e8578687fd5b9b506126f660208e01612242565b9a5061270460408e01612242565b995061271260608e01612242565b985061272060808e016123ce565b975061272e60a08e016122eb565b965061273c60c08e016122eb565b955061274a60e08e016123a6565b94506101008d015193506101208d015192506127696101408e016123a6565b91506127786101608e016123a6565b90509295989b509295989b509295989b565b6001600160a01b03169052565b60020b9052565b62ffffff169052565b60008251815b818110156127c757602081860181015185830152016127ad565b818111156127d55782828501525b509190910192915050565b6001600160a01b0391909116815260200190565b6001600160a01b0392831681529116602082015260400190565b6001600160a01b03938416815291909216602082015262ffffff909116604082015260600190565b6001600160a01b039586168152938516602085015262ffffff9290921660408401526060830152909116608082015260a00190565b600296870b815294860b602086015292850b6040850152930b6060830152608082019290925260a081019190915260c00190565b6020808252602f908201527f5374616b656420616d6f756e747320616674657220726562616c616e6365206160408201527f726520696e73756666696369656e740000000000000000000000000000000000606082015260800190565b60208082526014908201527f4e65656420746f206368616e6765207469636b73000000000000000000000000604082015260600190565b60208082526010908201527f537761702063616c6c206661696c656400000000000000000000000000000000604082015260600190565b60208082526018908201527f43616c6c6572206d757374206f776e20706f736974696f6e0000000000000000604082015260600190565b815181526020808301516001600160a01b0316908201526040808301516fffffffffffffffffffffffffffffffff90811691830191909152606092830151169181019190915260800190565b600060a082019050825182526fffffffffffffffffffffffffffffffff602084015116602083015260408301516040830152606083015160608301526080830151608083015292915050565b600061016082019050612a4d82845161278a565b6020830151612a5f602084018261278a565b506040830151612a72604084018261279e565b506060830151612a856060840182612797565b506080830151612a986080840182612797565b5060a083015160a083015260c083015160c083015260e083015160e083015261010080840151818401525061012080840151612ad68285018261278a565b505061014092830151919092015290565b600060e0820190508251825260208301516001600160a01b038082166020850152806040860151166040850152505062ffffff6060840151166060830152608083015160020b608083015260a083015160020b60a08301526fffffffffffffffffffffffffffffffff60c08401511660c083015292915050565b6fffffffffffffffffffffffffffffffff91909116815260200190565b90815260200190565b918252602082015260400190565b9283526020830191909152604082015260600190565b60008083357fffffffffffffffffffffffffffffffffffffffffffffffffffffffffffffffe1843603018112612bdf578283fd5b83018035915067ffffffffffffffff821115612bf9578283fd5b602001915036819003821315612c0e57600080fd5b9250929050565b600060c08236031215612c26578081fd5b60405160c0810167ffffffffffffffff8282108183111715612c4457fe5b8160405284358352612c58602086016122e0565b6020840152612c69604086016122e0565b6040840152606085013560608401526080850135608084015260a0850135915080821115612c95578384fd5b50612ca23682860161224d565b60a08301525092915050565b6001600160a01b0381168114610e0857600080fd5b8060020b8114610e0857600080fd5b6fffffffffffffffffffffffffffffffff81168114610e0857600080fd5b62ffffff81168114610e0857600080fdfe5361666545524332303a204552433230206f7065726174696f6e20646964206e6f7420737563636565645361666545524332303a20617070726f76652066726f6d206e6f6e2d7a65726f20746f206e6f6e2d7a65726f20616c6c6f77616e6365a164736f6c6343000706000a",
  "devdoc": {
    "kind": "dev",
    "methods": {
      "calculatePoolMintedAmounts(uint256,uint256,uint160,uint160,uint160)": {
        "details": "Calculates the amounts deposited/withdrawn from the pool amount0, amount1 - amounts to deposit/withdraw amount0Minted, amount1Minted - actual amounts which can be deposited"
      },
      "getAmountsForLiquidity(uint128,uint160,(uint256,address,address,uint24,int24,int24,uint128))": {
        "details": "Calculate token amounts for given pool liquidity"
      },
      "getAmountsForLiquidity(uint128,uint160,uint160,uint160)": {
        "details": "Calculate token amounts for given pool liquidity"
      },
      "getLiquidityForAmounts(uint256,uint256,uint160,uint160,uint160)": {
        "details": "Calculate pool liquidity for given token amounts"
      },
      "getPoolPrice(uint256)": {
        "details": "Get a pool's price from position id",
        "params": {
          "positionId": "the position id"
        }
      },
      "getPoolPriceFromAddress(address)": {
        "details": "Get a pool's price from pool address",
        "params": {
          "_pool": "the pool address"
        }
      },
      "getPriceFromTick(int24)": {
        "details": "get price from tick"
      },
      "readPosition(uint256)": {
        "details": "Returns the parameters needed for reposition function",
        "params": {
          "positionId": "the nft id of the position"
        }
      },
      "reposition((uint256,int24,int24,uint256,uint256,bytes))": {
        "details": "Rebalance a given Uni V3 position to a new price range",
        "params": {
          "params": "Reposition parameter structure"
        }
      }
    },
    "version": 1
  },
  "userdoc": {
    "kind": "user",
    "methods": {
      "getStakedTokenBalance(uint256)": {
        "notice": "Get token balances in the position"
      }
    },
    "notice": "Contract which manages an Uniswap V3 Position Can rebalance and change the ticks of the position",
    "version": 1
  },
  "storageLayout": {
    "storage": [
      {
        "astId": 4248,
        "contract": "contracts/UniswapPositionManager.sol:UniswapPositionManager",
        "label": "nftManager",
        "offset": 0,
        "slot": "0",
        "type": "t_contract(INonfungiblePositionManager)3481"
      },
      {
        "astId": 4250,
        "contract": "contracts/UniswapPositionManager.sol:UniswapPositionManager",
        "label": "uniswapFactory",
        "offset": 0,
        "slot": "1",
        "type": "t_contract(IUniswapV3Factory)2091"
      },
      {
        "astId": 4252,
        "contract": "contracts/UniswapPositionManager.sol:UniswapPositionManager",
        "label": "quoter",
        "offset": 0,
        "slot": "2",
        "type": "t_contract(IQuoter)3599"
      }
    ],
    "types": {
      "t_contract(INonfungiblePositionManager)3481": {
        "encoding": "inplace",
        "label": "contract INonfungiblePositionManager",
        "numberOfBytes": "20"
      },
      "t_contract(IQuoter)3599": {
        "encoding": "inplace",
        "label": "contract IQuoter",
        "numberOfBytes": "20"
      },
      "t_contract(IUniswapV3Factory)2091": {
        "encoding": "inplace",
        "label": "contract IUniswapV3Factory",
        "numberOfBytes": "20"
      }
    }
  }
}